:020000040800F2
:10000000382400200D020008110200081302000825
:10001000150200081702000819020008000000007D
:100020000000000000000000000000001B020008AB
:100030001D020008000000001F0200082102000845
:1000400023020008230200082302000823020008FC
:1000500023020008230200082302000823020008EC
:1000600023020008230200082302000823020008DC
:1000700023020008230200082302000823020008CC
:1000800023020008230200082302000823020008BC
:1000900023020008230200082302000823020008AC
:1000A000230200082302000823020008230200089C
:1000B000230200082302000823020008230200088C
:1000C000230200082302000823020008230200087C
:1000D00023020008B52900082302000823020008B3
:1000E000230200082302000823020008230200085C
:1000F000230200082302000823020008230200084C
:10010000230200082302000823020008230200083B
:10011000230200082302000823020008230200082B
:10012000230200082302000823020008230200081B
:1001300000F002F800F05AF80AA090E8000C82449F
:100140008344AAF10107DA4501D100F04FF8AFF27C
:10015000090EBAE80F0013F0010F18BFFB1A43F0A5
:100160000103184730540000505400000A444FF077
:10017000000C10F8013B13F0070408BF10F8014B06
:100180001D1108BF10F8015B641E05D010F8016B4B
:10019000641E01F8016BF9D113F0080F1EBF10F8AF
:1001A000014BAD1C0C1B09D16D1E58BF01F801CBD2
:1001B000FAD505E014F8016B01F8016B6D1EF9D555
:1001C0009142D6D37047000000230024002500266A
:1001D000103A28BF78C1FBD8520728BF30C148BFAA
:1001E0000B6070471FB51FBD10B510BD00F062F861
:1001F0001146FFF7F7FF02F011FF00F080F803B49B
:10020000FFF7F2FF03BC02F059FD00000848004769
:10021000FEE7FEE7FEE7FEE7FEE7FEE7FEE7FEE7B6
:10022000FEE7FEE703480449044A054B7047000017
:1002300031010008381E002038240020382000201A
:1002400038200020704710B5431C02E010F8011B55
:1002500071B18107FAD14FF0013202C88C1A8C4378
:1002600014EAC211F9D0C01A0A0603D0C01E10BD8C
:10027000C01A10BD0A0401D0801E10BD0902FCD0B6
:10028000401E10BD704770477047704710B500F0B2
:1002900009F8006810BD10B5044600F003F80460CA
:1002A00010BD000000487047D41D00200048704772
:1002B000D41D00207546FFF7F9FFAE4605006946DC
:1002C000534620F00700854618B020B5FFF7AAFF77
:1002D000BDE820404FF000064FF000074FF0000847
:1002E0004FF0000B21F00701AC46ACE8C009ACE8C8
:1002F000C009ACE8C009ACE8C0098D46704710B52C
:100300000446AFF300802046BDE81040FFF777BFFA
:1003100010B5052002F090FD10BD000010B50020C2
:100320000F4908600F48006820F470400D490860CC
:100330000846006840F440500860FFF7E9FF0020DD
:100340000949C1F8AC01FFF7E3FF01200449086047
:10035000FFF7DEFF00200449C1F8A80110BD00002E
:10036000A8812142040C014000802142214880697B
:1003700040F008001F4988611F48006820F0F00025
:100380001D4908600846006840F030000860081DFC
:10039000006820F47060091D08600846006840F499
:1003A000407008600846006820F470400860084605
:1003B000006840F4405008600846006820F470006F
:1003C00008600846006840F440100860084600686D
:1003D00020F0706008600846006840F040700860D7
:1003E00005480C30006846F60241084302490C31CA
:1003F0000860704700100240000C014010B500205A
:100400000F4908600F48006820F470400D490860EB
:100410000846006840F440500860FFF779FF01206B
:100420000949C1F8AC01FFF773FF012004490860D6
:10043000FFF76EFF00200449C1F8A80110BD0000BD
:10044000A8812142040C01400080214270B505467C
:1004500000241648006820F47040144908600846DB
:10046000006840F4804008601E2002F0E5FC002691
:1004700012E000200E490860FFF74AFF01200D49F5
:10048000C1F8A8016006040E09487C38006808B16C
:10049000601CC4B2701CC6B2082EEADB15B9FFF7A7
:1004A000ADFF01E0FFF73AFF204670BD040C0140AC
:1004B000A88121420080214270B50446134800689B
:1004C00020F47040114908600846006840F440502C
:1004D000086000200E490860FFF71AFF002512E0AF
:1004E000E0090B49091D08606006040E0120094956
:1004F000C1F8A801FFF70CFF002005490860FFF7CD
:1005000007FF681CC5B2082DEADB70BD040C014072
:10051000A88121420080214210B50F48006820F4D4
:1005200070400D4908600846006840F4405008607B
:1005300001200A4908600A49C1F8A8011E2002F0FA
:100540007BFC002005490860FFF7E2FE002004491B
:10055000C1F8A80110BD0000040C0140AC8121428B
:100560000080214210B50E48006820F470400C490C
:1005700008600846006840F44050086001200949BE
:1005800008601E2002F058FC00200749C1F8AC01A9
:10059000FFF7BEFE01200349091D086010BD0000E1
:1005A000040C0140A88121420080214210B50024A2
:1005B0001348006820F4704011490860084600683C
:1005C00040F48040086001200E4908600E49C1F8DF
:1005D000A801FFF79DFE09E0601CC4B2FA2C03DD00
:1005E000FFF7C0FF012010BDFFF792FE05488038DD
:1005F00000680028F0D10349091F086000BFF2E736
:10060000040C0140AC8121420080214208B517A0B2
:1006100000F05AF84FF47840184908800020184933
:1006200008800120102317A21E2100900A2001F04B
:1006300033F90120102317A2322100900A2001F083
:100640002BF90120182318A2462100900A2001F05E
:1006500023F90120202318A2642100900A2001F030
:100660001BF940F2DC5002F0C9FB08BDD6D0CEC465
:10067000CFD4CABEB2E2CAD400000000BE0C002033
:10068000C00C002031365831363ABAE8D1B6B5E759
:10069000D7D3000031365831363A544654D2BABE18
:1006A000A7CFD4CABEC6C10032345832343AD6D0ED
:1006B000CEC4CFD4CABE000033325833323AB2E28D
:1006C000CAD4C0FDB3CC000038B504464FF6FF7065
:1006D00000F064FB1F2000903C4802881423002196
:1006E000084600F0ABFC4FF4FC60394908803748FD
:1006F000028814231946002000F0DCFB1F20344937
:1007000008803248028815231946002000F0D2FBE9
:100710004FF607402E4908802C48028816231946B8
:10072000002000F0C7FB1F20009028484388028863
:100730004088143881B2002000F080FC4FF4FC6047
:100740002349088021484088143883B21F48028812
:100750004088143881B2002000F0ACFB1F201C49F7
:1007600008801A484088153883B2184802884088A3
:10077000153881B2002000F09DFB4FF60740144968
:10078000088012484088163883B210480288408892
:10079000163881B2002000F08DFB4FF6FF700C4937
:1007A000088001201023224602210090002000F042
:1007B000ADFA0120009005484088123881B210231C
:1007C00004A2002000F0A2FA38BD0000C40D0020F1
:1007D000BE0C0020C9EEDBDACAD0BAE8D1B6B5E764
:1007E000D7D3D3D0CFDEB9ABCBBE000010B5FFF767
:1007F000BDFD002006490860142002F0FFFA012028
:100800000449C1F884014FF4967002F0F7FA10BD64
:1008100084812142008021422DE9F04106460F46A5
:100820001546FFF779FE7020FFF746FEFFF7BEFE84
:10083000F0B2FFF741FEFFF7B9FEFFF76DFE712042
:10084000FFF73AFEFFF7B2FE00240BE0691EA1425B
:1008500001D0012100E000210846FFF7F7FD3855DF
:10086000601CC4B2AC42F1DBFFF77CFEBDE8F08156
:1008700071B581B00024002660480078401C5F49B3
:100880000870084600780A2190FBF1F201FB120083
:1008900018B15A4800780A2867DA012201A9022013
:1008A000FFF7BAFF9DF8040000F00F0000287BD08E
:1008B0009DF8040000F00F00062875DA9DF804008A
:1008C00000F00F01FF208840C5B2E843C0B240F0FD
:1008D000C0004B4981F82000002457E0484890F8B8
:1008E00020000121A1400840F0B3464931F814002E
:1008F00004226946FFF790FF414890F8300000F06D
:100900000100C0B19DF801009DF8001001F00F0139
:1009100000EB01203A49163121F814009DF803003C
:100920009DF8021001F00F0100EB012134480C305A
:1009300020F8141017E09DF801009DF8001001F058
:100940000F0100EB01212E480C3020F814109DF807
:1009500003009DF8021001F00F0100EB012128486F
:10096000163020F8141001E00EE01DE09DF80000A4
:1009700000F0F000802807D000212148163020F830
:1009800014100A3820F81410601CC4B2052CA5DB22
:1009900001261B48808920B91948C08A08B900205F
:1009A00001900020154908709DF8040000F01F0018
:1009B000D0B9134890F8200000F0800040B11048F2
:1009C00090F8200020F080000D4981F820000BE015
:1009D0004FF6FF700A498881C882084690F82000C7
:1009E00000F0E00081F8200004480078F02802DDE3
:1009F0000A200249087030467CBD0000C20C00206D
:100A0000C40C0020965400082DE9F84F054689468D
:100A100090469A46AB463420009000245DE004EBFB
:100A20000410344911F8100098F80010884251D190
:100A300004EB04102F4901EB4000407898F80110B6
:100A4000884247D110231A464946284600F0A6FCA2
:100A500000F074FE00263BE0002734E0BAF1000FFE
:100A600014D104EB0410234901EB4000801C805D8D
:100A700080213941084020B11F48008800F030FE35
:100A80001FE01E48008800F02BFE1AE004EB041063
:100A9000184901EB4000801C805D802139410840ED
:100AA00018B14946284600F05DFA681C85B2A5EBEE
:100AB0000B00102805D15D4609F101001FFA80F9ED
:100AC00003E0781CC7B2082FC8DB00BF701CC6B299
:100AD000202EC1DB00BF601C84B2009884429EDBE4
:100AE0000748438802880021084600F057FCBDE80B
:100AF000F88F00000A000020BE0C0020C00C00206F
:100B0000C40D00202DE9F84F0546894690469A46C7
:100B1000AB4606200090002465E004EB840000EB67
:100B20004410374911F8100098F80010884257D146
:100B300004EB840000EB4410314901EB40004078A5
:100B400098F8011088424BD118231A464946284686
:100B500000F024FC00F0F2FD00263FE0002738E022
:100B6000BAF1000F16D104EB840000EB44102449C5
:100B700001EB4000801C805D80213941084020B19C
:100B80002048008800F0ACFD21E01F48008800F0FC
:100B9000A7FD1CE004EB840000EB4410184901EBB6
:100BA0004000801C805D80213941084018B14946D1
:100BB000284600F0D7F9681C85B2A5EB0B00182871
:100BC00005D15D4609F101001FFA80F903E0781CA8
:100BD000C7B2082FC4DB00BF701CC6B2482EBDDBF5
:100BE00000BF601C84B20098844296DB07484388AB
:100BF00002880021084600F0D1FBBDE8F88F000014
:100C0000F2060020BE0C0020C00C0020C40D002005
:100C10002DE9F84F0546894690469A46AB4608208E
:100C2000009000245DE004EB8410344911F81000BA
:100C300098F80010884251D104EB84102F4901EB41
:100C40004000407898F80110884247D120231A4686
:100C50004946284600F0A2FB00F070FD00263BE06C
:100C6000002734E0BAF1000F14D104EB84102349BB
:100C700001EB4000801C805D80213941084020B19B
:100C80001F48008800F02CFD1FE01E48008800F07F
:100C900027FD1AE004EB8410184901EB4000801C8A
:100CA000805D80213941084018B14946284600F04E
:100CB00059F9681C85B2A5EB0B00202805D15D46CB
:100CC00009F101001FFA80F903E0781CC7B2082F70
:100CD000C8DB00BF701CC6B2802EC1DB00BF601C29
:100CE00084B2009884429EDB074843880288002132
:100CF000084600F053FBBDE8F88F0000AE08002066
:100D0000BE0C0020C00C0020C40D00202DE9F84FBF
:100D10000746894690461C46DDF828A04046FFF766
:100D200092FA86B2102C0CDD214604EBD1725210DF
:100D30000D4B1B8806FB123000EBD072C2F34F053F
:100D400007E009490988A1EBC60000EBD071C1F3A7
:100D50004F05791988B2234642464946CDF800A08E
:100D600000F09AFDBDE8F88FC40D00200146490649
:100D7000084A926942F00102064B9A61064A52689B
:100D800022F0E062044B5A601A4652680A435A60E5
:100D900070470000001002400000014070B5064698
:100DA000002409480588408845430021084600F092
:100DB000DBFA00F0C3FC00BF03E0304600F090FC1B
:100DC000641CAC42F9D370BDC40D002010B50446BC
:100DD0000CB1012C1CD1002035498871F02008800D
:100DE0004FF4A07048802C2008812A2048812B20B5
:100DF000888134B9362000F047FC002000F016FC52
:100E000027E0362000F040FCC02000F00FFC20E07E
:100E1000022C01D0032C1CD10120254988714FF4EC
:100E2000A0700880F02048802C2008812A2048816A
:100E30002B208881022C06D1362000F025FCA02032
:100E400000F0F4FB05E0362000F01EFC602000F00E
:100E5000EDFB1749488900F017FC002000F0E6FB85
:100E6000002000F0E3FB12490988491EC1F30F205E
:100E700000F0DCFB0E490978491EC8B200F0D6FB31
:100E80000B49888900F000FC002000F0CFFB002017
:100E900000F0CCFB06494988491EC1F30F2000F041
:100EA000C5FB03498978491EC8B200F0BFFB10BDDD
:100EB000C40D00202DE9FF4F84B081468A460020F2
:100EC000039002900698A0EB09050798A0EB0A068C
:100ED000CDF80490CDF800A0002D01DD012705E03C
:100EE0000DB9002702E04FF0FF376D42002E02DD02
:100EF0004FF0010806E016B94FF0000802E04FF08D
:100F0000FF387642B54201DD2C4600E034464FF012
:100F1000000B21E0009A91B2019A90B200F022F801
:100F20000398284403900298304402900398A0420A
:100F300005DD0398001B0390019838440190029846
:100F4000A04205DD0298001B0290009840440090EA
:100F50000BF101001FFA80FB601C8345DADD08B04D
:100F6000BDE8F08F30B504460D462946204600F016
:100F7000FBF900F0E3FB0248008800F0B1FB30BD54
:100F8000BE0C00202DE9F04306460F469046002493
:100F900045460320A0EB48093CE07A1B91B2321988
:100FA00090B2FFF7DFFF3A1B91B2721990B2FFF7D0
:100FB000D9FF3A1991B2721990B2FFF7D3FF7A199B
:100FC00091B2321990B2FFF7CDFF7A1991B2321B6C
:100FD00090B2FFF7C7FF3A1991B2721B90B2FFF7B8
:100FE000C1FF7A1B91B2321B90B2FFF7BBFF3A1BD5
:100FF00091B2721B90B2FFF7B5FF641CB9F1000FFC
:1010000003DAA000801D814404E0601B80000A30E8
:1010100081446D1EAC42C0DDBDE8F08370B505466D
:101020000E4614463146284600F09EF902490889CA
:10103000214600F08BFB70BDC40D00202DE9FC4F54
:1010400005460E4617469846DDF82C900020019084
:101050002748808846F60401884229D124488079AF
:10106000012825D1AB46354621480088C01B401ECB
:1010700086B247461E480088A0EB0B00401E1FFAB0
:1010800080F800201A4988712A2048812B20888105
:1010900043463A4631462846CDF80090FFF7CEFF4A
:1010A0000120134988712B2048812A2088811CE067
:1010B000781B401C80B20190344614E0214628463B
:1010C00000F052F900F03AFB4FF0000A06E0484603
:1010D00000F006FB0AF101001FFA80FA0198824530
:1010E000F5DB601C84B24445E8DDBDE8FC8F000000
:1010F000C40D002010B59048806940F004008E496E
:1011000088610846806940F0080088610846806967
:1011100040F0100088610846806940F00100886155
:101120000120FFF723FE8548006880B283490860EC
:101130000846006882490843804908607F480C30AF
:10114000006840F0B0007D490C3108607D480068BF
:1011500020F0FF007B4908600846006840F033003B
:10116000086078480C30006840F0030075490C3185
:1011700008607448001D0068C0F313007149091D20
:101180000860084600686E4908436E49091D0860FA
:101190000846006840F4802008606A480C30006807
:1011A00040F4705067490C310860012066490860BE
:1011B00001F024FE00206549C1F8B4010A2001F0C5
:1011C0001DFE012060490860782001F017FE112003
:1011D00000F05AFA782001F011FE362000F054FA9F
:1011E000002000F023FA3A2000F04EFA052000F02B
:1011F0001DFAB22000F048FA0C2000F017FA0C207B
:1012000000F014FA002000F011FA332000F00EFA7A
:10121000332000F00BFAB72000F036FA352000F04A
:1012200005FABB2000F030FA282000F0FFF9C020BA
:1012300000F02AFA2C2000F0F9F9C22000F024FA7C
:10124000012000F0F3F9C32000F01EFA0B2000F09B
:10125000EDF9C42000F018FA202000F0E7F9C620CC
:1012600000F012FA0F2000F0E1F9D02000F00CFAA3
:10127000A42000F0DBF9A12000F0D8F9E02000F074
:1012800003FAD02000F0D2F9012000F0CFF90820B5
:1012900000F0CCF90F2000F0C9F9112000F0C6F9D8
:1012A0002A2000F0C3F9362000F0C0F9552000F0E4
:1012B000BDF9442000F0BAF93A2000F0B7F90B204C
:1012C00000F0B4F9062000F0B1F9112000F0AEF9F9
:1012D000202000F0ABF9E12000F0D6F9D02000F09A
:1012E000A5F9022000F0A2F9072000F09FF90A20DA
:1012F00000F09CF90B2000F099F9182000F096F905
:10130000342000F093F9432000F090F94A2000F0D7
:101310008DF92B2000F08AF91B2000F087F91C20A2
:1013200000F084F9222000F081F91F2000F07EF9FE
:10133000292000F0A9F910BD00100240000801406A
:1013400000003333000C0140B4812142008021426F
:1013500010B50246012000E050430B1EA1F101042C
:10136000E1B2F9D110BD000030B504460D460A497E
:10137000488900F089F9201200F058F9E0B200F035
:1013800055F90549888900F07FF9281200F04EF9D7
:10139000E8B200F04BF930BDC40D00202DE9F04358
:1013A00004460D4616461F46A019401E1FFA80F837
:1013B000E819401E1FFA80F91249488900F064F9C3
:1013C000201200F033F9E0B200F030F94FEA2820A3
:1013D00000F02CF908F0FF0000F028F9094988898D
:1013E00000F052F9281200F021F9E8B200F01EF9DD
:1013F0004FEA292000F01AF909F0FF0000F016F971
:10140000BDE8F083C40D00202DE9F84F80460E465C
:1014100017461C46B3462046E31704EB5373DB1014
:1014200021464FEAE47C04EB5C7C4FEAEC0CA4EB35
:10143000CC0CBCF1000F02D04FF0010C01E04FF0DA
:10144000000C6344224604EBD27C4FEA6C0C03FB95
:101450000CF3DBB20093A7F12000C7B2002556E0E1
:101460000C2C07D107EB47002B4901EB800010F84B
:10147000059013E0102C05D1284800EB071010F858
:1014800005900BE0182C07D107EBC700244901EBAE
:10149000800010F8059001E0BDE8F88F4FF0000AD9
:1014A0002FE009F0800030B11E48028831464046E6
:1014B000FFF7B4FD07E00A9828B91B4802883146B7
:1014C0004046FFF7ABFD4FEA49604FEA1069701CD8
:1014D00086B216484088B04200DCDDE7A6EB0B0080
:1014E000A0420AD15E4608F101001FFA80F80F48B9
:1014F0000088404500DCCFE706E00AF1010000F07B
:10150000FF0ABAF1080FCCDB00BF681CC5B2009817
:101510008542A5DB00BFBFE7D63C00084A41000872
:101520003A470008BE0C0020C00C0020C40D00206B
:101530002DE9FF4F81B0074691461E460E9D4FF0A4
:10154000000A002439E0301B401EC1B20A20FFF718
:10155000FFFEB9FBF0F00A21B0FBF1F201FB12082B
:10156000BAF1000F16D1701EA04213DDB8F1000FC2
:101570000ED10020AB4605EBDB71491001FB047175
:10158000009088B22B4620220299FFF73DFF12E01F
:101590004FF0010A0020AB4605EBDB71491001FB5F
:1015A0000471009088B208F13001CAB22B4602994A
:1015B000FFF72AFF00BF601CC4B2B442C3DB05B012
:1015C000BDE8F08F2DE9F84704460D469046994650
:1015D000DDE9096704F0FF0A08EB04001FFA80F850
:1015E00009EB05001FFA80F916E0444502DB54467A
:1015F000A81985B24D4500DB14E0002000903A7830
:10160000334629462046FFF7FFFE304606EBD071F1
:1016100004EB61018CB27F1C38787E2802DC3878BC
:101620002028E2DA00BFBDE8F88700000022134B53
:101630001A600122124BC3F89021002117E000F03C
:1016400080021AB101220F4B1A6002E000220D4BFA
:101650001A604FF6FF7202EA40000022094B083B75
:101660001A600122064BC3F894214A1CD1B2082902
:10167000E5DB0122014B1A6070470000B081214276
:10168000000021429C0121420022124B1A60124BA1
:10169000C3F89021002117E000F080021AB1012266
:1016A0000E4B1A6002E000220C4B1A604FF6FF72DC
:1016B00002EA40000022094B083B1A600122064B57
:1016C000C3F894214A1CD1B20829E5DB0122014B61
:1016D0001A607047B0812142000021429C012142E2
:1016E0000022134B1A600122124BC3F890210021F3
:1016F00017E000F400421AB101220F4B1A6002E019
:1017000000220D4B1A604FF6FF7202EA40000022E1
:10171000094B083B1A600122064BC3F894214A1C6E
:10172000D1B21029E5DB0122014B1A60704700009D
:10173000B0812142000021429C01214200B50249B2
:101740000889FFF7A1FF00BDC40D002030B5054694
:101750000C462846FFF798FF2046FFF7C1FF30BD33
:101760000CB54FF6FF70FFF719FB1F200B490880DF
:101770004FF6FF700A4908800AA01021CDE9001039
:1017800009490988183988B21023C8220021FFF7B7
:1017900019FF4FF47840014908800CBDBE0C0020B1
:1017A000C00C002052535400C40D002000B500208E
:1017B00015490861C8601420486100208861C8612B
:1017C0000846006840F001000860084640680F497C
:1017D00008400D494860084600680D4908400A491C
:1017E00008600846006820F48020086008464068C9
:1017F00020F4FE0048600020886000214FF0006067
:1018000000F008F800BD0000001002400000FFF8E2
:10181000FFFFF6FE024A0A400243024B1A6070477D
:1018200080FFFF1F08ED00E0002000210FE00022F4
:10183000084B1A604206100E074AD2F804210AB17A
:1018400040F001000122034B1A604A1CD1B2082962
:10185000EDDB7047A001214200002142002115E08C
:1018600000220C4B1A6000F0800222B10122094BC9
:10187000203B1A6003E00022064B203B1A60012245
:10188000044B1A604206100E4A1CD1B20829E7DB4D
:1018900070470000A00121422DE9F84706460F4697
:1018A00015461C46DDF82480B1464FF0000A65E07D
:1018B000BAF1000F3AD104EBD471334A1288A2EB8B
:1018C0006101B14204DB30494988091BB94201DAA0
:1018D000BDE8F8872878802802DD4FF0010A4DE046
:1018E00028780D2804D1381987B24E466D1C1BE0AC
:1018F000182C0BDBCDF800802A78182339463046A7
:10190000FFF782FD06F10C0086B20DE0CDF80080F5
:101910002A78234639463046FFF776FD204604EB09
:10192000D07106EB61018EB26D1C27E0164800886D
:10193000001BB04204DB14484088001BB84200DAA8
:10194000C6E74FF0000A202C06D143462A46394606
:101950003046FFF75DF90EE0182C06D143462A46C3
:1019600039463046FFF7CEF805E043462A46394669
:101970003046FFF749F8AD1C301986B228780028A8
:1019800096D100BFA4E70000C40D002030B5044686
:101990000025FFF70BFF1F48006840F480301D4909
:1019A000086000BF1B480068400C0028FAD04FF4C4
:1019B000806018494860A01EC4B20846406840EAEA
:1019C000844048600846406840F4803048601248CF
:1019D000006840F03200104908600E48006840F08E
:1019E00080700C49086000BF0A480068400E00285B
:1019F000FAD00848406840F002000649486005E017
:101A000004484068C0F3870505F00305022DF7D1AF
:101A100030BD000000100240002002402DE9FC5FB4
:101A200004460D4617461E46DDE90EABDDE90C897E
:101A30004FF478405749088057A01021CDE9001095
:101A4000564843880288A0212820FFF7BBFD54A0F8
:101A50001021CDE90010514843880288A021782048
:101A6000FFF7B0FD4FA01021CDE900104B4843888F
:101A70000288B4212820FFF7A5FD4BA01021CDE955
:101A80000010464843880288B4217820FFF79AFD69
:101A900046A01021CDE90010404843880288C821A3
:101AA0002820FFF78FFD42A01021CDE900103B4810
:101AB00043880288C8217820FFF784FD3DA01021CB
:101AC000CDE90010354843880288DC212820FFF743
:101AD00079FD39A01021CDE90010304843880288F3
:101AE000DC217820FFF76EFD34A01021CDE9001035
:101AF0002A4843880288F0212820FFF763FD102040
:101B000004232246A02100904020FFF711FD102061
:101B100004232A46A02100909020FFF709FD102001
:101B200004233A46B42100904020FFF701FD102025
:101B300004233246B42100909020FFF7F9FC1020D6
:101B400004234246C82100904020FFF7F1FC1020FA
:101B500004234A46C82100909020FFF7E9FC10209A
:101B600004235246DC2100904020FFF7E1FC1020C6
:101B700004235A46DC2100909020FFF7D9FC102066
:101B800003230090F0216020109AFFF7D1FCBDE8FC
:101B9000FC9F0000BE0C002078313A00C40D0020EC
:101BA00079313A0078323A0079323A0078333A00A3
:101BB00079333A0078343A0079343A006661632028
:101BC00069733A0000B59BB0002012900B90129000
:101BD0001F20FE4908804FF6FF70FD490880FFF77F
:101BE000DDF84FF47840F94908804FF6FF70FFF7B1
:101BF000D5F80020F5490880F648006810216423D4
:101C0000A022CDE9001028210846FFF7DBFC4FF4A5
:101C100078421421084600F0F5FB0020EE4981F8D7
:101C200020004862C2E3EC4840680A9001200A990B
:101C30008847E94890F8200000F0C000402878D19B
:101C400000200B90E44890F8200020F04000E2498A
:101C500081F820000846818913AA129842F83010B2
:101C6000DD48C18A129802EBC00041601298401C06
:101C7000C0B212901298012806D0022815D003286D
:101C800029D0042810D141E04FF6FF7214210846F4
:101C900000F0B8FBD1480088143880B24FF4784285
:101CA00014210A9000F0AEFB70E3CC480088143891
:101CB00080B24FF6FF7214210A9000F0A3FBC748D0
:101CC0004088143880B24FF4784201460A901420BC
:101CD00000F098FB5AE3C1484088143880B24FF6B0
:101CE000FF7201460A90142000F08CFBBB4840882C
:101CF000143880B20A90B9480088143880B24FF482
:101D0000784209900A9900F07DFB3FE315991398FA
:101D1000401A0A90002801DB0A9801E00A98404224
:101D20000F9014991698081A0A90002802DB0A9856
:101D300002E02CE30A9840420E900F9840430F9027
:101D40000E9840430E90DDE90E100844059001F016
:101D500060FACDE9060101F0FDF9CDE9080101F0D5
:101D60002BFA80B2119019991798401A0A900028FE
:101D700001DB0A9801E00A9840420F9018991A98DE
:101D8000081A0A90002801DB0A9801E00A984042EC
:101D90000E900F9840430F900E9840430E90DDE94F
:101DA0000E100844059001F034FACDE9060101F067
:101DB000D1F9CDE9080101F0FFF980B21090109837
:101DC00001F034FE0990119801F030FE0890099955
:101DD00001F016FD0A9001F085FCCDE90C014FF0F1
:101DE00066327F4BDDE90C0101F026FA0AD37D4A09
:101DF0007D4BDDE90C0101F059FB03D3119808B1CB
:101E00001098E8BB0020129074484088143880B2C3
:101E10000A9072480088143880B24FF6FF72099019
:101E20000A9900F0EFFA4FF478421421084600F0C6
:101E3000E9FA00226D4BDDE90C0101F039FACDE938
:101E4000080101F0B9F980B213A90A90898B89B20F
:101E5000199A92B213AB9B8A9BB2CDE90132CDE9BC
:101E60000310179880B2009013A8808980B209905F
:101E7000159880B20890149880B20790139800E0EB
:101E800006E080B2069007A90EC9FFF7C7FD8DE2F4
:101E900017991398401A0A90002801DB0A9801E06C
:101EA0000A9840420F9014991898081A0A9000282E
:101EB00001DB0A9801E00A9840420E900F984043D7
:101EC0000F900E9840430E90DDE90E1008440590E7
:101ED00001F09FF9CDE9060101F03CF9CDE90801D7
:101EE00001F06AF980B2119019991598401A0A9078
:101EF000002801DB0A9801E00A9840420F901699E9
:101F00001A98081A0A90002801DB0A9801E00A983A
:101F100040420E900F9840430F900E9840430E9011
:101F2000DDE90E100844059001F073F9CDE90601D2
:101F300001F010F9CDE9080101F03EF980B21090EE
:101F4000109801F073FD0990119801F06FFD089051
:101F5000099901F055FC0A9001F0C4FBCDE90C0190
:101F60004FF066321E4BDDE90C0101F065F906D336
:101F70001C4A1D4BDDE90C0101F098FA57D20020F4
:101F8000129016484088143880B20A90134800888E
:101F9000143880B24FF6FF7209900A9900F032FAB5
:101FA0004FF478421421084600F02CFA00220F4B1F
:101FB000DDE90C0101F07CF9CDE9080101F0FCF844
:101FC00080B202460A9013A8808B11E0BE0C00205C
:101FD000C00C0020A0540008C40C0020C40D002038
:101FE0006666EE3FCDCCCCCCCCCCF03F0000594067
:101FF00080B2199989B213AB9B8A9BB2CDE90131AA
:10200000CDE90302179880B2009013A8808980B2AE
:102010000990159880B20890149880B20790139890
:1020200080B2069007A90EC9FFF7F8FCBEE1179928
:102030001598401A0A90002801DB0A9801E00A98D6
:1020400040420F9016991898081A0A90002801DB50
:102050000A9801E00A9840420E900F9840430F9072
:102060000E9840430E90DDE90E100844059001F0F3
:10207000D0F8CDE9060101F06DF8CDE9080101F0D5
:102080009BF880B2119019991398401A0A90002871
:1020900001DB0A9801E00A9840420F9014991A98BF
:1020A000081A0A90002801DB0A9801E00A984042C9
:1020B0000E900F9840430F900E9840430E90DDE92C
:1020C0000E100844059001F0A4F8CDE9060101F0D6
:1020D00041F8CDE9080101F06FF880B21090109836
:1020E00001F0A4FC0990119801F0A0FC0890099956
:1020F00001F086FB0A9001F0F5FACDE90C014FF0F2
:102100006632AC4BDDE90C0101F096F806D3AA4A21
:10211000AA4BDDE90C0101F0C9F943D2002012906D
:10212000A7484088143880B20A90A548008814381F
:1021300080B24FF6FF7209900A9900F063F94FF4EC
:1021400078421421084600F05DF900229D4BDDE93C
:102150000C0101F0ADF8CDE9080101F02DF880B2D5
:1021600013A90A90898B89B2199A92B213AB9B8AF0
:102170009BB2CDE90132CDE90310179880B20090EF
:1021800013A8808980B20990159880B2089014989D
:1021900080B20790139880B2069007A90EC9FFF786
:1021A0003DFC03E113991598401A089001F026FCB4
:1021B0000A90834800882838089001F01FFC099095
:1021C0000A9901F01DFB804948621399159808444B
:1021D000059001F013FC06907B48406A014605908B
:1021E000069801F037FC089075480088069001F0C9
:1021F0001DFC0790089901F0F9FC4FF0804109900F
:1022000001F0FEFA0A9001F0BDFB00B26E4988852C
:1022100014991898401A089001F0F0FB0A90684849
:1022200040882838089001F0E9FB09900A9901F0EC
:10223000E7FA65498862149918980844059001F0F6
:10224000DDFB06906048806A01460590069801F023
:1022500001FC08905A484088069001F0E7FB07907F
:10226000089901F0C3FC4FF08041099001F0C8FAD1
:102270000A9001F087FB00B25349C8850846406ABE
:10228000089001F07FFB0990002801DB099801E02C
:102290000998404202280DDC4B48806A089001F002
:1022A00071FB0A90002801DB0A9801E00A9840427D
:1022B000022842DD0020129041484088143880B244
:1022C0000A903F480088143880B24FF6FF72099098
:1022D0000A9900F097F84FF478421421084600F06C
:1022E00091F83AA01021CDE90010354840880A90B5
:1022F00033480088099002461A2128200A9BFFF7DC
:1023000061F9314890F8300008B9012000E0002060
:102310002D4981F83000084690F8300030B1902007
:102320002F490870D0202F49087005E0D0202C4993
:10233000087090202B49087038E01F202A49088037
:102340004FF6FF70FEF72AFD28A01021CDE90010FE
:102350001B4840880A901A480088099002466E215E
:1023600023200A9BFFF72EF94FF47A7000F046FD08
:1023700000F024FC4EF61571884201D100F01AFAE3
:102380004FF6FF70FEF70AFD1BB000BD00BF0A202C
:1023900000F034FD0B98401C80B20B900B98B0F508
:1023A0007A7F02DD00F066F801E000BF3BE400BF89
:1023B00000BFE9E76666EE3FCDCCCCCCCCCCF03F9D
:1023C000C40D002000005940C40C00205450204E81
:1023D00065656420726561646A757374210000002C
:1023E000F80C0020F90C0020BE0C0020546F75631F
:1023F000682053637265656E2041646A757374204A
:102400004F4B210070B504460D461646184806800D
:1024100004F10D018AB2193988B22B462946FEF71C
:1024200049FD05F10D0083B2193881B222462046DC
:10243000FEF740FD6A1C91B2621C90B2FEF792FD5D
:102440006A1C91B2621E90B2FEF78CFD6A1E91B2B8
:10245000621C90B2FEF786FD6A1E91B2621E90B2B7
:10246000FEF780FD062229462046FEF78BFD70BD53
:10247000BE0C00207FB500F0A1FB4EF6157188421E
:1024800079D10E222821684600F0D6FA9DF80D4039
:102490000B2C7AD100249DF80300044324029DF8FC
:1024A0000200044324029DF80100044324029DF825
:1024B00000000443204601F0A1FA0546344901F02A
:1024C0009FF93449486200249DF807000443240220
:1024D0009DF80600044324029DF8050004432402ED
:1024E0009DF804000443204601F088FA0546284977
:1024F00001F086F927498862002088850846B0F9EE
:102500002C009DF80910084322498885084690F858
:102510002C00000200B288850846B0F92C009DF816
:10252000081008431B4988850020C8850846B0F973
:102530002E009DF80B1008431649C885084690F8F0
:102540002E00000200B2C8850846B0F92E009DF8A2
:102550000A1008430F49C8859DF80C0081F8300027
:10256000084690F8300038B190200B490870D02010
:102570000A49087006E008E0D0200749087090205A
:1025800006490870012004B070BD0020FBE7000080
:1025900020BCBE4CC40C0020F80C0020F90C00201C
:1025A00010B51E24FEF722F90248034948600020B6
:1025B00010BD000071080008C40C002070B506466C
:1025C0000025002400201F4908601F49C1F8900120
:1025D0001C49091D0860304600F0C6F9062000F0CD
:1025E0002BFC00201849C1F89801012000F024FCC0
:1025F00001201449086000F01FFC00201249C1F8B6
:10260000980100BF15E04FF6FF7000EA4404002077
:102610000C490860012000F00FFC01200A49C1F8B4
:10262000980108488C38006808B1601C84B2681CA6
:10263000C5B2102DE7DB241101200249091D0860F5
:10264000204670BD98012142000021422DE9FE4341
:1026500080460027002406E04046FFF7AFFF2DF834
:102660001400601C84B2052CF6DB002416E0601C0C
:1026700085B20FE03DF814003DF81510884207DDE3
:102680003DF814603DF815002DF814002DF8156084
:10269000681C85B2052DEDDB601C84B2042CE6DBE2
:1026A0000027012405E03DF81400384487B2601C7F
:1026B00084B2042CF7DB032097FBF0F086B230469F
:1026C000BDE8FE832DE9F04104460D460748007839
:1026D000FFF7BCFF064606480078FFF7B7FF07463E
:1026E00026802F800120BDE8F0810000F80C00203A
:1026F000F90C00207FB504460D4602A903A8FFF798
:10270000E1FF064616B9002004B070BD694601A875
:10271000FFF7D8FF06460EB90020F5E7BDF8040024
:10272000BDF80C10884206DCBDF80C10BDF80400A2
:10273000323081420CDBBDF80C00BDF80410884239
:1027400036DCBDF80410BDF80C00323081422FDABF
:10275000BDF80000BDF80810884206DCBDF808107E
:10276000BDF80000323081420CDBBDF80800BDF836
:10277000001088421CDCBDF80010BDF808003230A3
:10278000814215DABDF80C10BDF80420881800EB62
:10279000D071C1F34F012180BDF80810BDF80020B1
:1027A000881800EBD071C1F34F0129800120ABE7FD
:1027B0000020A9E77FB52649486A264901F04AF971
:1027C000054601F0DFF80446E0B28DF80000200A6B
:1027D0008DF80100200C8DF80200200E8DF803000A
:1027E0001B49886A1B4901F035F9054601F0CAF812
:1027F0000446E0B28DF80400200A8DF80500200C94
:102800008DF80600200E8DF80700114890F82C0076
:102810008DF808000E48808D000A8DF809000C48DC
:1028200090F82E008DF80A000948C08D000A8DF836
:102830000B00074890F830008DF80C000B248DF841
:102840000D400E222821684600F034F97FBD0000BB
:10285000C40C002020BCBE4C2DE9F0410446404889
:102860000068002856D12CB13E49A1F10A00FFF7BB
:1028700041FF3DE03B49A1F10A00FFF73BFFB8B340
:1028800038491639B1F92C0001F0B8F80746354936
:102890001639888901F0CAF8804632481638416AEC
:1028A000404601F0D7F80646394600F047FF054696
:1028B00001F084F82B4916398881B1F92E0001F016
:1028C0009DF8074627491639C88A01F0AFF88046B7
:1028D00024481638816A404601F0BCF8064639465D
:1028E00000F02CFF054601F069F81E491639C88230
:1028F0001C48163890F8200000F0800038BBC0203B
:102900001849163981F82000084681898182C18AD8
:10291000C1831CE01348163890F8200000F08000B6
:1029200050B11048163890F8200020F080000D4972
:10293000163981F820000AE000210A481638818201
:10294000C1834FF6FF70074916398881C882054850
:10295000163890F8200000F08000BDE8F0810000FB
:1029600014012142DA0C002070B50446002500BF96
:1029700018E004F0800018B101200C49086002E062
:1029800000200A4908606006040E0020074908314B
:102990000860012000F050FA01200549C1F89801B3
:1029A000681CC5B2082DE4DB70BD00009001214217
:1029B000000021421D49098801F0200111B31B4983
:1029C000091D0988C8B21A49098801F40041C9B92A
:1029D0001749098801F4804161B10A2803D0002118
:1029E000134A118020E01249098841F40041104A3D
:1029F000118019E00D2806D10D49098841F4804164
:102A00000B4A118010E00A490988C1F30D01094AF7
:102A1000505407490988491C054A11801146098804
:102A2000C72901DD002111807047000000380140F6
:102A300008000020FC0C0020F0B506460C461746A6
:102A400000BF00F021F80028FBD10E4908600320E8
:102A5000FEF704FFC4F30740FEF700FFC4F30720AE
:102A6000FEF7FCFEE0B2FEF7F9FE002504E0FEF7FB
:102A7000DBFE7055681C85B2BD42F8DB01200149C0
:102A80000860F0BDA401214210B50020074908608C
:102A90000520FEF7E3FEFEF7C7FE044601200449C9
:102AA000C1F8A40104F00104204610BDA401214294
:102AB000000021422DE9F04F81460F461646DFF80F
:102AC000A8B04FEA1738C7F30B0ACAF58054A642DC
:102AD00000DC344644E04FEA08314FF48052584657
:102AE000FFF7AAFF002508E00AEB05001BF800002D
:102AF000FF2800D003E0681C85B2A542F4DB00BFCC
:102B0000A54216DA404600F031F8002507E019F832
:102B1000050005EB0A010BF80100681C85B2A5420F
:102B2000F5DB4FEA08314FF48052584600F094F834
:102B300004E022463946484600F08EF8A64200D10D
:102B40000FE008F101084FF0000AA1442744301BB0
:102B500086B2B6F5805F02DD4FF4805400E0344663
:102B6000B9E700BFBDE8F08FD20D002010B50446D4
:102B7000240300F093F800BFFFF786FF0028FBD185
:102B80000C4908602020FEF769FEC4F30740FEF7F9
:102B900065FEC4F30720FEF761FEE0B2FEF75EFEBD
:102BA00001200549C1F8A40100BFFFF76DFF00280F
:102BB000FBD110BDA40121420000214210B5002428
:102BC00000200D4908609020FEF748FE0020FEF727
:102BD00045FE0020FEF742FE0020FEF73FFEFEF716
:102BE00023FE44EA0024FEF71FFE044301200349AC
:102BF000C1F8A401204610BDA401214200002142D9
:102C0000F0B506460C46174600F048F8002011497A
:102C100008600220FEF722FEC4F30740FEF71EFE06
:102C2000C4F30720FEF71AFEE0B2FEF717FE0025F8
:102C300004E0705DFEF712FE681C85B2BD42F8DB51
:102C400001200449086000BFFFF71EFF0028FBD1E8
:102C5000F0BD0000A4012142F0B507460E4614461F
:102C6000F0B2C0F58075AC4200DC254612E02A4681
:102C700031463846FFF7C4FFAC4200D10BE02F4489
:102C80002E44601B84B2B4F5807F02DD4FF4807562
:102C900000E02546EBE700BFF0BD000000B50020D6
:102CA000044908600620FEF7D9FD01200249C1F859
:102CB000A40100BDA401214200002142014600BF41
:102CC0007047000088B0002471E039484168002056
:102CD0008847002469E0364890F820000121A1408F
:102CE000084000285AD032480C3030F814003149DE
:102CF0000988884257DA2E48163030F814002D49DA
:102D0000498888424FDA03A830F824004FF6FF7153
:102D100088420DD126480C3030F8140003A921F860
:102D200024002348163030F8140001EB8401488059
:102D3000214830F8140002211D4D1635CDE9001050
:102D400035F814300A3D35F8142003AD05EB840541
:102D5000698803AD35F8240000F0F6F814480C300B
:102D600030F8140003A921F824001148163030F877
:102D7000140001EB840148800D480C3030F8141029
:102D80000C480088183881420DDD0948163030F8AB
:102D90001400102807DAFEF7E3FC04E04FF6FF709A
:102DA00003A921F82400601CC4B2052C93DB8CE736
:102DB000C40C0020C40D0020A45400084FF0E021F2
:102DC000096921F004014FF0E0221161C21700EB04
:102DD0005272C2F3C702074B1A701946097801EB09
:102DE0004102C2EBC1114FF6FF7202EAC101024A71
:102DF00011807047000000200200002001460D4AAB
:102E000012884A434FF0E0235A6100229A6101225E
:102E10001A6100BF4FF0E022106900F001021AB100
:102E200000F48032002AF5D000224FF0E0231A612E
:102E30009A6170470200002001460D4A12784A4309
:102E40004FF0E0235A6100229A6101221A6100BF0B
:102E50004FF0E022106900F001021AB100F4803254
:102E6000002AF5D000224FF0E0231A619A617047E2
:102E700000000020F8B505460E4614461F4604B96A
:102E8000F8BD2819401E82B23346314628460097C5
:102E9000FEF7D4F800BFF3E72DE9F04F0746884668
:102EA00016469A4640F2C32070434FF47A71B0FB45
:102EB000F1F000F1010906FB06F000EB560B344679
:102EC00071040A0CB91B88B253464146FFF7D2FF82
:102ED000012535E005FB05F004FB040058451AD92F
:102EE0004C4517D96B1E5B041A0C08EB040399B20E
:102EF0007B1B5B1C98B25346FFF7BCFF6B1E5B0449
:102F00001A0CA8EB040399B27B1B5B1C98B25346C6
:102F1000FFF7B0FF641E63041A0C08EB050399B2B7
:102F20003B1B98B25346FFF7A5FF63041A0CA8EBAE
:102F3000050399B23B1B98B25346FFF79BFF6D1CEC
:102F40004D45C7D9BDE8F08F2DE9FF4F85B08046CC
:102F50008946129F002003900290B84507DB07982E
:102F6000B84204DBB94502DB0898B84202DA09B07E
:102F7000BDE8F08F0798A0EB08040898A0EB0905BE
:102F8000CDF80480CDF80090002C02DD4FF0010A4E
:102F900006E014B94FF0000A02E04FF0FF3A644235
:102FA000002D02DD4FF0010B06E015B94FF0000BCC
:102FB00002E04FF0FF3B6D42AC4201DD264600E0EF
:102FC0002E460020049023E0009A91B2019A90B21C
:102FD0003A46139BFFF760FF039820440390029842
:102FE000284402900398B04205DD0398801B0390AB
:102FF0000198504401900298B04205DD0298801B70
:1030000002900098584400900498401C80B20490AC
:10301000711C04988842D7DD00BFA8E710B50920CD
:10302000FEF7B4FC4820FFF7C9FEFEF763F811482D
:1030300090F8300040F080000E4981F83000012007
:10304000FDF7C4FE4FF6FF70FDF7A8FE0AA000F0E2
:103050001BF8FDF7DBFA0020FDF7B8FE054908680C
:1030600080474FF4784007490880FFF72BFE002087
:1030700010BD0000C40C002049433A535437373880
:1030800039000000BE0C002038B5044620A0FDF732
:103090001BFB4FF47840224908800120202321A205
:1030A000642100900020FDF731FE4FF4FC601C49C4
:1030B0000880012020231DA2872100900020FDF719
:1030C00025FE1F2016490880012018232246AA2128
:1030D00000900020FDF71AFE002011490880012011
:1030E000182315A2C42100900020FDF70FFE002038
:1030F0000B4908800120182312A2EB210090002028
:10310000FDF704FE4FF4E160FFF778FE38BD0000E4
:10311000CFD4CABEC6C1B2E2CAD4B3CCD0F200008A
:10312000BE0C0020CFD4CABEC6C10000B2E2CAD4D1
:10313000B3CCD0F2000000003234305247422A3380
:103140003230000054454C3A313335323838393654
:10315000313237002DE9F04106460F4600F0DCF928
:10316000041E0D4618BF0120284320F00040C0F186
:103170007F6000F1E040C00F0ED0301C18BF01206E
:10318000384320F00040C0F17F6000F1E040C00F04
:1031900004BF0120FDF77FF820462946BDE8F081F5
:1031A000491058BFC1F140415B1058BFC3F14043C3
:1031B0008B42EFF3008070474FEA1153A3F5806311
:1031C000D3F11E03A8BFD3F1200C08DB4FF000425F
:1031D00042EAC12252EA505232FA03F070470942E1
:1031E0000BD4102BC4BF0020704703F5787CBCF1D2
:1031F000FF3F05D04FF0FF3070474FF000007047A1
:1032000070B500F0FFF800BF49922480002070479D
:10321000F0E7B0FA80F310FA03F10AD0C3F11D030E
:1032200003F580634FEA41504FEA035202EBD1218C
:1032300070474FF00000704751EA030C17D41CF59B
:10324000801F58BFBCF5801F00F10680994218BF4F
:10325000704708BF9042704707D711F5801F58BFCD
:1032600013F5801F19D499427047894270471CF5A5
:10327000801F08D5BCF5801FF7D58B4218BF70475B
:1032800008BF824270474FF4001C1CEB410F38BF4F
:103290001CEB430F01D28B42704770B500F0B2F8BF
:1032A000922449004FF000514FF08053FFF778BF50
:1032B000DFF848C170B51CEA111E1EBF1CEA1315C9
:1032C0009EEA0C0F95EA0C0F00F06F8081EA030470
:1032D00023EA4C134EEAD47E21EA4C1141F48011CA
:1032E00043F48013AE44A1FB024CA0FB0365AEF196
:1032F0007F7E361955EB0C05A1FB034C4CF1000306
:10330000A0FB021C16EB0C06654153F100030942B9
:1033100018BF46F0010613F4007F0BD14FEA0331CA
:103320004FEA0530340341EA155140EA16506FF078
:1033300003020AE04FEAC3214FEAC520F40241EA42
:10334000555140EA56506FF0020202EB2E4201EB5B
:10335000025585EACE710AD05FEA440C18BF24F00A
:10336000004450F1000041F1000120EAD47040F225
:10337000FE7C624500D270BDA84214BF4FF080446D
:103380004FF04044002E08BF0024BEF1806FA8BF5C
:10339000A1F1C041BDE8704080F282804FF0000092
:1033A00001F1C04101F0004170479EEA0C0F0CEAA8
:1033B000131518BF95EA0C0F06D04FF0000081EAF4
:1033C000030E0EF0004170BD00F01CF88900013EB4
:1033D00000F007B800F009B84FEA430C5FEA5C5C04
:1033E00008D081EA030100F05BB84FEA410C5FEAC4
:1033F0005C5CF6D14FF00000014970470000FF0708
:103400000000F87F0EF1020E2EF0030E5EF8046B42
:10341000364205D4012A43EB030515F5001F12D8E7
:10342000012841EB010C1CF5001F0CD80ED14FEA0E
:10343000D17C15F5001F0CEB4C0C0CF1020C08BFF5
:103440004CEBD37C04E04FF0080C01E04FEAD37C56
:103450000CEB4C0526FA05F606F00706B6F1040C4F
:1034600006D20EEB860CBDE870404CF0010C6047B4
:10347000DFE80CF0090B02024FF000414FF00000B2
:10348000A1F5002170BD19461046012851EB010439
:1034900018BFD4F5001484BF002001F0004170BDB6
:1034A0000808A0F500114FEA3101704753EA010CFA
:1034B00017D41CF5801F58BFBCF5801F00F1068093
:1034C0008B4218BF704708BF8242704707D713F579
:1034D000801F58BF11F5801F19D48B4270479B4243
:1034E00070471CF5801F08D5BCF5801FF7D59942A1
:1034F00018BF704708BF904270474FF4001C1CEB88
:10350000430F38BF1CEB410F01D2994270470FB4F3
:103510000CBC03BCFFF7C1BE2DE9F04101F5801CD6
:10352000BCF5001FC0F2C3804FEA115C21EA0C51C8
:103530000CF1FD0C41F480115FEA5C0C0CF5C07CD1
:1035400001D3400049413DA4890241EA90518702DC
:103550008E0E0A0CA45D04FB04F602FB06F6C6F10F
:103560004046A4FB0662F60D46EA422606FB06F438
:10357000A4FB01235242C3F1404338BF5B1EA6FBAC
:1035800002420024E6FB0324D20B42EA4446A6FB97
:103590000623A1FB02E2A3FB07E4A4184FF00002FC
:1035A00052F10002E3FB01426442C2F1404E38BFD7
:1035B000AEF1010EA6FB04234FF00002E6FB0E3233
:1035C000A2FB03464FF00004B61954F10004E2FBDD
:1035D0000264A1FB06E6A4FB07E816EB08064FF021
:1035E000000858F10008E4FB01687642C8F1405831
:1035F00038BFA8F10108A2FB06E4A3FB08E52D19DA
:103600004FF0000454F10004E2FB0854A1FB05E66E
:10361000A7FB04E818EB06084FF0000656F1000679
:10362000E1FB048618F1200556F10006A809A8F16F
:103630001B08B10908F03F08B8F10A0F40EA86609C
:103640001CD901EB0C51BDE8F08100BFFCF5EEE8A0
:10365000E2DDD8D3CFCBC7C3C0BDB9B6B4B1AEAC31
:10366000A9A7A5A3A19F9D9B9A9896959392908FA9
:103670008D8C8B898887868584838281A0FB0068F6
:1036800000FB01F208EB4208B8EB872807D5341895
:1036900058EB0104D5D5401C51F10001D1E7341A93
:1036A00078EB0104CDD4401E71F10001C9E75FEA57
:1036B0004C0C5FEA9C5C0DD105D34FF0000001F08B
:1036C0000041BDE8F081BDE8F04170B5FFF79AFE1A
:1036D0006DDBFFBEBDE8F0414FF0000000497047D0
:1036E0000000F87F43004FEAD30C4FEA3C0C434004
:1036F0001FBF40070CF1605113F0FE4F70471CF0E4
:10370000006F03D100200CF0004170470CF0004323
:1037100043EA507010B540EACC0000F01CFA00BF3C
:10372000000000924FEA0001FFF7BABE4FF00041DF
:103730004FF00000A1F500217047000090EA010F52
:1037400048BF81F0004100F15882421A3CBF801A04
:1037500089184FEAD0524FF07F4C1CEA410FA2EB80
:10376000D15318BF9CEA026F00F03B804FF0004C31
:103770004CEA00204CEA012121FA03FC10EB0C0C6E
:103780001ED202F1FF325FEA1C2040EBC25038BF6C
:1037900070471CF07F0F4FEA400C18BFBCF17F4F01
:1037A00038BF7047C3F12003994008BF20F00100E3
:1037B000BCF17F4F38BF7047A0F1C04000F011BA94
:1037C0004FEA3C00000A40EBC25028BF1CF0FF0F3C
:1037D0004FEA400CE6D018BFBCF17F4F38BF7047AE
:1037E000EAE79CEA026F05D010EA5C0F08BF00F020
:1037F0000040704710B500F0AEF900BF64FBBE3E5C
:103800004FF47F0C1CEAD0121EBF1CEAD11392EABF
:103810000C0F93EA0C0F00F0858090EA010F48BF6F
:1038200042F4807240F4000C41F400002CF07F411F
:1038300020F07F4000B58142A2EB03020FF2081C8A
:10384000ACEB504EC0F100009EF800E04FEA4E0E87
:1038500000FB0EFC38BF49004FEA2C1C02F5FA02AF
:103860000CFB0EF34FEACE1E4FEA112C4FEAC1219A
:103870000EEB635E42EB22420EFB0CFC4FEA1C5344
:1038800000FB03114FEA112C4FEA01310EFB0CFC37
:103890004FEADC4C00FB0C11C14228BF09184CEB6D
:1038A00003335DF804EB10EB410143EBC250B2F57A
:1038B0007C0F38BF704729D512F0F00F1CBF00F104
:1038C000C04000F000407047008182838485868775
:1038D00088898B8C8D8E8F919293959697999A9CCF
:1038E0009D9FA0A2A3A5A7A8AAACAEB0B2B3B5B73E
:1038F000B9BCBEC0C2C5C7C9CCCED1D4D7D9DCDF14
:10390000E2E6E9ECF0F3F7FAFE0000004FEA400CC3
:103910000CF1807CBCF17E4F28BF7047B0F1C040F5
:1039200000F05FB990EA010F0CEAD11348BF42F4EE
:103930008072624538BF634507D213F47F0F16D0FB
:1039400080EA010000F00040704710B500F003F974
:10395000097EFC3E00F005B880EA010000F000405E
:10396000704780EA010000F0004000F03AB912F41C
:103970007F0F04BF0248704780EA010000F031B9B0
:103980000000C07F41000B0ED3F19E0208D950F415
:1039900000034FEA032323FA02F048BF4042704776
:1039A00010B500F0D8F800BF49922480002070477D
:1039B0006FF0004282EA200070470000C10DD1F193
:1039C0009E0206DB4FEA002343F0004323FA02F095
:1039D0007047004207D54FEA4001B1F1FE4F02D2D5
:1039E0004FF00000704710B500F0B5F84992248000
:1039F000002070476FEA20007047000010F000417F
:103A000048BF4042B0FA80F310FA03F2C3F19D03BD
:103A10000BD051EAC35101EB1220530638BF704757
:103A200000F1010008BF20F001007047B0FA80F3F8
:103A300010FA03F2C3F19D030AD0D90501EB12205D
:103A4000530638BF704700F1010008BF20F00100A5
:103A5000704700004FF47F0C1CEAD0121EBF1CEA16
:103A6000D11392EA0C0F93EA0C0F00F0478090EA12
:103A7000010F48BF42F480724FF0004C4CEA002026
:103A80004CEA012102EB0302A0FB0113A2F50002A4
:103A9000002918BF43F001035B0028BF4FEA33033E
:103AA00042EB22425FEA132C4CEBC2502EBFBCEB20
:103AB000436FB2F57C0F70474FEA036CBCF1004FC7
:103AC00008BF20F00100B2F57C0F38BF70470BD55E
:103AD00082F0FF0212F5803FC8BF704700F1C0407E
:103AE000D8BF00F00040704700F5000C5FEA4C0CB6
:103AF00048BF7047B0F1C04000F073B890EA010FC2
:103B00000CEAD11348BF42F48072624538BF634566
:103B100004D280EA010000F00040704710B500F0C8
:103B20001AF800BF8900013E00F007B800F009B89C
:103B30005FEA410C5FEA1C6C08D080EA010000F0EB
:103B400050B85FEA400C5FEA1C6CF6D14FF00040C1
:103B5000A0F5800070470EF1020E2EF0030E5EF805
:103B6000044B244204D44FEA4102B2F17F4F11D8F2
:103B70004FEA4003B3F17F4F0CD80ED14FEAD07C0F
:103B8000B2F17F4F0CEB4C0C0CF1020C08BF4CEB6C
:103B9000D17C04E04FF0080C01E04FEAD17C0CEB43
:103BA0004C0324FA03F404F00704B4F1040C06D225
:103BB0000EEB840CBDE810404CF0010C6047DFE8D0
:103BC0000CF0070802024FF00040A0F5800010BD85
:103BD0000846420018BFD2F1807288BF00F0004052
:103BE00010BDFF2141EAD050C005704790EA010F97
:103BF00048BF81F000413FF5A8AD421A04D882F0D9
:103C00000042A0EB020011444FEAD0524FF07F4C2B
:103C10001CEA410FA2EBD15318BF9CEA026F4AD0B5
:103C20004FF0004C4CEA00204CEA012121FA03FC41
:103C3000B0EB0C0C0FD412F0FE0F36D05FEA4C0044
:103C40001DD5001240EBC25038BF70471CF03F0F2B
:103C500018BF70470BE0A2F101025FEA1C2040EBA5
:103C6000C25038BF70471CF07F0F18BF7047C3F1B8
:103C70002003994014BF401E20F0010070478008C7
:103C80004FEA122308BF7047B0FA80FCA2EB0C0287
:103C9000CCF1280C60FA0CF093EA122F04BF00EB71
:103CA000C25070474FEAC3707047130A5FEADC10D6
:103CB00008BF7047F6E79CEA026F04D010EA5C0F79
:103CC00008BF0020704710B5FFF745FF40DFF63E04
:103CD00081F000407047000000000000000000007C
:103CE0000000000000003F40000000000000000055
:103CF0003000400030004000000009000BC03D00D3
:103D00000BC03D00090018C024407FE022403180F4
:103D10000000180024C01B000D8032400180038089
:103D20001C4027401C80074000401000600000003D
:103D30000000000000000000000000001F80204084
:103D400040200000402020401F80000000000900AB
:103D500006001F80060009000000040004003F80E8
:103D600004000400000000100060000000000000DB
:103D7000000004000400040004000400000000002F
:103D800000400000000000000000002001C006000C
:103D90003800400000001F802040204020401F804D
:103DA0000000000010403FC000400000000018C0AC
:103DB0002140224024401840000010802040244030
:103DC00024401B80000002000D0011003FC0014094
:103DD00000003C80244024402440238000001F80B9
:103DE000244024403440038000003000200027C0DD
:103DF0003800200000001B802440244024401B8009
:103E000000001C0022C0224022401F800000000051
:103E100000000840000000000000000000000460F6
:103E2000000000000000000004000A0011002080D3
:103E300040400900090009000900090000000000D5
:103E40004040208011000A00040018002000234098
:103E50002400180000001F802040274029401F40F8
:103E60000000004007C039000F0001C000402040A2
:103E70003FC0244024401B8000001F802040204081
:103E800020403080000020403FC0204020401F8064
:103E9000000020403FC024402E4030C000002040A1
:103EA0003FC024402E00300000000F001080204052
:103EB00022403380020020403FC0040004003FC085
:103EC0002040204020403FC02040204000000060B3
:103ED000202020203FC02000200020403FC0244060
:103EE0000B0030C0204020403FC020400040004038
:103EF00000C03FC03C0003C03C003FC00000204069
:103F00003FC00C4023003FC020001F8020402040C5
:103F100020401F80000020403FC0244024001800A3
:103F200000001F802140214020E01FA00000204011
:103F30003FC02440260019C0004018C0244024403F
:103F4000224031800000300020403FC0204030003F
:103F5000000020003F80004000403F802000200003
:103F60003E0001C0070038002000380007C03C00B8
:103F700007C038000000204039C0060039C020408A
:103F800000002000384007C03840200000003040CA
:103F900021C02640384020C00000000000007FE023
:103FA000402040200000000070000C000380004012
:103FB00000000000402040207FE0000000000000E2
:103FC0002000400020000000000000100010001041
:103FD0000010001000100000000040000000000071
:103FE0000000000002800540054003C000402000A2
:103FF0003FC00440044003800000000003800440F0
:1040000004400640000000000380044024403FC0FC
:104010000040000003800540054003400000000010
:1040200004401FC0244024402000000002E005504E
:1040300005500650042020403FC00440040003C047
:1040400000400000044027C00040000000000010B5
:104050000010041027E00000000020403FC0014095
:10406000070004C00440204020403FC00040004002
:10407000000007C0040007C0040003C000000440A3
:1040800007C00440040003C0004000000380044057
:10409000044003800000041007F004500440038033
:1040A0000000000003800440045007F000100440AA
:1040B00007C0024004000400000000000640054064
:1040C000054004C00000000004001F8004400040C0
:1040D0000000040007800040044007C000400400C6
:1040E000070004C0018006000400060001C00700AC
:1040F00001C006000000044006C0010006C00440E4
:1041000000000410071004E0018006000400000015
:10411000044005C006400440000000000000040008
:104120007BE040200000000000000000FFF00000E5
:104130000000000040207BE0040000000000400080
:10414000800040002000200040000000000000002F
:10415000000000000000000000000000000000005F
:104160001FCC000C00000000000000000800300020
:1041700060000800300060000000022003FC1E20E8
:10418000022003FC1E200220000000000E18110473
:104190003FFF10840C78000000000F0010840F38DF
:1041A00000C0077818840078000000780F8410C4DD
:1041B00011240E9800E400840008080068007000D4
:1041C00000000000000000000000000000000000EF
:1041D00007E01818200440020000000040022004FC
:1041E000181807E0000000000000024002400180B3
:1041F0000FF001800240024000000080008000803B
:104200000FF800800080008000000001000D000E0B
:10421000000000000000000000000000008000809E
:10422000008000800080008000800000000C000CF6
:104230000000000000000000000000000006001860
:1042400000600180060018002000000007F0080848
:1042500010041004080807F0000000000804080417
:104260001FFC000400040000000000000E0C1014ED
:104270001024104411840E0C000000000C181004CF
:104280001104110412880C700000000000E00320EB
:10429000042408241FFC0024000000001F98108440
:1042A00011041104108810700000000007F0088845
:1042B0001104110418880070000000001C00100098
:1042C00010FC13001C001000000000000E38114408
:1042D0001084108411440E38000000000700088C80
:1042E00010441044088807F000000000000000009F
:1042F000030C030C0000000000000000000000019F
:1043000001060000000000000000000000800140E5
:1043100002200410080810040000022002200220DD
:1043200002200220022002200000000010040808E1
:104330000410022001400080000000000E00120066
:10434000100C106C10800F00000003E00C1813E438
:10435000142417C4082807D000000004003C03C43C
:104360001C40074000E4001C000410041FFC110462
:10437000110411040E880070000003E00C181004F2
:104380001004100410081C10000010041FFC10047E
:1043900010041004080807F0000010041FFC1104AA
:1043A000110417C410040818000010041FFC1104A5
:1043B000110017C010000800000003E00C181004E2
:1043C000100410441C780040000010041FFC1084EE
:1043D0000080008010841FFC1004000010041004F2
:1043E0001FFC100410040000000000030001100175
:1043F00010011FFE10001000000010041FFC11042B
:1044000003801464181C1004000010041FFC100426
:10441000000400040004000C000010041FFC1F0036
:1044200000FC1F001FFC1004000010041FFC0C0403
:10443000030000E010181FFC100007F0080810042B
:1044400010041004080807F0000010041FFC10847A
:104450001080108010800F00000007F00818102452
:104460001024101C080A07F2000010041FFC11049D
:10447000110011C011300E0C000400000E1C1104BC
:104480001084108410441C38000018001000100420
:104490001FFC100410001800000010001FF810048A
:1044A0000004000410041FF8100010001E0011E0AA
:1044B000001C007013801C0010001FC0103C00E0A6
:1044C0001F0000E0103C1FC000001004180C163440
:1044D00001C001C01634180C100410001C00130495
:1044E00000FC13041C00100000000804101C1064E1
:1044F000108413041C0410180000000000000000C9
:104500007FFE4002400240020000000030000C002C
:1045100003800060001C0003000000004002400215
:1045200040027FFE000000000000000000002000AC
:104530004000400040002000000000010001000198
:1045400000010001000100010001000040004000E6
:10455000200000000000000000000000009801247E
:1045600001440144014400FC000410001FFC0088C9
:104570000104010400880070000000000070008841
:10458000010401040104008800000000007000889C
:104590000104010411081FFC0004000000F801449C
:1045A00001440144014400C800000000010401046A
:1045B0000FFC1104110411001800000000D601299D
:1045C0000129012901C90106000010041FFC008413
:1045D00001000100010400FC0004000001041904B2
:1045E00019FC0004000400000000000000030001AA
:1045F0000101190119FE0000000010041FFC002435
:10460000004001B4010C010400000000100410047B
:104610001FFC0004000400000000010401FC010470
:10462000010001FC0104010000FC010401FC008404
:1046300001000100010400FC0004000000F8010476
:1046400001040104010400F80000010101FF0085DC
:104650000104010400880070000000000070008860
:1046600001040104010501FF00010104010401FC32
:1046700000840104010001800000000000CC01243E
:104680000124012401240198000000000100010020
:1046900007F80104010400000000010001F8000413
:1046A00000040004010801FC000401000180017005
:1046B000000C001001600180010001F0010C0030CD
:1046C00001C00030010C01F0010000000104018C68
:1046D00000740170018C010400000101018101716D
:1046E000000E001801600180010000000184010C2F
:1046F000013401440184010C0000000000000000AE
:10470000000001003EFC40024002000000000000EA
:104710000000FFFF00000000000000004002400217
:104720003EFC01000000000000000000600080006E
:104730008000400040002000200000000000000039
:104740000000000000000000000000000000000069
:104750000000000000000000000000000000000059
:10476000000000000000000000000000000F803882
:104770000FFE380F8038000000000000000000002D
:1047800000000000000000000100000600000C0016
:10479000003800003100000600000C000038000066
:1047A0003000000000000000000061800067F80792
:1047B000F980006180006180006180006180006795
:1047C000F807F98000618000000000000000000090
:1047D00001C0E003E0F00630080418081FFFFE04E3
:1047E0000E080787F00381E000000000000001F0E0
:1047F00000060C00040408060C7001F9C0000E004D
:10480000003BE000EC18070808040C180003E00067
:1048100000000001E00007F003F818041C0804176A
:104820000807E1D003C0E00023B0003C08002008E6
:104830000000100000000000000100003100003204
:1048400000001C000000000000000000000000004C
:104850000000000000000000000000000000000058
:10486000000000000000000000007F0001FFC00702
:1048700080F00C001810000420000200000000006E
:10488000002000021000040C00180780F001FFC097
:10489000007F000000000000000000000000000099
:1048A0000000000000004200006600006600003CBE
:1048B0000000180003FFC0001800003C0000660064
:1048C0000066000042000000000008000008000030
:1048D000080000080000080001FFC00008000008F0
:1048E00000000800000800000800000000000001AF
:1048F00000003100003200001C0000000000000039
:1049000000000000000000000000000000000000A7
:10491000000008000008000008000008000008006F
:10492000000800000800000800000800000800005F
:104930000000000000000000000038000038000007
:10494000380000000000000000000000000000002F
:1049500000000000000000000000000600001C0035
:104960000070000180000E0000380000C000070049
:10497000001C0000300000000000000000007F80EC
:1049800001FFE00380700600180400080400080618
:10499000001803807001FFE0007F8000000000002D
:1049A0000000000001000801000801000803FFF8F2
:1049B00007FFF800000800000800000800000000E1
:1049C000000000000001C03802C058040098040133
:1049D00018040218040418061C1803F81801E0F85B
:1049E00000000000000000000001C0E003C0F0046F
:1049F000000804080804080806180803F41801E76A
:104A0000F00001E0000000000000000000000300D2
:104A1000000D00001100006100008108030108077B
:104A2000FFF80FFFF8000108000108000000000077
:104A3000000000E007FCD006080806100806100871
:104A4000061008061838060FF00607C00000000020
:104A50000000000000003F8001FFE00384300208F6
:104A600018041008041008041008071810030FF0A9
:104A70000007C000000000000000000003C00007A5
:104A800000000600000600F80607F806180006E019
:104A90000007000006000000000000000001E1E047
:104AA00003F7F0063410041808041808040C08046E
:104AB0000C0806161803F3F001C1E0000000000026
:104AC0000000F80003FC3003063804020804020862
:104AD0000402080404100308F001FFC0007F000076
:104AE00000000000000000000000000000000000C6
:104AF00000007038007038007038000000000000BE
:104B000000000000000000000000000000000000A5
:104B1000000000000000301A00301C0000000000FF
:104B20000000000000000000000000000000000085
:104B300000080000140000220000410000808001F5
:104B400000400200200400100800080000000000DF
:104B500000002100002100002100002100002100B0
:104B600000210000210000210000210000210000A0
:104B7000000000000000000008000804001002000F
:104B8000200100400080800041000022000014004D
:104B900000080000000000000003C00004C0000482
:104BA0000000080038080F380808380810000C30DA
:104BB0000007E00003C000000000000000003F808C
:104BC00000FFE0038070020F1006708804C08804A4
:104BD0008308047F8802C09003012000FE4000008B
:104BE000080000180001F8003E0801C2000702009A
:104BF00007E20000FE00001FC80001F800003800B6
:104C0000000804000807FFF807FFF8040808040874
:104C10000804080804080806180803F41801E7F057
:104C20000001E0000000000000003F8001FFE00301
:104C30008070020018040008040008040008040042
:104C4000100600200780C000000004000807FFF8DD
:104C500007FFF80400080400080400080400180214
:104C6000001003807001FFE0007F8000000004005E
:104C70000807FFF807FFF8040808040808040808F4
:104C8000040808043E08040008060018010060003B
:104C9000000004000807FFF807FFF80408080408EC
:104CA00000040800040800043E000600000600009E
:104CB000018000000000000000003F8001FFE003D1
:104CC00080700600180400080402080402080203A9
:104CD000F00783F000020000020004000807FFF85C
:104CE00007FFF8040808000800000800000800009A
:104CF000080004080807FFF807FFF8040008000090
:104D00000000000004000804000804000807FFF881
:104D100007FFF80400080400080400080000000071
:104D20000000000000000006000007000001040071
:104D30000104000104000307FFFE07FFFC0400005C
:104D400004000004000004000807FFF807FFF8044F
:104D50000C08001800003E0004C7800503C80600C8
:104D6000F804003804001800000804000807FFF8E1
:104D700007FFF80400080000080000080000080011
:104D80000008000008000018000060000000040097
:104D90000807FFF807800807FC00007FC00003F841
:104DA0000007C000780007800807FFF807FFF80435
:104DB000000804000807FFF807000803C00000E02F
:104DC00000003800001E000007000001C00400F0D1
:104DD00007FFF8040000000000007F8001FFE003EF
:104DE000807006001804000804000806001803007C
:104DF0003001FFE0007F8000000004000807FFF89A
:104E000007FFF80404080404000404000404000478
:104E10000400060C0003F80001F000000000000090
:104E200000007F8001FFE003807006008804008896
:104E30000400C806003C03003E01FFE6007F84003A
:104E4000000004000807FFF807FFF804080804083A
:104E500000040C00040F00040BC00610F003F0382F
:104E600001E00800000800000001E0F803F030064F
:104E70003010041808041808040C08040C08020672
:104E8000180207F00781E000000001800006000022
:104E900004000004000004000807FFF807FFF804FE
:104EA0000008040000040000060000018000040067
:104EB0000007FFE007FFF0040018000008000008EA
:104EC00000000800000800000804001007FFE004CC
:104ED000000004000006000007E00007FE00041FB9
:104EE000E00001F80000380001E0043E0007C000C7
:104EF00006000004000004000007E00007FFC004F3
:104F00001FF80007C007F80007FF80043FF80007FC
:104F1000C004F800070000040000000000040008BE
:104F200006001807C07805F1C8003E00001F800485
:104F300063E80780F8060018040008000000040079
:104F40000006000007800007E008047C08001FF846
:104F50000007F800180804E0080700000600000435
:104F600000000000000100080600380400F80403F7
:104F7000E8040F08047C0805F00807C008070018BB
:104F800004006000000000000000000000000000BD
:104F900000000000003FFFFE200002200002200071
:104FA00002200002200002000000000000000000BB
:104FB00008000007000000C00000380000060000E4
:104FC00001C000003000000E0000010000000000E1
:104FD0000000000020000220000220000220000249
:104FE0002000023FFFFE0000000000000000000063
:104FF0000000000000000000000000080000100099
:105000000030000020000030000010000008000008
:10501000000000000000000001000001000001008D
:10502000000100000100000100000100000100007B
:10503000010000010000010000010000000000006C
:105040000000002000002000001000001000000000
:105050000000000000000000000000000000000050
:10506000000000F00019F8001B18002208002608B4
:10507000002408002410003FF8001FF8000008007A
:10508000001800000004000007FFF80FFFF00018F0
:1050900018001008002008002008003018001FF039
:1050A000000FC00000000000000007C0001FF0005B
:1050B0001830002008002008002008003C08001CD0
:1050C000100000600000000000000000000007C0A9
:1050D000001FF000381800200800200800200804F5
:1050E000101007FFF80FFFF0000010000000000094
:1050F000000000000007C0001FF00012300022185E
:10510000002208002208003208001E10000E2000B5
:10511000000000000000200000200800200801FF1F
:10512000F803FFF8062008042008042008072000E0
:1051300003000000000000000000000E000E6E00E2
:105140001FF30031B10020B10020B1003191001FE8
:1051500013002E1E00200E00300000000004000886
:1051600007FFF80FFFF800100800200000200000E3
:105170002008003FF8001FF80000080000000000B1
:1051800000000000002008002008002008063FF86A
:10519000063FF800000800000800000800000000BA
:1051A00000000000000000000000030000030020D9
:1051B00001002001002003063FFE063FFC00000026
:1051C00000000000000000000004000807FFF80FC6
:1051D000FFF8000188000300002FC00038F800200D
:1051E0003800200800000800000000000000000057
:1051F00004000804000804000807FFF80FFFF80087
:105200000008000008000008000000000000002066
:1052100008003FF8003FF8001008002000003FF8A9
:10522000003FF8001008002000003FF8003FF800A1
:105230000008000000002008003FF8003FF80010C0
:1052400008001000002000002008003FF8001FF8B0
:105250000000080000000000000007C0000FF00080
:10526000183000300800200800200800300800181E
:1052700030000FF00007C000000000000000200117
:10528000003FFF003FFF0010110020090020080030
:105290002008003038001FF0000FC00000000000A0
:1052A000000007C0001FF000381800200800200888
:1052B000002009001011001FFF003FFF0000010047
:1052C0000000002008002008002008003FF8003FF0
:1052D000F800080800100800200800200000300036
:1052E000003000000000000000000000000C78000A
:1052F0001E1800330800230800210800218800211F
:10530000980030F00038600000000000000020002D
:1053100000200000200000FFF003FFF8002008003C
:1053200020080020080000300000000000000000FD
:1053300000002000003FF0007FF800001800000887
:10534000000008002010003FF8007FF0000010006F
:105350000000000000002000003000003C00003F82
:10536000800023F0000078000070002380003C00E3
:10537000003000002000002000003C00003FE00062
:1053800023F80000E0002700003E00003FE000217D
:10539000F80001E0003E00002000000000002008AE
:1053A000002008003838003E680027800003C8004D
:1053B0002CF80038380020180020080000000000F9
:1053C00000002000003003003C01003F830023EC7C
:1053D000000070002380003C00002000002000003E
:1053E0000000000000000000003808002038002005
:1053F000F80023E8002F88003E0800380800201835
:10540000000070000000000000000000000000002C
:1054100000000000000008000014001FF7FC30002E
:105420000620000200000000000000000000000054
:10543000000000000000000000000000FFFFFF006F
:10544000000000000000000000000000000000005C
:10545000000000002000023000061FF7FC001400CE
:105460000008000000000000000000000000000034
:105470000000000000180000600000400000400034
:1054800000200000100000080000040000040000DC
:105490000C0000100000030009000F0015001B00A5
:1054A000E054000800F8E0071F0040BCE0FF0000E7
:1054B000885500086C5500085C5500087C550008AC
:1054C0001F000000E007000000F80000FF070000D8
:1054D0001FF80000E0FF000000000000FFFF0000D8
:1054E000506C656173652075736520746865207301
:1054F00074796C757320636C69636B2074686520C4
:1055000063726F7373206F6E2074686520736372AB
:1055100065656E2E5468652063726F7373207769BA
:105520006C6C20616C77617973206D6F7665207586
:105530006E74696C207468652073637265656E2093
:1055400061646A7573746D656E7420697320636F2E
:105550006D706C657465642E00000000526F74619C
:1055600074696F6E3A32373000000000526F746118
:1055700074696F6E3A31383000000000526F746108
:1055800074696F6E3A393000526F746174696F6E6E
:105590003A300000B455000800000020FC0C000068
:1055A0006C0100086C5F0008FC0C00203C17000038
:1055B000C8010008A123D7E81E7DF8450849022B41
:1055C00051F8061C45084510100A690851084108A1
:1055D00047FE4023B7F1137FFC138001120320091B
:1055E000056009183104C1023C1FF010012908139D
:1055F000D4F2B809047F044104412449021016146E
:10560000241204210440948088B5C820403F7E487D
:1056100090850801143FF801120133FFFE100A20A3
:105620007FFC0820042004A0180D40B4FD084008A9
:1056300040104023FC4808180E17FE3010501097F9
:10564000FE101012101102190D1420D6D812103BA2
:10565000F83F3C1A01801A117C2904495229501440
:10566000D0C2101508047F78180D4022401440FF66
:105670007E084808487F04180E2A48494888882828
:10568000881108C8E7104519023D7CFE4422021823
:1056900008424424441444080416227C42448023D3
:1056A000C9EE180C27FC140414A48110420840927F
:1056B000100F17FC2040E0E0215022482C462040EB
:1056C000480840DBDA11041124025AFD08290218A7
:1056D0000E1D24E124422402040404CAD002A6219F
:1056E0002B7FFCEA29A05B2108022C282110121331
:1056F000BAE8101E108020407C1F44846444544447
:1057000044044C2440447EC40247025C7A48024070
:105710000A1C04D1B68819E01C111001022DF110E9
:1057200017D00C1902C80C12150A190A1106010229
:10573000B5E75E9908160A010201021CFED7D38460
:105740001AF8EF122015400180014BFFFE3249028A
:10575000120512021AD3AA1A021812041204280DF2
:105760000FF0081018102FF0481088100C1902269E
:10577000500820CFDE180A7BF84A08520853F86216
:105780000610124BF84A444A486A305220421042EE
:105790008843064213B9AB1B800402180D08400869
:1057A00040102020104208820650200A4008201095
:1057B000203FF0101023CBBE133FF812082C087FB7
:1057C000E8061B1F88633902290A1112281C10CD14
:1057D000BCAA1820FC4204420447E44C44528441D1
:1057E0000446C4783C43044084460441847FFC4022
:1057F00004D0CE22680E8412041208121012221253
:1058000002FFC40A28132204220842108260D3A295
:1058100008200820FFFE0820DE2D1FF01110022DA9
:10582000FFFE02808C38083018C006CEC402FA1C75
:10583000FFFE1001292E160440028001892213CA9E
:10584000D4100A2820241024102007FE280820F055
:105850002017E01120461009151019CA170A020670
:105860002C02D6D04229026D3FF8210802290C698A
:105870001813B2E2180B0427C41444145485544579
:10588000021A150210112554E554210422842244E1
:1058900024140808D2BA282480204017FE11208141
:1058A00020423C4244166412942348E248223022AB
:1058B00020225022880306BEA70FE0A06906218F90
:1058C0007EFC428442840623CFD42B1FF0C8690695
:1058D000200F044044442444144814500440FFFE64
:1058E00023CABE833FF82BFFFE9C19CC1009082168
:1058F00004410281020512022BC6C122196119C09E
:105900001F241022202FF880180B203FFC22204259
:1059100020442084191808D0FD20801080103C12EB
:10592000FE180921FC20243C2424A0022ABC0616CF
:105930004560553E8A3CD7AA20012817FDFC40202F
:10594000504093FEFC40108011FC1C04F088505025
:1059500010209A14B3CC081E1DFCF104110214FD92
:10596000FC101230180939FE5420542091FC2015E7
:105970002013FE1024D0F20115803FFE201B23F8D7
:10598000133EA020402FFE832A4001138140148043
:10599000C6AC5B4010021A1F4429022B1FE0403A9C
:1059A000107E2D4020D0E8CC120110087FFE41026D
:1059B0009D74012B1D70F41A02141B24880226A862
:1059C0002010D2AA1F7FFC04400440142F48244812
:1059D0003FF80210180E2008401C80038006703823
:1059E00008D0A36019521411FEFC280E108831044F
:1059F0003A0254885088905010CA181D50108813CD
:105A000006D7BC01404120212023FE022016201B86
:105A1000FC1220222023FCE206190813FE221202A7
:105A20002BB4A590180A782049FC91247D245502B6
:105A300010107DFC552454207C28542457FE450228
:105A40008C100CC3FE1110111017FC1110FC001962
:105A50001613F8120817F81A0833F8D04017FC107C
:105A6000A0111052082406A3AC1A300212103220E2
:105A700013C7EB100A40404027FC204003F81540B4
:105A8000E7FE202D23F8220804180C2BF8320822F8
:105A9000280210B5E3028E12022B03FC061B3FF016
:105AA000D71902233FF0100C24882244424480047A
:105AB000BBF70129024B3FF8082BFFFE064B2108DC
:105AC00002133FF82408C4BB1E3FF82008200E181C
:105AD00008241022202FF80426100C11103FF8D1B2
