:020000040800F2
:10000000A80B0020FD000008992A00088F2800088E
:10001000492A0008D104000801310008000000004E
:10002000000000000000000000000000A92B0008F4
:1000300011050008000000009B2A0008AB2B0008F7
:100040001701000817010008170100081701000830
:100050001701000817010008170100081701000820
:10006000170100081701000817010008D50400084F
:100070001701000817010008170100081701000800
:100080001701000817010008170100080000000010
:100090000000000000000000000000001701000840
:1000A0000000000000000000000000000000000050
:1000B0001701000817010008B52B000817010008F8
:1000C00017010008170100081701000817010008B0
:1000D0001701000851300008CD3000081701000852
:1000E0001701000817010008DFF80CD000F03CF8F9
:1000F00000480047ED400008A80B00200648804754
:1001000006480047FEE7FEE7FEE7FEE7FEE7FEE7FC
:10011000FEE7FEE7FEE7FEE7B32B0008E900000874
:1001200040EA01039B0703D009E008C9121F08C079
:10013000042AFAD203E011F8013B00F8013B521EF9
:10014000F9D27047D2B201E000F8012B491EFBD270
:1001500070470022F6E710B513460A4604461946D2
:10016000FFF7F0FF204610BD064C074D06E0E068A3
:1001700040F0010394E8070098471034AC42F6D3EE
:10018000FFF7B6FFA04A0008C04A000870B58C18F7
:1001900010F8015B15F0070301D110F8013B2A119B
:1001A00006D110F8012B03E010F8016B01F8016B88
:1001B0005B1EF9D12B0705D40023521E0DD401F884
:1001C000013BFAE710F8013BCB1A921C03E013F84D
:1001D000015B01F8015B521EF9D5A142D8D3002082
:1001E00070BD70B5044600252068806800F00100ED
:1001F00018B32068806820F001002168886001F051
:1002000089F9054613E001F085F9401B02280ED953
:100210002068806800F0010048B1A06A40F010003A
:10022000A062E06A40F00100E062012070BD206839
:10023000806800F001000028E5D10020F6E770B5E5
:1002400005466C6AA06A00F05000E0B9A06A40F46C
:100250000070A0622068806800F46020B0F5602F14
:100260000DD1207B58B9A06A20F48070A062A06AEA
:1002700000F4805018B9A06A40F00100A062204646
:1002800000F086FA03E0206A016B2846884770BDBB
:1002900070B505466C6AA06A40F04000A062E06A52
:1002A00040F00400E062204600F0A7FA70BD70B58F
:1002B0000446656A284600F09FFA70BD38B50446CA
:1002C0000025002000902068806800F0010078BBC5
:1002D0002068806840F00100216888601948006843
:1002E0001949B0FBF1F0009002E00098401E009028
:1002F00000980028F9D101F00DF9054619E001F048
:1003000009F9401B022814D92068806800F0010018
:1003100078B9A06A40F01000A062E06A40F00100E5
:10032000E06200BF002084F8240000BF012038BD37
:1003300005E02068806800F001000028DFD0002080
:10034000F5E700001800002040420F0000B585B01E
:1003500000BF5C48806940F004005A498861084643
:10036000806900F00400009000BF00BF00BF084695
:10037000806940F0080088610846806900F0080044
:10038000009000BF00BF00BF0846806940F0100029
:1003900088610846806900F01000009000BF00BF2F
:1003A000402001901120029001200390032004902E
:1003B00001A9454800F01EFF802001901120029005
:1003C000012003900320049001A93F4800F012FF90
:1003D0004FF440700190012002900390032004909C
:1003E00001A9394800F006FF4FF4807036491031FA
:1003F00008604000086001900220029003200490F1
:1004000001A9324800F0F6FE04200190022002907B
:10041000002003900320049001A92C4800F0EAFE7C
:100420004FF480600190022002900020039003208E
:10043000049001A9244800F0DDFE10200190012065
:100440000290002003900320049001A91F4800F0AF
:10045000D1FE4FF4806001900020029001200390B3
:1004600001A91A4800F0C6FE082001900020029061
:100470000120039001A9154800F0BCFE4FF4006074
:100480000190002002900120039001A90E4800F085
:10049000B1FE0320019000200290039003200490FD
:1004A00001A90A4800F0A6FE202001900320029036
:1004B000002003900320049001A9044800F09AFE54
:1004C00005B000BD00100240000C014000080140D2
:1004D00000BFFEE710B5024800F036FD10BD000079
:1004E0004406002030B590F840500124AC40C56B64
:1004F0006C60046863604468102C04D10468A260D6
:100500000468E16003E00468A1600468E26030BD53
:1005100070470000F8B5044600260020009000BF98
:1005200094F82400012801D10220F8BD012084F8AC
:10053000240000BF2046FFF754FE06462046FFF782
:10054000BDFE0646002E69D1A06A20F4885040F016
:100550000200A062022001F09FF834490968B1FB53
:10056000F0F04000009002E00098401E00900098DB
:100570000028F9D12068806840F008002168886070
:1005800000F0C8FF054616E000F0C4FF401B0A2833
:1005900011D92068806800F0080060B1A06A20F0DE
:1005A000020040F01000A06200BF002084F8240088
:1005B00000BF0120B9E72068806800F0080000282B
:1005C000E2D12068806840F004002168886000F073
:1005D000A1FF054616E000F09DFF401B0A2811D937
:1005E0002068806800F0040060B1A06A20F002007A
:1005F00040F01000A06200BF002084F8240000BF7B
:10060000012092E72068806800F004000028E2D111
:10061000A06A20F0020040F00100A06200BF0020AC
:1006200084F8240000BF30467FE700001800002057
:1006300038B5024600230020009000BF92F8240045
:10064000012801D1022038BD012082F8240000BF1A
:100650004868072812D21068406B0C79641E04EBBE
:1006600084051F24AC40A0430D796D1E05EB850564
:100670000C68AC4020431468606327E048680D288C
:1006800012D21068006B0C79E41F04EB84051F2460
:10069000AC40A0430D79ED1F05EB85050C68AC401F
:1006A00020431468206311E01068C06A0C790D3C87
:1006B00004EB84051F24AC40A0430D790D3D05EBF0
:1006C00085050C68AC4020431468E06208680A287D
:1006D00012D31068C0680C780A3C04EB4405072468
:1006E000AC40A0430D780A3D05EB45058C68AC4055
:1006F00020431468E0600FE0106800690C7804EB98
:1007000044050724AC40A0430D7805EB45058C68F3
:10071000AC402043146820610868102802D00868A3
:10072000112827D1174C1068A0421ED1106880688C
:1007300000F40000F0B91068806840F4000014680C
:10074000A0600868102815D10F4800680F4CB0FB56
:10075000F4F000EB80004000009002E00098401EA2
:10076000009000980028F9D104E0906A40F0200041
:100770009062012300BF002082F8240000BF1846C9
:1007800061E70000002401401800002040420F00F3
:1007900013490988134A144B1B7822F81310104987
:1007A0004A881249104B1B7821F813200C4989887C
:1007B0000F4A0D4B1B7822F813100949C9880D4ABE
:1007C000094B1B7822F8131007490978491C064A7F
:1007D0001170114609780A2901DB00211170704758
:1007E00010000020100300200E0000202403002031
:1007F000380300204C03002070477047014608680A
:10080000C06C70472DE9F041044600270025002602
:10081000A84614B90120BDE8F081A06810B1207D80
:1008200000B100BFA06A30B90020E06284F8240063
:10083000204600F089F82046FFF7D3FC0746A06A5F
:1008400000F01000002873D1002F71D1A06A20F4AD
:10085000885040F00200A062E16960680843217B93
:1008600040EA41000643A068B0F5807F02D0A0684E
:10087000012802D14FF4807000E000200543207D64
:10088000012811D1207B38B9A069401E4FF40061C6
:1008900041EA4030054307E0A06A40F02000A06232
:1008A000E06A40F00100E0622068406820F469409E
:1008B0002843216848602068806821490840304307
:1008C00021688860A068B0F5807F02D0A068012808
:1008D00002D14FF4807000E00020B0F5807F03D19A
:1008E000208A401E4FEA00582068C06A20F4700039
:1008F00040EA08002168C862206880681149084001
:10090000B04208D10020E062A06A20F0020040F06E
:100910000100A06211E0A06A20F0020040F0100087
:10092000A062E06A40F00100E062012705E0FFE715
:10093000A06A40F01000A062012738466BE7000073
:10094000FDF7E1FFFE0E1FFF10B58AB004461D49FA
:100950002068884233D100200690079008900990C3
:10096000029003900490059000BF1748806940F4FE
:100970000070154988610846806900F40070019094
:1009800000BF00BF00BF0846806940F004008861D6
:100990000846806900F00400019000BF00BF0F20EE
:1009A00002900320039002A9084800F023FC0220D3
:1009B00006908003089006A800F0ECFE00BF0AB085
:1009C00010BD00000024014000100240000801405A
:1009D000F8B504460D46002600200090002700F0E0
:1009E00099FD06462068806800F4807050B1A06AC6
:1009F00040F02000A06200BF002084F8240000BF67
:100A00000120F8BD2068406800F4807020BB206899
:100A1000C06A00F47000F8B917E0681CA8B125B1ED
:100A200000F078FD801BA8420FD92068006800F014
:100A3000020050B9A06A40F00400A06200BF00208C
:100A400084F8240000BF0320DBE72068006800F082
:100A500002000028E1D053E0022000F01DFE3849DA
:100A60000968B1FBF0F021680969364A114091B973
:100A70002168C9689211114069B921680969324A2F
:100A8000114031B92168C9689211114009B9142186
:100A900017E0292115E0216809692B4A114021B985
:100AA0002168C9689211114041B121680969274A3A
:100AB000114029B92168C968114009B9542100E0E1
:100AC000FC2100FB01F718E0681C98B125B100F08B
:100AD00021FD801BA8420DD90098B8420AD2A06A15
:100AE00040F00400A06200BF002084F8240000BF92
:100AF000032086E70098401C00900098B842E3D39A
:100B00006FF0120021680860A06A40F40070A062D3
:100B10002068806800F46020B0F5602F0DD1207B44
:100B200058B9A06A20F48070A062A06A00F48050D6
:100B300018B9A06A40F00100A062002061E700003F
:100B4000180000202449922492244912499224003A
:100B500070B50446002500BF94F82400012801D197
:100B6000022070BD012084F8240000BF2046FFF75A
:100B7000A5FB0546002D77D1A06A40F201218843EC
:100B800040F48070A0623C492068884208D13B480C
:100B9000006800F4702008B9012002E0002000E0A5
:100BA000012078B1A06A20F48010A062206840681B
:100BB00000F4806000B3A06A20F4005040F480503C
:100BC000A06219E0A06A40F48010A0622B49091FBE
:100BD0002068884203D028492068884204D12748E9
:100BE000006800F4806000E0002028B1A06A20F4D2
:100BF000005040F48050A062A06A00F4805020B100
:100C0000E06A20F00600E06201E00020E06200BF40
:100C1000002084F8240000BFC01E216808602068FE
:100C2000806800F46020B0F5602F16D1124920686A
:100C3000884208D11148006800F4702008B90120EA
:100C400002E0002000E0012038B12068806840F414
:100C5000A000216888600CE006E02068806840F40D
:100C600080102168886004E000BF002084F8240020
:100C700000BF284675E70000002801400424014019
:100C80002DE9F04104460D461646002757492068D5
:100C9000884203D056492068884205D15348001D38
:100CA000006800F4702000E0002000287ED100BF22
:100CB00094F82400012802D10220BDE8F08101202F
:100CC00084F8240000BF2046FFF7F8FA0746002FFB
:100CD0006DD1A06A40F60161884340F48070A06243
:100CE00043492068884209D14048001D006800F44B
:100CF000702008B9012002E0002000E0012078B156
:100D0000A06A20F48010A0622068406800F480602F
:100D100000B3A06A20F4005040F48050A06219E0B3
:100D2000A06A40F48010A06230492068884203D055
:100D30002F492068884205D12C48001D006800F426
:100D4000806000E0002028B1A06A20F4005040F448
:100D50008050A062A06A00F4805020B1E06A20F0C8
:100D60000600E06201E00020E06200BF002084F89D
:100D7000240000BF1F48216A88621F48216AC86298
:100D80001E48216A08636FF002002168086020682D
:100D9000806840F4807021688860226802F14C010C
:100DA00033462A46206A00F0D1F901E01AE014E047
:100DB0002068806800F46020B0F5602F06D12068BC
:100DC000806840F4A000216888600CE0206880689A
:100DD00040F480102168886005E000BF002084F89E
:100DE000240000E00127384667E7000000240140A6
:100DF000002801403F020008AF02000891020008ED
:100E000070B50446002500BF94F82400012801D1E4
:100E1000022070BD012084F8240000BF2046FFF7A7
:100E2000E0F905462DB9A06A20F4885040F0010091
:100E3000A06200BF002084F8240000BF2846E8E735
:100E40000146002291F82100022808D0042088637E
:100E500000BF002081F8200000BF01207047086813
:100E6000006820F00E000B6818600868006820F029
:100E700001000B68186091F8403001209840CB6B5E
:100E80005860012081F8210000BF002081F8200077
:100E900000BF1046E2E7000070B50446002594F854
:100EA0002100022803D00420A063012548E0206827
:100EB000006820F00E00216808602068006820F0BB
:100EC0000100216808601F492068884201D1012083
:100ED00026E01C4914312068884201D110201FE00F
:100EE000184928312068884201D1801518E0154939
:100EF0003C312068884201D1801411E01149503101
:100F00002068884202D14FF4803009E00D496431F5
:100F10002068884202D14FF4801001E04FF08070C9
:100F2000084908394860012084F8210000BF0020EA
:100F300084F8200000BF606B10B12046616B8847C9
:100F4000284670BD0800024070B50446E06B056895
:100F50002068066894F84010042088402840002843
:100F600046D006F00400002842D02068006800F057
:100F7000200028B92068006820F00400216808607B
:100F800057492068884201D1042027E05449143190
:100F90002068884201D1402020E051492831206852
:100FA000884201D1001519E04D493C312068884242
:100FB00002D14FF4804011E0494950312068884205
:100FC00002D14FF4802009E045496431206888420D
:100FD00002D14FF4800001E04FF0806040490839B1
:100FE0004860E06A00287AD02046E16A884776E0C7
:100FF00094F84010022088402840A0B306F0020078
:1010000088B32068006800F0200040B920680068BC
:1010100020F00A0021680860012084F8210030498E
:101020002068884201D1022028E02D49143120682F
:10103000884201D1202021E02949283120688842B6
:1010400001D140151AE026493C312068884202D17E
:101050004FF4005012E0224950312068884203D1F9
:101060004FF400300AE017E01D49643120688842DF
:1010700002D14FF4001001E04FF000701849083918
:10108000486000BF002084F8200000BFA06A30B391
:101090002046A16A884722E094F840100820884042
:1010A0002840E0B106F00800C8B12068006820F0D0
:1010B0000E002168086094F8401001208840E16B20
:1010C00048600120A06384F8210000BF002084F85C
:1010D000200000BF206B10B12046216B884770BDF7
:1010E000080002400146002209B901207047164B52
:1010F0000868C01A1423B0FBF3F08000086412489B
:101100000838C863022081F821000868026843F6A5
:10111000F0708243D1E901031843CB6818430B698F
:1011200018434B6918438B691843CB691843024332
:101130000868026000208863012081F821000020F7
:1011400081F8200000BFD1E7080002402DE9F041FE
:1011500004460D4616461F464FF0000800BF94F89F
:101160002000012802D10220BDE8F081012084F88E
:10117000200000BF94F8210001282CD1022084F81F
:1011800021000020A0632068006820F00100216891
:1011900008603B46324629462046FFF7A3F9E06A3D
:1011A00030B12068006840F00E00216808600BE054
:1011B0002068006820F0040021680860206800684A
:1011C00040F00A00216808602068006840F00100D3
:1011D0002168086006E000BF002084F8200000BFFE
:1011E0004FF002084046BFE710B50446204602F023
:1011F0000FF810BD2DE9F8470346002294466EE132
:101200004FF0010808FA02F4D1F8008008EA04005F
:10121000A0427DD1DFF8DCA2D1F80480A8EB0A0956
:10122000D0453AD014DCB8F1030F50D009DCB8F146
:10123000000F31D0B8F1010F1CD0B8F1020F49D125
:1012400020E0B8F1110F18D0B8F1120F42D11EE012
:10125000B9F5881F25D006DCB9F5803F20D0B9F557
:10126000801F37D11AE0B9F5001F18D0B9F5041F57
:1012700030D117E0D1F80CC02DE0D1F80C8008F186
:10128000040C28E0D1F80C8008F1080C23E0D1F818
:101290000C8008F10C0C1EE000BF00BF00BF00BFB7
:1012A00000BF00BFD1F80880B8F1000F02D14FF0A5
:1012B000040C0BE0D1F80880B8F1010F03D14FF016
:1012C000080C1C6102E04FF0080C5C6103E04FF079
:1012D000000C00E000BF00BFFF2801D8984601E0E5
:1012E00003F104084646FF2802D84FEA820803E0CB
:1012F000A2F108084FEA88084746D6F800804FF068
:101300000F0909FA07F928EA09080CFA07F900E0B9
:1013100088E048EA0908C6F80080D1F8048008F09F
:101320008058B8F1805F7DD100BFDFF8CC81D8F85C
:10133000188048F00108DFF8C091C9F81880C84645
:10134000D8F8188008F00108CDF8008000BF00BF71
:101350004FEAB9384FEA920958F829504FEA827893
:101360004FEA18794FF00F0808FA09F825EA08053E
:10137000DFF88881434502D14FF0000816E0DFF81E
:101380008081434502D14FF001080FE0DFF87481FE
:10139000434502D14FF0020808E0DFF86C81434575
:1013A00002D14FF0030801E04FF004084FEA8279C0
:1013B0004FEA197908FA09F848EA0505DFF84C817F
:1013C0004FEA920948F82950D1F8048008F48018AF
:1013D000B8F5801F0AD1DFF83881D8F8008048EAD4
:1013E0000008DFF82C91C9F8008009E0DFF82081BF
:1013F000D8F8008028EA0008DFF81491C9F80080C6
:10140000D1F8048008F40018B8F5001F10D1DFF8F7
:10141000008108F10408D8F8008048EA0008DFF8E5
:10142000F09000E05AE009F10409C9F800800DE0ED
:10143000DFF8DC8008F10408D8F8008028EA00080A
:10144000DFF8CC9009F10409C9F80080D1F80480D4
:1014500008F40038B8F5003F0ED1DFF8B480A8F1E9
:101460000408D8F8008048EA0008DFF8A490A9F141
:101470000409C9F800800DE0DFF89480A8F10408A1
:10148000D8F8008028EA0008DFF88490A9F1040960
:10149000C9F80080D1F8048008F48038B8F5803F9E
:1014A0000ED1DFF86C80A8F10808D8F8008048EA6F
:1014B0000008DFF85C90A9F10809C9F800800DE088
:1014C000DFF84C80A8F10808D8F8008028EA000866
:1014D000DFF83C90A9F10809C9F80080521CD1F846
:1014E000008028FA02F8B8F1000F7FF489AEBDE859
:1014F000F8870000000011100010024000080140B1
:10150000000C01400010014000140140080001409F
:1015100008040140014800687047000020000020D6
:101520000348006803490978084401490860704786
:10153000200000202800002010B50848006840F076
:10154000100006490860032000F092F80F2000F018
:1015500007F800F02BF8002010BD0000002002402A
:1015600070B504460E4800784FF47A71B1FBF0F084
:101570000C490968B1FBF0F5284600F0F9FC08B108
:10158000012070BD102C07D200222146501E00F011
:1015900031F80548046001E00120F2E70020F0E79F
:1015A00028000020180000202400002070470000C0
:1015B00010B501460846002807DB00F01F03012292
:1015C0009A40034B440943F8242000BF10BD00009B
:1015D00080E200E001460846002809DB00F01F0316
:1015E00001229A4043099B0003F1E023C3F8002144
:1015F00000BF70472DE9F05F80460D461646002774
:1016000001F080FD074639462A46334601F00700BF
:10161000C0F1070ABAF1040F02D94FF0040A01E041
:10162000C0F1070AD14600F1040ABAF1070F02D24D
:101630004FF0000A01E0A0F1030AD4464FF0010A7E
:101640000AFA09FAAAF1010A0AEA020A0AFA0CFAE3
:101650004FF0010B0BFA0CFBABF1010B0BEA030B88
:101660004AEA0B042146404601F054FDBDE8F09FD4
:1016700000BF00F00702064B19684FF6FF03194040
:10168000044B0B4343EA0221014B196000BF704732
:101690000CED00E00000FA052DE9F04706464FF09A
:1016A0000008002500270024A146012E31D0022E7B
:1016B00056D0102E5FD132484468006800F0807028
:1016C00008B33048C4F38341475C04F4803078B1F8
:1016D0002B484068C0F340402B4911F8008004F4C7
:1016E000803040B12948B0FBF8F000FB07F502E07C
:1016F000274807FB00F52248406800F48000B0F559
:10170000800F01D1A94603E068000321B0FBF1F985
:1017100032E01B48046A04F44070B0F5807F05D1C4
:1017200004F0020010B14FF4004918E004F44070D6
:10173000B0F5007F07D11248406A00F0020010B1F6
:1017400049F640490BE004F44070B0F5407F06D103
:101750000B48006800F4003008B14FF224490BE058
:1017600000F08CF906494968C1F38131491C4900F0
:10177000B0FBF1F900E000BF00BF4846BDE8F087CC
:10178000001002402E4800083E48000800127A006F
:1017900000093D00F8B5044600260025207800F039
:1017A000010000286BD000274348C06900F080503A
:1017B00070B900BF4048C06940F080503E49C861E0
:1017C0000846C06900F08050009000BF00BF0127AC
:1017D0003A48006800F48070B0B93848006840F4B6
:1017E000807036490860FFF795FE064606E0FFF771
:1017F00091FE801B642801D90320F8BD2F480068A2
:1018000000F480700028F2D02B48006A00F4407584
:101810002DB3A08800F44070A84220D02648006A6A
:1018200020F4407501202649086000200860224805
:10183000056205F0010090B1FFF76CFE064608E076
:10184000FFF768FE801B41F28831884201D90320EE
:10185000D3E71948006A00F002000028F0D01648CB
:10186000006A20F440706168084313490862012F40
:1018700004D10846C06920F08050C86100BF2078BC
:1018800000F00200022807D10B48406820F44040D5
:10189000A168084308494860207800F0100010282B
:1018A00007D10548406820F48000E16808430249F8
:1018B00048600020A1E700000010024000700040D6
:1018C0004004424270B504460D460CB9012070BD7B
:1018D0005A48006800F00700A8420ED25748006836
:1018E00020F007002843554908600846006800F0CA
:1018F0000700A84201D00120E9E7207800F00200AB
:1019000002281DD1207800F00400042805D14C489D
:10191000406840F4E0604A494860207800F00800E0
:10192000082805D14648406840F460504449486062
:101930004348406820F0F000A168084340494860EF
:10194000207800F0010078B36068012806D13C4897
:10195000006800F4003090B90120B8E76068022800
:1019600006D13748006800F0007040B90120AEE7AA
:101970003348006800F0020008B90120A7E73048AA
:10198000406820F00300616808432D494860FFF774
:10199000C1FD064609E0FFF7BDFD801B41F288311D
:1019A000884202D9032092E707E02548406800F00A
:1019B0000C006168B0EB810FEDD12048006800F0A9
:1019C0000700A8420ED91D48006820F007002843F0
:1019D0001A4908600846006800F00700A84201D0D4
:1019E000012074E7207800F00400042807D114488F
:1019F000406820F4E060E1680843114948602078BD
:101A000000F00800082808D10D48406820F4605014
:101A1000216940EAC1000A49486000F03FF80849DE
:101A20004968C1F30311074A515CC8400649086080
:101A300006480068FFF794FD002048E700200240B8
:101A40000010024004480008180000202400002074
:101A500001480068704700001800002000B5FFF73B
:101A6000F7FF04494968C1F30221034A515CC840A9
:101A700000BD0000001002401448000800B5FFF748
:101A8000E7FF04494968C1F3C221034A515CC840D9
:101A900000BD0000001002401448000870B500218D
:101AA0000022002400230020134D696801F00C057A
:101AB000F5B1042D02D0082D19D101E00F4819E02D
:101AC0000F4DC1F38346AB5D01F4803555B10A4D2E
:101AD0006D68C5F340450B4E725D084D5D43B5FB27
:101AE000F2F402E0084D03FB05F4204602E000BFDB
:101AF000024800BF00BF70BD0010024000127A0013
:101B00001C4800082C48000800093D00F8B50446B0
:101B10000CB90120F8BD207800F00100002878D031
:101B2000F848406800F00C0004280CD0F5484068E4
:101B300000F00C00082811D1F248406800F4803011
:101B4000B0F5803F0AD1EF48006800F4003000286B
:101B50005FD0606800285CD10120DBE700BF6068CF
:101B6000B0F5803F06D1E748006840F48030E54991
:101B7000086028E0606858B9E248006820F48030C6
:101B8000E04908600846006820F4802008601AE0F8
:101B90006068B0F5A02F0BD1DA48006840F48020CF
:101BA000D84908600846006840F4803008600AE0C0
:101BB000D448006820F48030D249086008460068A4
:101BC00020F48020086000BF606888B1FFF7A2FCA5
:101BD000054606E0FFF79EFC401B642801D9032060
:101BE00098E7C848006800F400300028F2D010E000
:101BF000FFF790FC054606E0FFF78CFC401B6428CD
:101C000001D9032086E7BF48006800F400300028AF
:101C1000F2D1207800F00200022857D1B94840687C
:101C200000F00C0050B1B748406800F00C000828E4
:101C300018D1B448406800F4803098B9B1480068C1
:101C400000F0020020B12069012801D0012061E7E5
:101C5000AC48006820F0F800616940EAC100A94979
:101C6000086033E02069E8B10120A7490860FFF768
:101C700051FC054606E0FFF74DFC401B022801D948
:101C8000032047E79F48006800F002000028F2D0D8
:101C90009C48006820F0F800616940EAC100994959
:101CA000086013E0002098490860FFF733FC054600
:101CB00006E0FFF72FFC401B022801D9032029E78B
:101CC0009048006800F002000028F2D1207800F06F
:101CD000080008282DD1A069B8B101208B490860FF
:101CE000FFF718FC054606E0FFF714FC401B02282E
:101CF00001D903200EE78348406A00F00200002863
:101D0000F2D0012000F0CAFE13E000207F490860F5
:101D1000FFF700FC054606E0FFF7FCFB401B02282E
:101D200001D90320F6E67748406A00F00200002857
:101D3000F2D1207800F00400042873D10027714804
:101D4000C06900F0805070B900BF6E48C06940F0B3
:101D500080506C49C8610846C06900F0805000900E
:101D600000BF00BF01276A48006800F48070B0B966
:101D70006748006840F4807065490860FFF7CAFB57
:101D8000054606E0FFF7C6FB401B642801D9032087
:101D9000C0E65F48006800F480700028F2D000BF01
:101DA000E068012806D15748006A40F00100554913
:101DB000086227E0E06858B95248006A20F0010044
:101DC000504908620846006A20F00400086219E0E1
:101DD000E06805280BD14B48006A40F004004949EF
:101DE00008620846006A40F0010008620AE04548BF
:101DF000006A20F00100434908620846006A20F0AA
:101E00000400086200BFE068A0B1FFF783FB05464D
:101E100009E0FFF77FFB401B41F28831884202D97D
:101E2000032077E622E03748006A00F0020000282D
:101E3000EFD012E0FFF76EFB054608E0FFF76AFB04
:101E4000401B41F28831884201D9032062E62D48C7
:101E5000006A00F002000028F0D1012F05D12948C6
:101E6000C06920F080502749C86100BFE069C8B34D
:101E70002448406800F00C00082860D0E06902287F
:101E800048D1002020490866FFF744FB054606E0DC
:101E9000FFF740FB401B022801D903203AE619480E
:101EA000006800F000700028F2D1206AB0F5803F91
:101EB00007D11448406820F40030A1680843114954
:101EC0004860D4E9080108430E49496821F47411B7
:101ED00008430C49486001200B490866FFF71AFBCC
:101EE000054607E03DE0FFF715FB401B022801D93E
:101EF00003200FE60348006800F000700028F2D0CD
:101F00002FE00000001002400000424280044242E4
:101F100000700040002014490866FFF7FBFA0546F0
:101F200006E0FFF7F7FA401B022801D90320F1E58C
:101F30000E48006800F000700028F2D111E0E0695E
:101F4000012800D1E6E50948466806F48031206A98
:101F5000814204D106F47011606A814201D00120EF
:101F6000D8E50020D6E50000000042420010024003
:101F700070B504462546681EB0F1807F01D301206C
:101F80000FE0681E4FF0E02148610F214FF0FF3055
:101F900001F0C0F800204FF0E021886107200861BF
:101FA000002070BD30B502460B4600BF92F83C00E1
:101FB000012801D1022030BD012082F83C0000BF81
:101FC000022082F83D00106844681068816824F09F
:101FD00070041868044310684460104D1068A842EB
:101FE0000BD01068B0F1804F07D00D4D1068A8429B
:101FF00003D00C4D1068A84205D121F0800158682B
:10200000014310688160012082F83D0000BF00207C
:1020100082F83C0000BF00BFCDE70000002C01406B
:10202000000400400008004010B504460CB901202F
:1020300010BD94F83D0028B9002084F83C002046EB
:1020400000F026F8022084F83D00211D206800F0F1
:10205000C3FD012084F8460000BF84F83E00012142
:102060003F200155402001554120015500BF00BFD0
:10207000012084F8420043200155442001554520A9
:10208000015500BF012084F83D000020D0E700008A
:1020900038B504461A492068884216D100BF19484D
:1020A000C06940F004001749C8610846C06900F0E3
:1020B0000400009000BF00BF012200211E20FFF796
:1020C00099FA1E20FFF786FA19E00F492068884226
:1020D00015D100BF0B48C06940F002000949C86132
:1020E0000846C06900F00200009000BF00BF022255
:1020F00000211D20FFF77EFA1D20FFF76BFA38BD87
:10210000000800400010024000040040014691F821
:102110003D00012801D001207047022081F83D00D8
:102120000868C06840F001000B68D860124B08686E
:1021300098420BD00868B0F1804F07D00F4B086869
:10214000984203D00E4B086898420CD1086880680A
:1021500000F00702062A0CD00868006840F0010071
:102160000B68186005E00868006840F001000B6823
:1021700018600020D0E70000002C0140000400405F
:10218000000800402DE9F04104460D46002700BF3D
:1021900094F83C00012802D10220BDE8F081012022
:1021A00084F83C0000BF022084F83D002068866867
:1021B00026F0770626F47F46206886602868502837
:1021C00033D00CDC202850D004DC00284BD0102861
:1021D00051D149E0302849D040284CD139E060281D
:1021E0002DD0702807D0B0F5805F03D0B0F5005F28
:1021F00041D10DE041E0D5E902136A68206800F0A2
:1022000025FD2068866846F077062068866034E001
:10221000D5E902136A68206800F018FD206880681C
:1022200040F480402168886027E0EA686968206897
:1022300000F020FD5021206800F013FD1DE0EA6849
:102240006968206800F029FD6021206800F009FD20
:1022500013E0EA686968206800F00CFD40212068FE
:1022600000F0FFFC09E000BF00BF00BF2968206844
:1022700000F0F7FC01E0012700BF00BF012084F857
:102280003D0000BF002084F83C0000BF384684E7D2
:10229000704770472DE9F84F0446206805682068AC
:1022A000C668206847694FF00009CA4605F00F0963
:1022B000B9F1000F0AD105F0200038B106F0200076
:1022C00020B1204600F04DFDBDE8F88FB9F1000FB8
:1022D0007BD007F0010018B906F49070002874D084
:1022E00005F0010030B106F4807018B1606C40F068
:1022F0000100606405F0040030B107F0010018B17E
:10230000606C40F00200606405F0020030B107F03C
:10231000010018B1606C40F00400606405F0080032
:1023200048B106F0200010B907F0010018B1606C48
:1023300040F008006064606C002845D005F0200083
:1023400028B106F0200010B1204600F00AFD2068F8
:102350004069C0F3801A606C00F0080010B9BAF14F
:10236000000F2CD0204600F0B6FC2068406900F039
:10237000400000B300BF00BF2168143151E8001FC6
:1023800021F040002168143141E80002002AF3D115
:1023900000BFE06B50B17748E16B4863E06BFEF73C
:1023A0007BFD88B1E06B416B88470DE02046FFF76D
:1023B00070FF09E009E02046FFF76BFF04E02046CC
:1023C000FFF767FF002060647EE7206B012877D16C
:1023D00005F01000002873D006F010000028FAD095
:1023E00000BF0020009020680068009020684068CE
:1023F000009000BF00BF2068406900F04000002846
:102400005FD0E06B006840681FFA80F8B8F1000FF9
:1024100055D0A08D404552DDA4F82E80E06B806938
:10242000202843D000BF00BF21680C3151E8001FB5
:1024300021F4807021680C3141E80002002AF3D1B8
:1024400000BF00BF00BF2168143151E8001F21F018
:1024500001002168143141E80002002AF3D100BFD5
:1024600000BF00BF2168143151E8001F21F0400077
:102470002168143141E80002002AF3D100BF202076
:1024800084F842000020206300BF00BF21680C31A7
:1024900051E8001F21F0100021680C3141E80002D2
:1024A000002AF3D100BFE06BFEF7CAFC0220606394
:1024B000A08DE28D801A81B22046FFF7E9FE03E786
:1024C00042E0A08DE18D401A1FFA80F8E08DD0B374
:1024D000B8F1000F37D000BF00BF21680C3151E8C0
:1024E000001F21F4907021680C3141E80002002A9D
:1024F000F3D100BF00BF00BF2168143151E8001FB5
:1025000021F001002168143141E80002002AF3D1D2
:1025100000BF202084F842000020206300BF00BFDD
:1025200021680C3151E8001F21F0100021680C31A6
:1025300041E80002002AF3D100BF02206063414657
:102540002046FFF7A5FEBFE605F0800030B106F09B
:10255000800018B1204600F001FDB5E605F040000E
:1025600030B106F0400018B1204600F0EAFBABE6BF
:1025700000BFA9E6C32C000810B504460CB9012021
:1025800010BDA06900B100E000BF94F8410028B977
:10259000002084F84000204600F02AF8242084F827
:1025A00041002068C06820F400502168C8602046BF
:1025B00000F056FC2068006920F490402168086112
:1025C0002068406920F02A00216848612068C068BE
:1025D00040F400502168C86000206064202084F826
:1025E000410084F842000020606300BFC8E700009B
:1025F00010B586B004460020029003900490059028
:1026000042492068884243D100BF4148806940F078
:1026100004003F4988610846806900F00400019089
:1026200000BF00BF00BF0846806940F48040886159
:102630000846806900F48040019000BF00BF481543
:10264000029002200390012004900320059002A92B
:102650003048FEF7CFFD4FF48060029000200390D9
:1026600002A92C48FEF7C6FD2520FEF7B3FF032282
:1026700011462520FEF7BEFF2068C06840F020000C
:102680002168C8602068C06840F010002168C860F8
:1026900021492068884236D100BF1D48C06940F4F6
:1026A00000301B49C8610846C06900F40030019041
:1026B00000BF00BF00BF0846806940F0200088616D
:1026C0000846806900F02000019000BF00BF042090
:1026D000029002200390002004900320059002A99C
:1026E0000C48FEF787FD082002900020039002A905
:1026F0000848FEF77FFD002211462620FEF77AFFEC
:102700002620FEF767FF06B010BD0000003801402C
:102710000010024000080140004400402DE9F84F3D
:1027200004460E46174699464FF0000A94F84200B8
:1027300020284FD106B117B90120BDE8F88F00203D
:102740006064222084F8420000202063FEF7E2FE4D
:102750008246A785E785A068B0F5805F04D120692F
:1027600010B90025B04602E035464FF0000829E0D8
:102770005346002220212046CDF8009000F01EFC98
:1027800008B10320D9E745B920684068C0F30800C4
:10279000A8F8000008F1020811E0A068B0F5805F19
:1027A00003D0A06828B9206918B92068406828704B
:1027B00004E02068406800F07F0028706D1CE08D08
:1027C000401EE085E08D0028D2D1202084F8420010
:1027D0000020B2E70220B0E770472DE9F84F044629
:1027E0000E46174699464FF0000A94F841002028FB
:1027F0004AD106B117B90120BDE8F88F0020606406
:10280000212084F84100FEF785FE8246A784E784F4
:10281000A068B0F5805F04D1206910B90025B046EA
:1028200002E035464FF000081BE0534600228021AD
:102830002046CDF8009000F0C1FB08B10320DBE793
:1028400045B9B8F80000C0F308002168486008F1F5
:10285000020803E02878216848606D1CE08C401E67
:10286000E084E08C0028E0D153460022402120463D
:10287000CDF8009000F0A2FB08B10320BCE72020B7
:1028800084F841000020B7E70220B5E7704700BF99
:10289000FEE700000C480078FF2804DA0A480078B8
:1028A000401C09490870084800781E280BD10748C9
:1028B000007808B9012000E00020044908700448AD
:1028C0000078044908707047020300200B000020C4
:1028D00001030020000300201248007878B901208D
:1028E000104908701048007820B14FF480700F49EB
:1028F000086015E04FF400700C49086010E00020FB
:10290000084908700848007828B14FF480700749DA
:10291000091F086004E04FF400700449091F0860B3
:10292000704700000C0000200B000020140C014038
:1029300000B587B0002003900490059006900190A8
:10294000029014481449086023204860002112486E
:102950008160C721C160002101618161FFF764FBD3
:1029600008B100BFFEE74FF48050039003A90A4866
:10297000FFF708FC08B100BFFEE7002001900290BD
:1029800001A90548FFF70EFB08B100BFFEE707B03D
:1029900000BD000000040040D006002000B587B054
:1029A0000020039004900590069001900290144836
:1029B0001449086040F207704860002111488160A6
:1029C0002321C160002101618161FFF72DFB08B166
:1029D00000BFFEE74FF48050039003A90948FFF7BA
:1029E000D1FB08B100BFFEE700200190029001A9D1
:1029F0000448FFF7D7FA08B100BFFEE707B000BDF3
:102A0000000800408806002070B504460D461646B2
:102A1000022C00D070BD0A480A490860084645608B
:102A200000218160C16006610C214161002181614A
:102A3000C161FFF7A1FD08B100BFFEE700BFE9E7F4
:102A4000004400406007002000BFFEE710B51020E2
:102A50000C490860012000F082FB01200A4908703F
:102A600000200A49088001F069FC0020084908702C
:102A7000084908800021012001F038FC002000F006
:102A80006EFB10BD14080140E9000020F200002098
:102A9000E8000020F00000207047704708B50849A2
:102AA0000968C9084FF47A72B1FBF2F14143009111
:102AB00000BF00BF00994A1E00920029F9D108BD4D
:102AC000180000202DE9F04F87B080460E46002008
:102AD0000490059006900120314908703148039018
:102AE0000020009001900290002781464FF6FF7A67
:102AF0000024CDF800800120019007200290694653
:102B00000398FDF795FD30B1002025490870401E5F
:102B100007B0BDE8F08F012E01DA012602E0142E85
:102B200000DD14264FF0000B1CE00398FEF710F8B0
:102B30000A210398FDF74CFF68B90398FDF75EFE84
:102B400085B22F44601CC4B24D4500DDA9465545F1
:102B500000DAAA4600BF0398FEF752F90BF1010014
:102B600000F0FF0BB345E0DB04A90398FDF760FD1F
:102B700024B900200A490870401EC9E7022C07DD6D
:102B8000A7EB0900A0EB0A01A01EB1FBF0F701E0E2
:102B9000B7FBF4F700200249087038B2B8E700002C
:102BA000FE020020D8050020704710B5FEF7B8FCE3
:102BB00010BD704710B50748006800F0010038B13B
:102BC00001F026FB0348006820F00100014908607D
:102BD00010BD00001008004010B50268184B984264
:102BE00008D0B0F1804F05D0164B984202D0164B5A
:102BF000984203D122F070024B681A43104B98425E
:102C000008D0B0F1804F05D00E4B984202D00E4B49
:102C1000984203D122F44072CB681A4322F0800319
:102C20004C6943EA040202608B68C3620B688362EA
:102C3000034B984201D10B6903630123436110BD2B
:102C4000002C0140000400400008004030B50C4654
:102C5000816821F47F4142EA0325254329438160AD
:102C600030BD0A46816821F0700142F00703194324
:102C70008160704730B50B461446026A056A25F03C
:102C800001050562816921F0F00141EA041122F099
:102C90000A021A438161026230BD30B50B46144608
:102CA000026A056A25F010050562816921F4704108
:102CB00041EA043122F0A00242EA03128161026279
:102CC00030BD70B505466C6A0020E085E084204682
:102CD000FFF7DFFA70BD00BF00BF02680C3252E898
:102CE000002F22F4907102680C3242E80013002B8E
:102CF000F3D100BF00BF00BF0268143252E8002FBA
:102D000022F001010268143242E80013002BF3D1D3
:102D100000BF016B01290ED100BF00BF02680C3259
:102D200052E8002F22F0100102680C3242E8001332
:102D3000002BF3D100BF202180F842100021016355
:102D4000704710B504462068C06820F04000216834
:102D5000C860202084F841002046FFF797FD00203E
:102D600010BDF8B5044694F84200222875D1A06839
:102D7000B0F5805F0CD1206950B90025A66A2068A3
:102D80004068C0F308003080A06A801CA06215E093
:102D9000A56A0026A068B0F5805F03D0A06828B9B6
:102DA000206918B920684068287004E020684068ED
:102DB00000F07F002870A06A401CA062E08D401ED9
:102DC00080B2E085002846D12068C06820F020004D
:102DD0002168C8602068C06820F480702168C860DD
:102DE0002068406920F0010021684861202084F8B3
:102DF000420000206063206B012826D10020206360
:102E000000BF00BF21680C3151E8001F21F0100005
:102E100021680C3141E80002002AF3D100BF20688C
:102E2000006800F0100010280AD100BF00200090B8
:102E300020680068009020684068009000BF00BFD4
:102E4000A18D2046FFF724FA02E02046FFF7C4FCDC
:102E50000020F8BD01E00020FBE70220F9E70000B8
:102E600070B504462168096921F44051E2681143B4
:102E7000226811612269A1681143626941EA020571
:102E80002168C96841F20C62914329432268D160EC
:102E90002168496921F44071A26911432268516196
:102EA0002D4A2168914202D1FEF7E8FD01E0FEF7CC
:102EB000D5FD00EBC00101EB001162689200B1FB8F
:102EC000F2F100EBC00202EB001263689B00B2FB60
:102ED000F3F26423B2FBF3F202EBC20303EB021240
:102EE000A1EB8201322202EB01116422B1FBF2F16B
:102EF00001F0F00100EBC00202EB001263689B00DE
:102F0000B2FBF3F26423B2FBF3F201EB021200EB2B
:102F1000C00101EB001163689B00B1FBF3F100EB12
:102F2000C00303EB00136668B600B3FBF6F3642638
:102F3000B3FBF6F303EBC30606EB0313A1EB83012C
:102F4000322303EB01116423B1FBF3F101F00F0114
:102F500011442268916070BD00380140014691F82B
:102F60004100212828D18868B0F5805F0BD108691D
:102F700048B90A6A1088C0F308000B685860086AEC
:102F8000801C086205E00B6A581C086218780B6800
:102F90005860C88C401E80B2C88458B90868C068A0
:102FA00020F080000B68D8600868C06840F04000DE
:102FB0000B68D860002070470220FCE72DE9F04143
:102FC00004460D4617469846069E34E0701C88B3AA
:102FD0002EB1FEF79FFAA0EB0800B0422BD900BF3C
:102FE00000BF21680C3151E8001F21F4D070216826
:102FF0000C3141E80002002AF3D100BF00BF00BF3E
:103000002168143151E8001F21F0010021681431BA
:1030100041E80002002AF3D100BF202084F84100DB
:1030200084F8420000BF002084F8400000BF032065
:10303000BDE8F081FFE7206800682840A84201D180
:10304000012000E00020B842C0D00020F0E70000DE
:103050001CB5002001901A4800680068C0F34010B9
:10306000B8B118480088802802D30020154908808C
:103070004FF47A73012201A91148FFF74FFB9DF825
:103080000410104802880088401C0E4B18800E481F
:1030900081540B4800680068C0F3001070B101F063
:1030A00001F900BF0020009005480068006800900A
:1030B000034800684068009000BF00BF1CBD0000CE
:1030C000600300201C0000203804002010B50B48CD
:1030D0000068C06800F0200008B101F0A1F80748BE
:1030E0000068C06800F0800008B101F0A1F8262057
:1030F000FEF75EFA0148FFF7CDF810BD600700202B
:1031000000BFFEE702480068C0F3022070470000DD
:103110000CED00E010B5002804DB0A07130E054A89
:10312000135406E00A07140E034A00F00F031B1F96
:10313000D45410BD00E400E018ED00E000BFFEE74D
:1031400002E008C8121F08C1002AFAD17047704770
:10315000002001E001C1121F002AFBD1704780F35B
:1031600010887047FEB507460C4615461E460020DF
:1031700000900190029000940195029669463846AD
:10318000FDF756FAFEBD000010B50C480C4908606A
:10319000002048604FF4807109488160012101736B
:1031A000042101610021017581614FF46021C16139
:1031B000FDF728FB0248FDF7ADF910BD00240140E2
:1031C0001406002010B50446FFF7DEFF0723012296
:1031D00000210E48FFF7C6FF0723022201210B48FA
:1031E000FFF7C0FF0723032202210848FFF7BAFFB9
:1031F0000723042203210548FFF7B4FF00F03CF841
:10320000042221460148FDF73BFD10BD14060020B5
:1032100010B5044603E04FF47A7000F005F8201E64
:10322000A4F10104F7D110BD014601EBC102D200A7
:103230004FF0E0235A6100229A611A46126942F067
:1032400004021A611A46126942F001021A6100BFB3
:103250004FF0E022106900F001021AB100F4803250
:10326000002AF5D04FF0E022126922F001024FF05F
:10327000E0231A617047000008B500BF1948406993
:1032800040F00100174948610846406900F001001C
:10329000009000BF00BF1448144908600020486037
:1032A0004FF48061114841618021C1604900016192
:1032B000002181604FF48051C16120218161FDF7BF
:1032C00011FF00BF09480A490862084607494862D9
:1032D00000BF0B20FEF77EF9002211460B20FEF7FF
:1032E00089F908BD00100240080002404406002091
:1032F0001406002010B5002406480078012806D1E5
:1033000005480068804700200249087000E0062454
:10331000204610BD2E000020340000202DE9F05F73
:1033200006460D464FF0000B2888052848D17078D6
:103330004FEA0029B07840EA090909F101001FFAB3
:1033400080F9F078040230790443012C35DBB4F5C0
:10335000FA6F32DA374600202880012007F8010B87
:103360002888401C288004F0070040B12046E1175F
:1033700004EB5171C910491C01F0FF0805E020461B
:10338000E11704EB5171C1F3C70807F8018B2888D6
:10339000401C2880002322464946384600F06AFC3B
:1033A0008246BAF1000F04D0504600F01FFF83465A
:1033B00008E028884044288004E04FF0030B01E037
:1033C0004FF0030B5846BDE8F09F2DE9F05F06462D
:1033D0000D464FF0000B2888052847D170784FEA3A
:1033E0000029B07840EA090909F101001FFA80F9C3
:1033F000F078040230790443012C34DBB4F5FA6F21
:1034000031DA374600202880022007F8010B28888F
:10341000401C288004F0070040B12046E11704EB6F
:103420005171C910491C01F0FF0805E02046E11761
:1034300004EB5171C1F3C70807F8018B2888401CC1
:10344000288022464946384600F0AEFC8246BAF152
:10345000000F04D0504600F0C9FE834608E02888DB
:103460004044288004E04FF0030B01E04FF0030BD1
:103470005846BDE8F09F2DE9F04705460C464FF051
:10348000000A2088052837D168784FEA0028A878F4
:1034900040EA080808F101001FFA80F8E8780602FF
:1034A0002E79012E25DB7D2E23DC2F460020208067
:1034B000032007F8010B2088401C20807006000EB6
:1034C00007F8010B2088401C20800023324641462B
:1034D000384600F0CDFC8146B9F1000F04D04846D3
:1034E00000F084FE824609E0208800EB4600208040
:1034F00004E04FF0030A01E04FF0030A5046BDE834
:10350000F0872DE9F04705460C464FF0000A208869
:10351000052837D168784FEA0028A87840EA0808DB
:1035200008F101001FFA80F8E878060228790643BE
:10353000012E24DB7D2E22DA2F460020208004205D
:1035400007F8010B2088401C20807006000E07F849
:10355000010B2088401C208032464146384600F04E
:10356000E1FC8146B9F1000F04D0484600F03EFE70
:10357000824609E0208800EB4600208004E04FF0FE
:10358000030A01E04FF0030A5046BDE8F0872DE939
:10359000FC5F04460D460020009028880A285DDB69
:1035A00060784FEA002AA07840EA0A0A0AF101008E
:1035B0001FFA80FAE07806022079064360794FEA24
:1035C000002BA07940EA0B0B0BF101001FFA80FBE6
:1035D000E0790702207A0743607A0190012E3BDBF5
:1035E0007D2E39DC012F37DB792F35DC790001980E
:1035F000814231D101233A46594604F10A0000F0D4
:1036000037FC8146B9F1000F1ED1A046002028806A
:10361000172008F8010B2888401C28807006000E2F
:1036200008F8010B2888401C2880002332465146A8
:10363000404600F01DFC8146B9F1000F04D12888F6
:10364000022101FB06002880B9F1000F06D0484690
:1036500000F0CCFD009001E0032000900098BDE850
:10366000FC9F000070B505460C46064802880649D6
:10367000681CFCF755FD03480088401C2080002092
:1036800070BD0000FC020020B80500202DE9F843C1
:1036900004460F464FF000083888052829D1607885
:1036A0000502A0780543681C85B22079F0B9E0785E
:1036B000FF2801D0E078C8B900208DF80100E0783B
:1036C000FF2803D101208DF8000002E000208DF8D2
:1036D000000001231A462946684600F0CBFA064648
:1036E0004EB1304600F082FD804604E04FF0030802
:1036F00001E04FF003084046BDE8F8832DE9F041B2
:1037000004460F464FF000083888052812D160782B
:103710000502A0780543681C85B201231A46294694
:10372000E01C00F0A5FB064636B1304600F05EFD19
:10373000804601E04FF003084046BDE8F0812DE9E6
:10374000F05F05460E464FF0000B3088052839DD46
:1037500068780702A8780743781C87B2E8780402E3
:103760002879044395F805A004F0070040B12046ED
:10377000E11704EB5171C910491C01F0FF0805E085
:103780002046E11704EB5171C1F3C708012C16DB89
:10379000B4F5F66F13DCD04511D10123224639462A
:1037A000A81D00F067FA8146B9F1000F04D0484621
:1037B00000F01CFD834607E00520308004E04FF058
:1037C000030B01E04FF0030B5846BDE8F09F2DE9D5
:1037D000F04704460E464FF0000A3088062828DBE2
:1037E00060780702A0780743781C87B2E07805026A
:1037F0002079054394F80590012D17DB782D15DC11
:103800006806000E484511D101232A463946A01DFD
:1038100000F02EFB8046B8F1000F04D0404600F0C7
:10382000E5FC824607E00520308004E04FF0030A03
:1038300001E04FF0030A5046BDE8F0872DE9F0475C
:1038400005460C4616461F46DDF820904FF000084E
:103850001CB1012C01DBF72C02DD4FF0020835E032
:103860001C48047005BB1C481C4908601C481D49C5
:1038700008601D481D4908601D481E490860002059
:103880001D4908601D481E4908601E481E49086001
:103890001E481F4908604B463A4631460D4800789D
:1038A00000F0D8F8804602E04FF0020800BF00BFE9
:1038B000B8F1000F0AD100F09BFD10B94FF00308DA
:1038C00004E0144805700120134908704046BDE823
:1038D000F08700002C000020313C0008340000205C
:1038E000593C000838000020753B000830000020DB
:1038F000B13A00083C00002040000020B14400081C
:10390000440000203D46000848000020A94500086A
:103910004C0000202D0000202E00002038B500258E
:103920004148007808B1062038BD684600F04EFDD9
:10393000012877D19DF8000030B1012805D0022878
:1039400018D003286DD16BE06BE0384A384939480C
:10395000394B1B68984705465DB9364800783749AA
:103960000978884202D03348007810B9022000F06C
:1039700047FD56E02E480068007831490870012064
:1039800030490870002417E02F4810F8340000B9BF
:1039900014E02D4810F834002949097888420AD1EA
:1039A000294800EBC400214942682148006890473B
:1039B0002449087002E0641C102CE5DB00BF1D48A0
:1039C000007858B31F480078C8B100201749088014
:1039D0001B48007840F08001144802880088401C91
:1039E000124B188012480068815416480278184615
:1039F00001880088401C18800D4800684254134814
:103A00000078012800D100BF0848028808480168F2
:103A10000A4800780E4B1B689847054601E001E014
:103A200000BF00BF00207FE72E000020E200002042
:103A3000DC000020E00000203C0000202C000020E2
:103A4000E1000020E4000020580000202D000020AC
:103A5000300000202DE9F04781460E4614461F46EF
:103A60004FF000080120FFF77AFB3B460822214671
:103A7000304600F0E5FC012802D04FF003080FE0CB
:103A8000B4F5964F01D9232503E060000749B1FB47
:103A9000F0F5A8B200F0F0FC012801D04FF00308C7
:103AA0000020FFF75CFB4046BDE8F087801D2C043A
:103AB0002DE9F04104460D4616464FF00008002758
:103AC0000120FFF74CFB14480088FF2800DC04E0CD
:103AD000AC2212A11CA0FFF731FB0F48008804287C
:103AE00012DB0D480188224800F0EAFB60B920484B
:103AF0000078207008480088C01E30801C48401C98
:103B000028604FF0010800E005270020FFF727FBA1
:103B10003846BDE8F0810000F20000202E2E5C2E19
:103B20002E5C53544D33324D425C53544D33324D21
:103B3000425C6D6F646275735C7274755C6D627209
:103B400074752E63000000007573526376427566CB
:103B5000666572506F73203C204D425F5345525F43
:103B60005044555F53495A455F4D4158000000008D
:103B7000B80400202DE9F04105460E4617464FF0E7
:103B800000080120FFF7EBFA21480078012836D120
:103B9000701E2049086001201F4908801D480068E8
:103BA000057008460088384408800846018819488E
:103BB000006800F085FB044617490888411C164B35
:103BC000198016490C54221219460888411C198084
:103BD00012490A540120124908700121002000F006
:103BE00085FB10200F4908600F48007820F008007E
:103BF00008300D49087000200C49087001E04FF0B2
:103C000005080020FFF7ABFA4046BDE8F081000050
:103C1000E9000020EC000020F0000020B8040020A3
:103C2000E800002010080140000000200D030020E3
:103C300010B50120FFF793FA002006490870002113
:103C4000012000F053FB00F0A5FB0020FFF787FAEE
:103C500010BD0000E900002010B50120FFF77FFA39
:103C60000021084600F042FB00F068FB0020FFF74F
:103C700076FA10BD2DE9FF5F05460E4614469A46BA
:103C8000002003902046E11704EB5171C910491C34
:103C90001FFA81F8DFF8089100200290402001907F
:103CA000404800880090701E86B20298864271DB00
:103CB0003219DDE90110084482426BDC0099711A67
:103CC00088B2C11700EB5171CF100099711A88B2F8
:103CD000C11700EB5171C910A0EBC1011FFA81FBA4
:103CE000BAF1000F03D0BAF1010F51D126E00EE076
:103CF00039467A1C97B201EB09000822594600F0B8
:103D000015FD05F8010BA8F101001FFA80F8B8F1C4
:103D1000000FEDDC6D1E2046E11704EB5171C91058
:103D2000A4EBC1018CB22878C4F108018840287046
:103D30002878C4F108010841287029E00EE015F840
:103D4000013B39467A1C97B201EB0900082259461B
:103D500000F002FDA8F101001FFA80F8B8F1010F90
:103D6000EDDC2046E11704EB5171C910A4EBC10151
:103D70008CB264B115F8013BE2B2394607F1010C8F
:103D80001FFA8CF701EB0900594600F0E5FC00BF73
:103D900002E0FFE701200390039804B0BDE8F09F24
:103DA000FC000020FA0000202DE9FE4F05460E46DB
:103DB0001446002002902046E11704EB5171C9100F
:103DC000491C1FFA81F9284801904FF0000A102081
:103DD00000902648B0F800B0701E86B256453DDB14
:103DE000311900985044814238DCA6EB0B0188B2AF
:103DF000C11700EB5171CF10A6EB0B0188B2C117B0
:103E000000EB5171C910A0EBC1011FFA81F80EE05F
:103E100039467A1C97B2019A88180822414600F068
:103E200085FC05F8010BA9F101001FFA80F9B9F131
:103E3000000FEDDC6D1E2046E11704EB5171C91037
:103E4000A4EBC1018CB22878C4F108018840287025
:103E50002878C4F108010841287001E0012002908F
:103E60000298BDE8FE8F0000F8000020F600002058
:103E70002DE9F04704460D461E460020274B01273A
:103E80004FF07D0CDFF89890B9F80080A5F101099A
:103E90001FFA89F5BD423EDB05EB020907EB0C0A70
:103EA000D14538DCA5EB08091FFA89F116B1012EBE
:103EB00030D115E011E033F811904FEA292904F8C8
:103EC000019B13F8119004F8019B01F101091FFAFD
:103ED00089F1A2F101091FFA89F2002AEBDC19E04D
:103EE00015E014F801AB4FEA0A2923F8119014F8F1
:103EF000019B33F811A049EA0A0923F8119001F156
:103F000001091FFA89F1A2F101091FFA89F2002AB9
:103F1000E7DC00BF00E00120BDE8F08702020020DE
:103F2000000200202DE9F04303460020174D002633
:103F30007D27DFF85C80B8F800C0A1F101081FFA06
:103F400088F1B1421FDB01EB020806EB0709C84507
:103F500019DCA1EB0C081FFA88F411E035F8148085
:103F60004FEA282803F8018B15F8148003F8018B19
:103F700004F101081FFA88F4A2F101081FFA88F27F
:103F8000002AEBDC00E00120BDE8F0830601002000
:103F90000401002010B520480078C0F3001008B3D9
:103FA00010201E4908601E480068C06820F04000CC
:103FB0001B490968C860FEF749FD1748007820F0E2
:103FC0000800154908700846007820F010000870B5
:103FD00014480078FF281EDA12480078401C114966
:103FE000087018E00C480078C0F3401098B1102019
:103FF0000A490860FEF72AFD0B480078FF2804DA1A
:1040000009480078401C084908700348007820F0EF
:1040100020000149087010BD000000201408014074
:1040200060070020D8000020D900002000B5002043
:10403000254908702548006800F00100002833D1A8
:1040400023480078A8B9012021490870002021499F
:1040500008702149087021480078401C1F490870E9
:1040600000201F4908701F4908701E201E49087053
:1040700026E01C480078401C1A4908700846007861
:104080001949097888421BDD174800780A2804DDA1
:1040900015480078C01E14490870002011490870A6
:1040A00001200F4908700BE00948007840B100205A
:1040B00007490870084908700949087009490870DB
:1040C000FEF7E8FB00BD00000003002008080140E7
:1040D0000303002006030020020300200103002048
:1040E00005030020040300200703002008B5FDF7A6
:1040F00023FA4FF4E01000F0A3F8FCF727F9344856
:10410000FFF760F8FEF74AFCFEF712FC3148FDF7B6
:10411000FDFF00204FF41653022201210090FFF70B
:104120008DFBFFF7E7F84FF4C870FDF75DF84DE041
:104130002948007800F0010098B32748007820F063
:1041400001002549087025482549097830F81100F3
:104150004FF6FF71884211D021480078401C204959
:104160000870084600780A2801DB002008704FF626
:10417000FF701A491A4A127821F81200FFF756FF09
:1041800015480078C0F3800038B11348007820F05B
:10419000040011490870FEF79FFBFFF7FBFEFFF7D5
:1041A000BDFB0D480078C0F3400078B10A480078A4
:1041B00020F00200084908700A210520FEF782FC61
:1041C000084908800846008807494880B0E7000091
:1041D00010000020D0060020000000202403002052
:1041E0000A0000200800002002020020014621B140
:1041F000012904D0072906D103E0002005E00220B0
:1042000003E0062001E0042000BF00BF704700006B
:1042100010B502480068804710BD00004C00002027
:1042200010B502480068804710BD0000440000201F
:1042300010B502480068804710BD0000480000200B
:1042400010B590B0044614210BA8FBF782FF28217B
:1042500001A8FBF77EFF01200190000402900020DE
:10426000039002200890C10309914FF4E0110A91D4
:1042700001A8FDF74BFC08B100BFFEE70F200B9033
:1042800002200C9000200D900F904FF480600E9053
:1042900002210BA8FDF716FB08B100BFFEE710B026
:1042A00010BD000010B580210348FBF752FF00202D
:1042B0000249088010BD0000380400201C000020C6
:1042C00030B502460B464FF6FF70002109E0555C01
:1042D0004540ECB20012044D35F8145068404D1CB6
:1042E000A9B29942F3DB30BD4048000840B1124A00
:1042F0001268D26842F020020F4B1B68DA6007E0B8
:104300000D4A1268D26822F020020B4B1B68DA605B
:1043100041B1094A1268D26842F08002064B1B681C
:10432000DA6007E0044A1268D26822F08002024B89
:104330001B68DA60704700006007002000BF144867
:104340000068006A41F21111084068B9104800681D
:10435000006A8910084038B90D480068006820F0EC
:1043600001000B490968086000BF0020084909687E
:10437000486207480068C06820F0010004490968E5
:10438000C8606FF0010002490968086170470000C9
:10439000880600206FF001000B49096808610A488F
:1043A0000068C06840F0010007490968C860002043
:1043B00005490968486204480068006840F0010047
:1043C00001490968086070478806002001460020FE
:1043D000054A127832B1054A12780A700022024B5F
:1043E0001A70012070470000F5000020F400002042
:1043F000002002490870012070470000F5000020ED
:1044000001460120044A107004480170022900D0BE
:1044100000BF012070470000F5000020F4000020DC
:1044200010B5044601231A4621460448FEF776F9E2
:1044300008B1002010BD0120FCE70000600700204B
:104440002DE9F04105460E4617461C4622463146E8
:104450002846FEF7D9FA0120BDE8F08101B5012315
:104460001A4669460348FEF7B8F908B1002008BDAE
:104470000120FCE76007002001460B48C06940F0BE
:104480000400094AD061481E084A106040F60F60D7
:10449000121F106005482038006840F00100034AF0
:1044A000203A106001207047001002402C080040A4
:1044B00038B500242548007800B905E04FF4827231
:1044C00023A12EA0FEF73AFE6846FFF7A9FF324867
:1044D000007830B1012811D0022820D0032832D131
:1044E00002E0FFF757FF2EE0FFF754FF2B4800785C
:1044F00020F0200020302949087024E000202849BD
:1045000008809DF800200888411C254B198025490A
:104510000A54022020490870FFF73CFF13E02048AE
:104520000088FF2809DC9DF800201D490888411CEF
:104530001B4B19801B490A5402E0032016490870DE
:10454000FFF728FF00BF00BF204638BDE80000206D
:104550002E2E5C2E2E5C53544D33324D425C535400
:104560004D33324D425C6D6F646275735C7274756D
:104570005C6D627274752E630000000065536E649A
:104580005374617465203D3D2053544154455F543C
:10459000585F49444C450000E9000020000000201D
:1045A000F2000020B804002010B50024164800785E
:1045B00020B1022807D003280BD109E00020FFF723
:1045C0001FFF044618E00120FFF71AFF044613E01E
:1045D00012E00D48007838B10B480078022803D06B
:1045E00009480078032800D105E040F27F1207A1B6
:1045F0001148FEF7A3FD00BF00BFFFF79FFE01209B
:1046000001490870204610BDE90000202E2E5C2EC6
:104610002E5C53544D33324D425C53544D33324D26
:10462000425C6D6F646275735C7274755C6D62720E
:1046300074752E6300000000404A000810B5002485
:1046400022480078012800D105E04FF4A17220A192
:104650002AA0FEF773FD3048007810B1012832D14E
:1046600004E000210120FFF741FE2CE02B480088E8
:1046700078B12B4909680878FFF7F0FE28480068F0
:10468000401C2749086025480088401E23490880AF
:1046900018E00320FFF7B4FE044600210120FFF7D5
:1046A00025FE00201C49087010201E4908601E4885
:1046B000007820F010001C4908700846007820F0AF
:1046C0000800087000BF00BF204610BDE9000020B0
:1046D0002E2E5C2E2E5C53544D33324D425C53547F
:1046E0004D33324D425C6D6F646275735C727475EC
:1046F0005C6D627274752E63000000006552637613
:104700005374617465203D3D2053544154455F52BC
:10471000585F49444C450000E8000020F0000020AC
:10472000EC0000201408014000000020F0B5034612
:104730000C461546E208A4EBC20087B20120A8404F
:10474000401E86B2995C501C185C41EA0021394138
:104750003140C8B2F0BD00002DE9FF5F05460E46AE
:104760009046DDF80CB0B8F1080F00DC04E0372209
:1047700013A120A0FEF7E2FCF408A6EBC4001FFA88
:1047800080FA0BFA0AF01FFA80FB012000FA08F009
:10479000401E1FFA80F9A6EBC40009FA00F01FFAC8
:1047A00080F92F5D601C285C47EA002727EA090092
:1047B00040EA0B072F553912601C2954BDE8FF9FB2
:1047C0002E2E5C2E2E5C53544D33324D425C53548E
:1047D0004D33324D425C6D6F646275735C66756E0D
:1047E0006374696F6E735C6D627574696C732E634C
:1047F0000000000075634E42697473203C3D203810
:10480000000000000000000000000000010203049E
:104810000607080900000000010203040203040562
:10482000060708090A0B0C0D0E0F101001020203F7
:104830000405060708090A0B0C0D0E0F10100102E3
:104840000000C1C081C1400101C3C003800241C258
:1048500001C6C006800741C70005C1C581C4400428
:1048600001CCC00C800D41CD000FC1CF81CE400ED8
:10487000000AC1CA81CB400B01C9C009800841C8E8
:1048800001D8C018801941D9001BC1DB81DA401A58
:10489000001EC1DE81DF401F01DDC01D801C41DC28
:1048A0000014C1D481D5401501D7C017801641D658
:1048B00001D2C012801341D30011C1D181D0401068
:1048C00001F0C030803141F10033C1F381F2403258
:1048D0000036C1F681F7403701F5C035803441F428
:1048E000003CC1FC81FD403D01FFC03F803E41FED8
:1048F00001FAC03A803B41FB0039C1F981F84038E8
:104900000028C1E881E9402901EBC02B802A41EA57
:1049100001EEC02E802F41EF002DC1ED81EC402C27
:1049200001E4C024802541E50027C1E781E6402657
:104930000022C1E281E3402301E1C021802041E067
:1049400001A0C060806141A10063C1A381A2406257
:104950000066C1A681A7406701A5C065806441A427
:10496000006CC1AC81AD406D01AFC06F806E41AED7
:1049700001AAC06A806B41AB0069C1A981A84068E7
:104980000078C1B881B9407901BBC07B807A41BA57
:1049900001BEC07E807F41BF007DC1BD81BC407C27
:1049A00001B4C074807541B50077C1B781B6407657
:1049B0000072C1B281B3407301B1C071807041B067
:1049C0000050C190819140510193C0538052419257
:1049D0000196C056805741970055C1958194405427
:1049E000019CC05C805D419D005FC19F819E405ED7
:1049F000005AC19A819B405B0199C05980584198E7
:104A00000188C04880494189004BC18B818A404A56
:104A1000004EC18E818F404F018DC04D804C418C26
:104A20000044C184818540450187C0478046418656
:104A30000182C042804341830041C1818180404066
:104A400028655263765374617465203D3D2053544C
:104A50004154455F52585F494E495429207C7C207F
:104A600028655263765374617465203D3D2053542C
:104A70004154455F52585F52435629207C7C202880
:104A8000655263765374617465203D3D20535441F3
:104A900054455F52585F4552524F52290000000062
:104AA000C04A000800000020100300008C0100082C
:104AB000284B00081003002098080000503100081F
:104AC00001199324F43210520102290232111365A4
:104AD000363308041303353308031377342A084C9C
:104AE00013CF373308061AFD2032171A8F2029609A
:104AF000131D333308051A8D18320F1A3F282972F7
:104B00001ACB18015456AA551009071008010103C1
:104B1000020503071A09B802ED131A010212031263
:084B20000509F2FCE15201005D
:04000005080000E906
:00000001FF
