:020000040800F2
:1000000050170020FD0000080D310008A926000847
:10001000BD30000835060008053A00080000000061
:100020000000000000000000000000001D32000879
:10003000B10A0008000000000F3100081533000865
:100040001701000817010008170100081701000830
:100050001701000817010008170100081701000820
:100060001701000817010008170100081701000810
:100070001701000817010008170100081701000800
:100080001701000817010008170100080000000010
:100090000000000000000000000000001701000840
:1000A0000000000000000000000000000000000050
:1000B0001701000817010008213300081701000884
:1000C00017010008170100081701000817010008B0
:1000D0001701000855390008D13900081701000838
:1000E0001701000817010008DFF80CD000F026F90E
:1000F000004800473D480008501700200648804748
:1001000006480047FEE7FEE7FEE7FEE7FEE7FEE7FC
:10011000FEE7FEE7FEE7FEE71D330008E900000802
:1001200040EA01039B0703D009E008C9121F08C079
:10013000042AFAD203E011F8013B00F8013B521EF9
:10014000F9D27047D2B201E000F8012B491EFBD270
:1001500070470022F6E710B513460A4604461946D2
:10016000FFF7F0FF204610BD421C10F8011B0029CC
:10017000FBD1801A7047F0B480EA0102D40F42002C
:10018000B2EB410F02D20246084611464A0042D065
:10019000C30DDDB2C1F3C752AD1A202D35DAC1F35C
:1001A000160141F4000204B15242C5F1200602FAE0
:1001B00006F12A411044B3EBD05F23D0C4B1012D26
:1001C000A0EBC35009DCF0BC4FF0004202EAC3527E
:1001D000DBB200F5000000F083B8400000F1807051
:1001E00000EBC350A0F1807040EAD170490009E0F3
:1001F000490841EAC071A0EBC35000F50000400877
:1002000000EBC350F0BC00F062B86142012202EB87
:100210004101001BF6E7F0BC704781F00041AAE7FE
:1002200080F00040A7E780EA010210B502F0004329
:10023000400022D04A001FD0010E01EB1261C0F332
:100240005600C2F3560240F4000042F40002A0FB44
:10025000022000047F39140400D0401C50EA1240F0
:1002600001D44000491EC2B20C0604EBD010401C61
:100270004008802A02D003E0002010BD20F00100D9
:10028000002900DA0020184310BDC10F80EAE07099
:100290000844CA079623002100F022B896230022C2
:1002A000114600F01DB820F00040C10DC0F316004B
:1002B00040F400007F2901DA00207047962903DC12
:1002C000C1F19601C84070479639884070470029AF
:1002D000A8BF7047401C490008BF20F001007047CC
:1002E00010B4B0FA80FC00FA0CF050EA010404BF2C
:1002F00010BC704749B1CCF1200421FA04F411FA82
:100300000CF118BF012121430843A3EB0C01CB1DC5
:100310004FEA00614FEA102042BF002010BC704736
:1003200000EBC35010440029A4BF10BC7047401C10
:10033000490008BF20F0010010BC7047064C074D73
:1003400006E0E06840F0010394E8070098471034A5
:10035000AC42F6D3FFF7CCFE046500082465000824
:1003600070B58C1810F8015B15F0070301D110F877
:10037000013B2A1106D110F8012B03E010F8016BA4
:1003800001F8016B5B1EF9D12B0705D40023521E27
:100390000DD401F8013BFAE710F8013BCB1A921C8F
:1003A00003E013F8015B01F8015B521EF9D5A1428D
:1003B000D8D3002070BD70B5044600252068806841
:1003C00000F0010018B32068806820F00100216867
:1003D000886001F005FB054613E001F001FB401BBE
:1003E00002280ED92068806800F0010048B1A06A98
:1003F00040F01000A062E06A40F00100E0620120DD
:1004000070BD2068806800F001000028E5D1002060
:10041000F6E7000038B5044600250020009020686B
:10042000806800F0010078BB2068806840F001001F
:1004300021688860194800681949B0FBF1F0009004
:1004400002E00098401E009000980028F9D101F0C9
:10045000C7FA054619E001F0C3FA401B022814D977
:100460002068806800F0010078B9A06A40F01000B0
:10047000A062E06A40F00100E06200BF002084F862
:10048000240000BF012038BD05E02068806800F02E
:1004900001000028DFD00020F5E700001400002054
:1004A00040420F0000B585B00020019002900390FB
:1004B000049000BF5C48806940F004005A4988619C
:1004C0000846806900F00400009000BF00BF00BF34
:1004D0000846806940F0080088610846806900F09D
:1004E0000800009000BF00BF00BF0846806940F0D0
:1004F000100088610846806900F01000009000BF7D
:1005000000BF4020019011200290012003900320A1
:10051000049001A9454801F0D3F8802001901120F2
:100520000290012003900320049001A93F4801F0AC
:10053000C7F84FF44070019001200290039003200F
:10054000049001A9394801F0BBF84FF48070374995
:1005500010310860400008600190022002900320E2
:10056000049001A9324801F0ABF804200190022068
:100570000290002003900320049001A92C4801F070
:100580009FF84FF4806001900220029000200390B9
:100590000320049001A9254801F092F81020019051
:1005A00001200290002003900320049001A920481C
:1005B00001F086F84FF48060019000200290012045
:1005C000039001A91A4801F07BF80820019000204F
:1005D00002900120039001A9154801F071F84FF431
:1005E00000600190002002900120039001A90F48B3
:1005F00001F066F803200190002002900390032090
:10060000049001A90A4801F05BF820200190032022
:100610000290002003900320049001A9044801F0F7
:100620004FF805B000BD000000100240000C014072
:100630000008014000BFFEE710B5052003F09CFA5A
:1006400010BD00001FB54FF4806014490860002001
:100650000090019002900390C81400900120019036
:10066000002002900220039069460C48143801F0E3
:1006700027F8FFF7E1FF4FF4006008490860FFF733
:10068000DBFF4FF480600549091F0860FFF7D4FFC6
:100690004FF48060014908601FBD0000140C014048
:1006A00000B585B00020019002900390049000BF37
:1006B0003248806940F0040030498861084680690A
:1006C00000F00400009000BF00BF00BF0846806932
:1006D00040F0080088610846806900F0080000903A
:1006E00000BF00BF00BF0846806940F0100088616D
:1006F0000846806900F01000009000BF00BF012094
:10070000029000200390032004900220019001A990
:100710001B4800F0D5FF0220194910310860400243
:10072000019001A9164800F0CBFF4FF480601449F6
:10073000103108604000019001A9114800F0C0FF8D
:100740004FF400600E49103108608000019001A94B
:100750000B4800F0B5FF4FF4005009491031086014
:100760004000019001A9064800F0AAFF4FF4804024
:1007700003491031086005B000BD000000100240C0
:10078000000C01401FB54FF4806014490860002040
:100790000090019002900390C814009001200190F5
:1007A000002002900220039069460C48143800F0A3
:1007B00087FFFFF741FF4FF400600849091F0860F9
:1007C000FFF73AFF4FF480600449091F0860FFF704
:1007D00033FF4FF48060014908601FBD140C0140D5
:1007E0007FB5054600240020009001900290039000
:1007F0004FF4006000900020019002906946154877
:1008000000F05EFF1E2003F0B7F9002617E04FF45A
:100810008060104914310860FFF70EFF4FF48060CC
:100820000C49103108606006040E0A480830006860
:1008300000F4006008B1601CC4B2701CC6B2082E7F
:10084000E5DB15B9FFF79EFF01E0FFF7FBFE204651
:1008500004B070BD000C01407FB50446002000903C
:100860000190029003904FF40060009001200190ED
:1008700000200290022003906946174800F020FFF4
:100880004FF48060144914310860FFF7D5FE00254D
:100890001EE0E00928B14FF400600F4910310860F4
:1008A00004E04FF400600C49143108606006040E47
:1008B0004FF48060084910310860FFF7BDFE4FF427
:1008C0008060054914310860FFF7B6FE681CC5B2A8
:1008D000082DDEDB7FBD0000000C01401FB50020AD
:1008E00000900190029003904FF40060009001206E
:1008F0000190002002900220039069460C4800F00D
:10090000DFFE4FF400600A491031086040100860B3
:100910001E2003F031F94FF40060054914310860DE
:10092000FFF78AFE4FF480600149143108601FBD53
:10093000000C01401FB50020009001900290039030
:100940004FF40060009001200190002002900220EE
:10095000039069460B4800F0B3FE4FF480600949EC
:10096000103108601E2003F007F94FF400600549BC
:1009700014310860FFF760FE4FF400600149103148
:1009800008601FBD000C01401FB50024002000902E
:100990000190029003904FF40060009000200190BD
:1009A00002906946124800F08BFE4FF40060104937
:1009B0001031086040100860FFF73EFE0AE0601C3E
:1009C000C4B2FA2C04DDFFF7B5FF012004B010BD5E
:1009D000FFF732FE06480830006800F40060002887
:1009E000EDD14FF480600249143108600020EDE73A
:1009F000000C014008B517A000F05CF84FF47840F7
:100A0000184908800020184908800120102317A2E7
:100A10001E2100900A2002F003FC0120102317A2DF
:100A2000322100900A2002F0FBFB0120182318A2BB
:100A3000462100900A2002F0F3FB0120202318A297
:100A4000642100900A2002F0EBFB40F2DC5003F03E
:100A500087F808BDD6D0CEC4CFD4CABEB2E2CAD4BD
:100A600000000000BA0F0020BC0F002031365831C2
:100A7000363ABAE8D1B6B5E7D7D3000031365831A7
:100A8000363A544654D2BABEA7CFD4CABEC6C10065
:100A900032345832343AD6D0CEC4CFD4CABE000095
:100AA00033325833323AB2E2CAD4C0FDB3CC00007C
:100AB0007047000038B504464FF6FF7001F018FE8D
:100AC0001F2000903C48028814230021084601F0B2
:100AD00013FF4FF4FC60394908803748028814231B
:100AE0001946002001F090FE1F203449088032484A
:100AF000028815231946002001F086FE4FF60740B4
:100B00002E4908802C48028816231946002001F03F
:100B10007BFE1F20009028484388028840881438B4
:100B200081B2002001F0E8FE4FF4FC602349088008
:100B300021484088143883B21F48028840881438FE
:100B400081B2002001F060FE1F201C4908801A4875
:100B50004088153883B2184802884088153881B219
:100B6000002001F051FE4FF607401449088012485A
:100B70004088163883B2104802884088163881B2FF
:100B8000002001F041FE4FF6FF700C490880012063
:100B90001023224602210090002000F0ABFA012031
:100BA000009005484088123881B2102304A200202A
:100BB00000F0A0FA38BD000040130020BA0F00205A
:100BC000C9EEDBDACAD0BAE8D1B6B5E7D7D3D3D00D
:100BD000CFDEB9ABCBBE000010B5FFF761FD022040
:100BE00006490860142002F0BBFF02200349091FD8
:100BF00008604FF4967002F0B3FF10BD140C014072
:100C00002DE9F04106460F461546FFF767FE7020B6
:100C1000FFF722FEFFF7B8FEF0B2FFF71DFEFFF769
:100C2000B3FEFFF75BFE7120FFF716FEFFF7ACFE89
:100C300000240BE0691EA14201D0012100E0002147
:100C40000846FFF7CDFD3855601CC4B2AC42F1DB5D
:100C5000FFF770FEBDE8F08171B581B00024002679
:100C600060480078401C5F490870084600780A21F7
:100C700090FBF1F201FB120018B15A4800780A28E3
:100C800067DA012201A90220FFF7BAFF9DF80400EC
:100C900000F00F0000287BD09DF8040000F00F004A
:100CA000062875DA9DF8040000F00F01FF20884047
:100CB000C5B2E843C0B240F0C0004B4981F8200003
:100CC000002457E0484890F820000121A140084046
:100CD000F0B3464931F8140004226946FFF790FF4B
:100CE000414890F8300000F00100C0B19DF80100CB
:100CF0009DF8001001F00F0100EB01203A49163178
:100D000021F814009DF803009DF8021001F00F0176
:100D100000EB012134480C3020F8141017E09DF846
:100D200001009DF8001001F00F0100EB01212E4899
:100D30000C3020F814109DF803009DF8021001F00B
:100D40000F0100EB01212848163020F8141001E0B3
:100D50000EE01DE09DF8000000F0F000802807D0B4
:100D600000212148163020F814100A3820F81410F9
:100D7000601CC4B2052CA5DB01261B48808920B964
:100D80001948C08A08B90020019000201549087050
:100D90009DF8040000F01F00D0B9134890F820001F
:100DA00000F0800040B1104890F8200020F0800052
:100DB0000D4981F820000BE04FF6FF700A49888149
:100DC000C882084690F8200000F0E00081F820007A
:100DD00004480078F02802DD0A20024908703046F5
:100DE0007CBD000004030020C00F0020C44C00089C
:100DF0002DE9F84F0546894690469A46AB46342081
:100E0000009000245DE004EB0410344911F8100058
:100E100098F80010884251D104EB04102F4901EBDF
:100E20004000407898F80110884247D110231A46B4
:100E30004946284601F05CFF02F0DCF800263BE062
:100E4000002734E0BAF1000F14D104EB0410234959
:100E500001EB4000801C805D80213941084020B1B9
:100E60001F48008802F09AF81FE01E48008802F030
:100E700095F81AE004EB0410184901EB4000801CBF
:100E8000805D80213941084018B14946284601F06B
:100E900013FD681C85B2A5EB0B00102805D15D463B
:100EA00009F101001FFA80F903E0781CC7B2082F8E
:100EB000C8DB00BF701CC6B2202EC1DB00BF601CA7
:100EC00084B2009884429EDB074843880288002150
:100ED000084601F00DFFBDE8F88F00000603002072
:100EE000BA0F0020BC0F0020401300202DE9F84F5E
:100EF0000546894690469A46AB4606200090002457
:100F000065E004EB840000EB4410374911F8100051
:100F100098F80010884257D104EB840000EB44108D
:100F2000314901EB4000407898F8011088424BD1DC
:100F300018231A464946284601F0DAFE02F05AF80C
:100F400000263FE0002738E0BAF1000F16D104EB8D
:100F5000840000EB4410244901EB4000801C805DBC
:100F600080213941084020B12048008802F016F85D
:100F700021E01F48008802F011F81CE004EB840017
:100F800000EB4410184901EB4000801C805D80217B
:100F90003941084018B14946284601F08DFC681CCB
:100FA00085B2A5EB0B00182805D15D4609F10100BB
:100FB0001FFA80F903E0781CC7B2082FC4DB00BF1A
:100FC000701CC6B2482EBDDB00BF601C84B2009806
:100FD000844296DB0748438802880021084601F0D6
:100FE00087FEBDE8F88F0000EE090020BA0F002050
:100FF000BC0F0020401300202DE9F84F054689461C
:1010000090469A46AB460820009000245DE004EB31
:101010008410344911F8100098F80010884251D11A
:1010200004EB84102F4901EB4000407898F8011040
:10103000884247D120231A464946284601F058FEE7
:1010400001F0D8FF00263BE0002734E0BAF1000FA2
:1010500014D104EB8410234901EB4000801C805D17
:1010600080213941084020B11F48008801F096FFD7
:101070001FE01E48008801F091FF1AE004EB841085
:10108000184901EB4000801C805D802139410840F7
:1010900018B14946284601F00FFC681C85B2A5EB43
:1010A0000B00202805D15D4609F101001FFA80F9E7
:1010B00003E0781CC7B2082FC8DB00BF701CC6B2A3
:1010C000802EC1DB00BF601C84B2009884429EDB8E
:1010D0000748438802880021084601F009FEBDE860
:1010E000F88F0000AA0B0020BA0F0020BC0F0020D0
:1010F000401300202DE9F84F0746894690461C46CC
:10110000DDF828A04046FFF72FF886B2102C0CDD42
:10111000214604EBD17252100D4B1B8806FB123096
:1011200000EBD072C2F34F0507E009490988A1EB33
:10113000C60000EBD071C1F34F05791988B2234680
:1011400042464946CDF800A002F06AF8BDE8F88FA3
:101150004013002038B5024600230020009000BF55
:1011600092F82400012801D1022038BD012082F824
:10117000240000BF4868072812D21068406B0C7921
:10118000641E04EB84051F24AC40A0430D796D1E42
:1011900005EB85050C68AC4020431468606327E0CC
:1011A00048680D2812D21068006B0C79E41F04EB1C
:1011B00084051F24AC40A0430D79ED1F05EB850588
:1011C0000C68AC4020431468206311E01068C06ACA
:1011D0000C790D3C04EB84051F24AC40A0430D7931
:1011E0000D3D05EB85050C68AC4020431468E062BA
:1011F00008680A2812D31068C0680C780A3C04EB0F
:1012000044050724AC40A0430D780A3D05EB450595
:101210008C68AC4020431468E0600FE010680069FF
:101220000C7804EB44050724AC40A0430D7805EB93
:1012300045058C68AC40204314682061086810287C
:1012400002D00868112827D1174C1068A0421ED17F
:101250001068806800F40000F0B91068806840F4FD
:1012600000001468A0600868102815D10F480068B5
:101270000F4CB0FBF4F000EB80004000009002E067
:101280000098401E009000980028F9D104E0906A70
:1012900040F020009062012300BF002082F824006B
:1012A00000BF184661E70000002401401400002040
:1012B00040420F0001460868C06C7047F8B504460C
:1012C0000D46002600200090002700F089FB06460E
:1012D0002068806800F4807050B1A06A40F020005F
:1012E000A06200BF002084F8240000BF0120F8BDE8
:1012F0002068406800F4807020BB2068C06A00F459
:101300007000F8B917E0681CA8B125B100F068FBBF
:10131000801BA8420FD92068006800F0020050B975
:10132000A06A40F00400A06200BF002084F82400FE
:1013300000BF0320DBE72068006800F002000028FF
:10134000E1D053E0022000F0FDFB38490968B1FB11
:10135000F0F021680969364A114091B92168C968DD
:101360009211114069B921680969324A114031B9B5
:101370002168C9689211114009B9142117E0292187
:1013800015E0216809692B4A114021B92168C96813
:101390009211114041B121680969274A114029B9C8
:1013A0002168C968114009B9542100E0FC2100FB03
:1013B00001F718E0681C98B125B100F011FB801B03
:1013C000A8420DD90098B8420AD2A06A40F00400A1
:1013D000A06200BF002084F8240000BF032086E73D
:1013E0000098401C00900098B842E3D36FF01200C0
:1013F00021680860A06A40F40070A06220688068DC
:1014000000F46020B0F5602F0DD1207B58B9A06AA0
:1014100020F48070A062A06A00F4805018B9A06A1D
:1014200040F00100A062002061E7000014000020ED
:1014300024499224922449124992240070B504460A
:10144000002500BF94F82400012801D1022070BDBE
:10145000012084F8240000BF2046FEF7DBFF05468C
:10146000002D77D1A06A40F20121884340F48070BA
:10147000A0623C492068884208D13B48006800F4DB
:10148000702008B9012002E0002000E0012078B1BE
:10149000A06A20F48010A0622068406800F4806098
:1014A00000B3A06A20F4005040F48050A06219E01C
:1014B000A06A40F48010A0622B49091F206888426E
:1014C00003D028492068884204D12748006800F4E6
:1014D000806000E0002028B1A06A20F4005040F4B1
:1014E0008050A062A06A00F4805020B1E06A20F031
:1014F0000600E06201E00020E06200BF002084F806
:10150000240000BFC01E216808602068806800F4C5
:101510006020B0F5602F16D112492068884208D1AA
:101520001148006800F4702008B9012002E0002092
:1015300000E0012038B12068806840F4A0002168F4
:1015400088600CE006E02068806840F48010216824
:10155000886004E000BF002084F8240000BF284613
:1015600075E70000002801400424014070B50446DE
:10157000002500BF94F82400012801D1022070BD8D
:10158000012084F8240000BF2046FEF714FF054622
:101590002DB9A06A20F4885040F00100A06200BF7D
:1015A000002084F8240000BF2846E8E70146002216
:1015B00091F82100022808D00420886300BF002091
:1015C00081F8200000BF012070470868006820F003
:1015D0000E000B6818600868006820F001000B68B6
:1015E000186091F8403001209840CB6B5860012082
:1015F00081F8210000BF002081F8200000BF1046C4
:10160000E2E7000070B50446002594F821000228A6
:1016100003D00420A063012548E02068006820F082
:101620000E00216808602068006820F00100216831
:1016300008601F492068884201D1012026E01C492A
:1016400014312068884201D110201FE01849283148
:101650002068884201D1801518E015493C31206886
:10166000884201D1801411E011495031206888422C
:1016700002D14FF4803009E00D496431206888427E
:1016800002D14FF4801001E04FF080700849083912
:101690004860012084F8210000BF002084F8200069
:1016A00000BF606B10B12046616B8847284670BD53
:1016B0000800024010B50446204602F051FA10BD61
:1016C0002DE9F8470346002294466EE14FF00108E9
:1016D00008FA02F4D1F8008008EA0400A0427DD1A3
:1016E000DFF8DCA2D1F80480A8EB0A09D0453AD093
:1016F00014DCB8F1030F50D009DCB8F1000F31D081
:10170000B8F1010F1CD0B8F1020F49D120E0B8F1B7
:10171000110F18D0B8F1120F42D11EE0B9F5881F91
:1017200025D006DCB9F5803F20D0B9F5801F37D130
:101730001AE0B9F5001F18D0B9F5041F30D117E031
:10174000D1F80CC02DE0D1F80C8008F1040C28E091
:10175000D1F80C8008F1080C23E0D1F80C8008F1D6
:101760000C0C1EE000BF00BF00BF00BF00BF00BFE9
:10177000D1F80880B8F1000F02D14FF0040C0BE053
:10178000D1F80880B8F1010F03D14FF0080C1C61AB
:1017900002E04FF0080C5C6103E04FF0000C00E049
:1017A00000BF00BFFF2801D8984601E003F10408FC
:1017B0004646FF2802D84FEA820803E0A2F1080853
:1017C0004FEA88084746D6F800804FF00F0909FA1B
:1017D00007F928EA09080CFA07F900E088E048EA66
:1017E0000908C6F80080D1F8048008F08058B8F1E4
:1017F000805F7DD100BFDFF8CC81D8F8188048F039
:101800000108DFF8C091C9F81880C846D8F81880D8
:1018100008F00108CDF8008000BF00BF4FEAB938DA
:101820004FEA920958F829504FEA82784FEA18791E
:101830004FF00F0808FA09F825EA0805DFF8888153
:10184000434502D14FF0000816E0DFF880814345A0
:1018500002D14FF001080FE0DFF87481434502D157
:101860004FF0020808E0DFF86C81434502D14FF0E9
:10187000030801E04FF004084FEA82794FEA197932
:1018800008FA09F848EA0505DFF84C814FEA9209A1
:1018900048F82950D1F8048008F48018B8F5801F62
:1018A0000AD1DFF83881D8F8008048EA0008DFF86C
:1018B0002C91C9F8008009E0DFF82081D8F8008079
:1018C00028EA0008DFF81491C9F80080D1F80480F4
:1018D00008F40018B8F5001F10D1DFF8008108F1F6
:1018E0000408D8F8008048EA0008DFF8F09000E02B
:1018F0005AE009F10409C9F800800DE0DFF8DC8046
:1019000008F10408D8F8008028EA0008DFF8CC9035
:1019100009F10409C9F80080D1F8048008F40038FE
:10192000B8F5003F0ED1DFF8B480A8F10408D8F86C
:10193000008048EA0008DFF8A490A9F10409C9F87A
:1019400000800DE0DFF89480A8F10408D8F800804A
:1019500028EA0008DFF88490A9F10409C9F800809A
:10196000D1F8048008F48038B8F5803F0ED1DFF854
:101970006C80A8F10808D8F8008048EA0008DFF871
:101980005C90A9F10809C9F800800DE0DFF84C80EF
:10199000A8F10808D8F8008028EA0008DFF83C9091
:1019A000A9F10809C9F80080521CD1F8008028FA72
:1019B00002F8B8F1000F7FF489AEBDE8F8870000A7
:1019C000000011100010024000080140000C01400E
:1019D00000100140001401400800014008040140CB
:1019E00001480068704700001C00002003480068A0
:1019F0000349097808440149086070471C00002029
:101A00002400002010B50848006840F01000064986
:101A10000860032000F082F80F2000F007F800F0C3
:101A20002BF8002010BD00000020024070B50446D5
:101A30000E4800784FF47A71B1FBF0F00C49096858
:101A4000B1FBF0F5284600F041FC08B1012070BD63
:101A5000102C07D200222146501E00F021F8054824
:101A6000046001E00120F2E70020F0E724000020FC
:101A700014000020200000207047000010B501462F
:101A80000846002807DB00F01F0301229A40034BA1
:101A9000440943F8242000BF10BD000080E200E0AC
:101AA0002DE9F05F80460D461646002701F0ACFF99
:101AB000074639462A46334601F00700C0F1070AB7
:101AC000BAF1040F02D94FF0040A01E0C0F1070A8D
:101AD000D14600F1040ABAF1070F02D24FF0000A12
:101AE00001E0A0F1030AD4464FF0010A0AFA09FA0C
:101AF000AAF1010A0AEA020A0AFA0CFA4FF0010BEB
:101B00000BFA0CFBABF1010B0BEA030B4AEA0B04DB
:101B10002146404601F080FFBDE8F09F00BF00F085
:101B20000702064B19684FF6FF031940044B0B439D
:101B300043EA0221014B196000BF70470CED00E041
:101B40000000FA052DE9F04706464FF00008002591
:101B500000270024A146012E31D0022E56D0102E8F
:101B60005FD132484468006800F0807008B33048A4
:101B7000C4F38341475C04F4803078B12B4840685B
:101B8000C0F340402B4911F8008004F4803040B18C
:101B90002948B0FBF8F000FB07F502E0274807FBF7
:101BA00000F52248406800F48000B0F5800F01D1B4
:101BB000A94603E068000321B0FBF1F932E01B48BD
:101BC000046A04F44070B0F5807F05D104F002008F
:101BD00010B14FF4004918E004F44070B0F5007FF4
:101BE00007D11248406A00F0020010B149F640499E
:101BF0000BE004F44070B0F5407F06D10B4800685C
:101C000000F4003008B14FF224490BE000F0E4F892
:101C100006494968C1F38131491C4900B0FBF1F91B
:101C200000E000BF00BF4846BDE8F087001002405A
:101C3000B24C0008C24C000800127A0000093D00B6
:101C400070B504460D460CB9012070BD5A480068B5
:101C500000F00700A8420ED25748006820F00700A5
:101C60002843554908600846006800F00700A8426C
:101C700001D00120E9E7207800F0020002281DD100
:101C8000207800F00400042805D14C48406840F456
:101C9000E0604A494860207800F00800082805D133
:101CA0004648406840F460504449486043484068B2
:101CB00020F0F000A168084340494860207800F017
:101CC000010078B36068012806D13C48006800F440
:101CD000003090B90120B8E76068022806D1374883
:101CE000006800F0007040B90120AEE7334800689A
:101CF00000F0020008B90120A7E73048406820F052
:101D00000300616808432D494860FFF769FE0646F5
:101D100009E0FFF765FE801B41F28831884202D955
:101D2000032092E707E02548406800F00C00616856
:101D3000B0EB810FEDD12048006800F00700A84209
:101D40000ED91D48006820F0070028431A49086092
:101D50000846006800F00700A84201D0012074E79F
:101D6000207800F00400042807D11448406820F4CB
:101D7000E060E168084311494860207800F00800FD
:101D8000082808D10D48406820F46050216940EAD5
:101D9000C1000A49486000F02FF808494968C1F3BA
:101DA0000311074A515CC8400649086006480068AC
:101DB000FFF73CFE002048E70020024000100240F0
:101DC000884C000814000020200000200148006812
:101DD000704700001400002000B5FFF7F7FF04492A
:101DE0004968C1F3C221034A515CC84000BD0000EC
:101DF00000100240984C000870B500210022002419
:101E000000230020134D696801F00C05F5B1042D85
:101E100002D0082D19D101E00F4819E00F4DC1F390
:101E20008346AB5D01F4803555B10A4D6D68C5F34D
:101E300040450B4E725D084D5D43B5FBF2F402E088
:101E4000084D03FB05F4204602E000BF024800BF36
:101E500000BF70BD0010024000127A00A04C0008C4
:101E6000B04C000800093D00F8B504460CB901204B
:101E7000F8BD207800F00100002878D0F8484068CC
:101E800000F00C0004280CD0F548406800F00C006D
:101E9000082811D1F248406800F48030B0F5803F46
:101EA0000AD1EF48006800F4003000285FD0606875
:101EB00000285CD10120DBE700BF6068B0F5803FFF
:101EC00006D1E748006840F48030E549086028E022
:101ED000606858B9E248006820F48030E049086042
:101EE0000846006820F4802008601AE06068B0F5B9
:101EF000A02F0BD1DA48006840F48020D849086050
:101F00000846006840F4803008600AE0D448006861
:101F100020F48030D24908600846006820F4802010
:101F2000086000BF606888B1FFF75AFD054606E00B
:101F3000FFF756FD401B642801D9032098E7C848E5
:101F4000006800F400300028F2D010E0FFF748FDF0
:101F5000054606E0FFF744FD401B642801D9032035
:101F600086E7BF48006800F400300028F2D12078EE
:101F700000F00200022857D1B948406800F00C0078
:101F800050B1B748406800F00C00082818D1B44898
:101F9000406800F4803098B9B148006800F0020051
:101FA00020B12069012801D0012061E7AC48006818
:101FB00020F0F800616940EAC100A949086033E0F7
:101FC0002069E8B10120A7490860FFF709FD05462F
:101FD00006E0FFF705FD401B022801D9032047E773
:101FE0009F48006800F002000028F2D09C4800687A
:101FF00020F0F800616940EAC1009949086013E0E7
:10200000002098490860FFF7EBFC054606E0FFF763
:10201000E7FC401B022801D9032029E7904800680B
:1020200000F002000028F2D1207800F00800082813
:102030002DD1A069B8B101208B490860FFF7D0FC11
:10204000054606E0FFF7CCFC401B022801D903201F
:102050000EE78348406A00F002000028F2D0012019
:1020600001F056F813E000207F490860FFF7B8FC44
:10207000054606E0FFF7B4FC401B022801D9032007
:10208000F6E67748406A00F002000028F2D1207896
:1020900000F00400042873D100277148C06900F0E3
:1020A000805070B900BF6E48C06940F080506C49E4
:1020B000C8610846C06900F08050009000BF00BFB2
:1020C00001276A48006800F48070B0B9674800686A
:1020D00040F4807065490860FFF782FC054606E021
:1020E000FFF77EFC401B642801D90320C0E65F484F
:1020F000006800F480700028F2D000BFE06801287A
:1021000006D15748006A40F001005549086227E0AF
:10211000E06858B95248006A20F00100504908624E
:102120000846006A20F00400086219E0E06805280B
:102130000BD14B48006A40F0040049490862084648
:10214000006A40F0010008620AE04548006A20F099
:102150000100434908620846006A20F00400086252
:1021600000BFE068A0B1FFF73BFC054609E0FFF7C0
:1021700037FC401B41F28831884202D9032077E6C0
:1021800022E03748006A00F002000028EFD012E099
:10219000FFF726FC054608E0FFF722FC401B41F252
:1021A0008831884201D9032062E62D48006A00F098
:1021B00002000028F0D1012F05D12948C06920F084
:1021C00080502749C86100BFE069C8B3244840680F
:1021D00000F00C00082860D0E069022848D10020F7
:1021E00020490866FFF7FCFB054606E0FFF7F8FB11
:1021F000401B022801D903203AE61948006800F084
:1022000000700028F2D1206AB0F5803F07D1144851
:10221000406820F40030A168084311494860D4E9BF
:10222000080108430E49496821F4741108430C4918
:10223000486001200B490866FFF7D2FB054607E01E
:102240003DE0FFF7CDFB401B022801D903200FE63C
:102250000348006800F000700028F2D02FE0000072
:1022600000100240000042428004424200700040E0
:10227000002014490866FFF7B3FB054606E0FFF7A8
:10228000AFFB401B022801D90320F1E50E4800688E
:1022900000F000700028F2D111E0E069012800D1BF
:1022A000E6E50948466806F48031206A814204D197
:1022B00006F47011606A814201D00120D8E5002047
:1022C000D6E50000000042420010024070B504460E
:1022D0002546681EB0F1807F01D301200FE0681E03
:1022E0004FF0E02148610F214FF0FF3001F094FBE7
:1022F00000204FF0E021886107200861002070BDB8
:10230000704770472DE9F84F04462068056820683B
:10231000C668206847694FF00009CA4605F00F09F2
:10232000B9F1000F0AD105F0200038B106F0200005
:1023300020B1204601F016FABDE8F88FB9F1000F80
:102340007BD007F0010018B906F49070002874D013
:1023500005F0010030B106F4807018B1606C40F0F7
:102360000100606405F0040030B107F0010018B10D
:10237000606C40F00200606405F0020030B107F0CC
:10238000010018B1606C40F00400606405F00800C2
:1023900048B106F0200010B907F0010018B1606CD8
:1023A00040F008006064606C002845D005F0200013
:1023B00028B106F0200010B1204601F0D3F92068C2
:1023C0004069C0F3801A606C00F0080010B9BAF1DF
:1023D000000F2CD0204601F07FF92068406900F002
:1023E000400000B300BF00BF2168143151E8001F56
:1023F00021F040002168143141E80002002AF3D1A5
:1024000000BFE06B50B17748E16B4863E06BFFF7CA
:10241000F9F888B1E06B416B88470DE02046FFF783
:1024200070FF09E009E02046FFF76BFF04E020465B
:10243000FFF767FF002060647EE7206B012877D1FB
:1024400005F01000002873D006F010000028FAD024
:1024500000BF00200090206800680090206840685D
:10246000009000BF00BF2068406900F040000028D5
:102470005FD0E06B006840681FFA80F8B8F1000F89
:1024800055D0A08D404552DDA4F82E80E06B8069C8
:10249000202843D000BF00BF21680C3151E8001F45
:1024A00021F4807021680C3141E80002002AF3D148
:1024B00000BF00BF00BF2168143151E8001F21F0A8
:1024C00001002168143141E80002002AF3D100BF65
:1024D00000BF00BF2168143151E8001F21F0400007
:1024E0002168143141E80002002AF3D100BF202006
:1024F00084F842000020206300BF00BF21680C3137
:1025000051E8001F21F0100021680C3141E8000261
:10251000002AF3D100BFE06BFFF748F802206063A8
:10252000A08DE28D801A81B22046FFF7E9FE03E715
:1025300042E0A08DE18D401A1FFA80F8E08DD0B303
:10254000B8F1000F37D000BF00BF21680C3151E84F
:10255000001F21F4907021680C3141E80002002A2C
:10256000F3D100BF00BF00BF2168143151E8001F44
:1025700021F001002168143141E80002002AF3D162
:1025800000BF202084F842000020206300BF00BF6D
:1025900021680C3151E8001F21F0100021680C3136
:1025A00041E80002002AF3D100BF022060634146E7
:1025B0002046FFF7A5FEBFE605F0800030B106F02B
:1025C000800018B1204601F04BF9B5E605F0400057
:1025D00030B106F0400018B1204601F0B3F8ABE688
:1025E00000BFA9E6C53600082DE9F84F04460E469F
:1025F000174699464FF0000A94F8420020284FD120
:1026000006B117B90120BDE8F88F002060642220D0
:1026100084F8420000202063FFF7E2F98246A78594
:10262000E785A068B0F5805F04D1206910B9002566
:10263000B04602E035464FF0000829E0534600223C
:1026400020212046CDF8009001F03AF908B103208E
:10265000D9E745B920684068C0F30800A8F8000031
:1026600008F1020811E0A068B0F5805F03D0A0680F
:1026700028B9206918B920684068287004E02068EB
:10268000406800F07F0028706D1CE08D401EE085E2
:10269000E08D0028D2D1202084F842000020B2E74B
:1026A0000220B0E77047704700BFFEE70C48007893
:1026B000FF2804DA0A480078401C094908700848D5
:1026C00000781E280BD10748007808B9012000E0E7
:1026D00000200449087004480078044908707047D5
:1026E000FE02002012000020FD020020FC0200205B
:1026F00070B50646002409480588408845430021F6
:10270000084600F0DBFA00F075FC00BF03E030463D
:1027100000F044FC641CAC42F9D370BD40130020AF
:1027200010B504460CB1012C1CD10020354988712C
:10273000F02008804FF4A07048802C2008812A20C7
:1027400048812B20888134B9362000F0FBFB002023
:1027500000F0CCFB27E0362000F0F4FBC02000F0B6
:10276000C5FB20E0022C01D0032C1CD101202549FF
:1027700088714FF4A0700880F02048802C200881D8
:102780002A2048812B208881022C06D1362000F097
:10279000D9FBA02000F0AAFB05E0362000F0D2FB18
:1027A000602000F0A3FB1749488900F0CBFB002014
:1027B00000F09CFB002000F099FB12490988491E9B
:1027C000C1F30F2000F092FB0E490978491EC8B2F0
:1027D00000F08CFB0B49888900F0B4FB002000F06E
:1027E00085FB002000F082FB06494988491EC1F3A1
:1027F0000F2000F07BFB03498978491EC8B200F026
:1028000075FB10BD401300202DE9FF4F84B08146B9
:102810008A460020039002900698A0EB09050798CD
:10282000A0EB0A06CDF80490CDF800A0002D01DD44
:10283000012705E00DB9002702E04FF0FF376D4298
:10284000002E02DD4FF0010806E016B94FF0000837
:1028500002E04FF0FF387642B54201DD2C4600E041
:1028600034464FF0000B21E0009A91B2019A90B2E9
:1028700000F022F803982844039002983044029014
:102880000398A04205DD0398001B0390019838448B
:1028900001900298A04205DD0298001B029000986A
:1028A000404400900BF101001FFA80FB601C83453F
:1028B000DADD08B0BDE8F08F30B504460D46294694
:1028C000204600F0FBF900F095FB0248008800F07C
:1028D00065FB30BDBA0F002070B505460E461446A4
:1028E0003146284600F0EAF902490889214600F0FD
:1028F00089FB70BD401300202DE9FC4F05460E46B4
:1029000017469846DDF82C900020019027488088D3
:1029100046F60401884229D124488079012825D12E
:10292000AB46354621480088C01B401E86B247464C
:102930001E480088A0EB0B00401E1FFA80F8002004
:102940001A4988712A2048812B20888143463A46BB
:1029500031462846CDF80090FFF7CEFF01201349FD
:1029600088712B2048812A2088811CE0781B401C1C
:1029700080B20190344614E02146284600F09EF9CA
:1029800000F038FB4FF0000A06E0484600F006FB76
:102990000AF101001FFA80FA01988245F5DB601CFC
:1029A00084B24445E8DDBDE8FC8F00004013002000
:1029B00000B585B00020019002900390049000BF04
:1029C000BB48806940F00400B949886108468069C5
:1029D00000F00400009000BF00BF00BF08468069FF
:1029E00040F0080088610846806900F00800009007
:1029F00000BF00BF00BF0846806940F0100088613A
:102A00000846806900F01000009000BF00BF012060
:102A1000029000200390032004908814019001A9E3
:102A2000A448FEF74DFE4FF48050A24910310860D3
:102A30002020019001A9A048FEF742FE20209E49D7
:102A4000103108601020019001A99B48FEF738FE64
:102A500010209949103108608020019001A9964802
:102A6000FEF72EFE8020944910310860012001906D
:102A700001A99048FEF724FE01208E49103108601C
:102A80000220019001A98B48FEF71AFE0120894916
:102A9000103108608002019001A98648FEF710FEFF
:102AA0004FF480608349103108604000019001A913
:102AB0008048FEF705FE4FF400607E491031086043
:102AC0004000019001A97B48FEF7FAFD4FF48050C9
:102AD0007849103108604000019001A97548FEF75F
:102AE000EFFD4FF40050734910310860032002904D
:102AF00000200390032004904020019001A96E481B
:102B0000FEF7DEFD4FF48040019001A96948FEF711
:102B1000D7FD4FF40050674910310860012001F0E3
:102B20001FF84FF400506349143108600A2001F087
:102B300017F84FF400505F4910310860782001F019
:102B40000FF8112000F0FEF9782001F009F8362086
:102B500000F0F8F9002000F0C9F93A2000F0F2F98D
:102B6000052000F0C3F9B22000F0ECF90C2000F0D1
:102B7000BDF90C2000F0BAF9002000F0B7F93320BD
:102B800000F0B4F9332000F0B1F9B72000F0DAF921
:102B9000352000F0ABF9BB2000F0D4F9282000F07C
:102BA000A5F9C02000F0CEF92C2000F09FF9C2203A
:102BB00000F0C8F9012000F099F9C32000F0C2F933
:102BC0000B2000F093F9C42000F0BCF9202000F0A5
:102BD0008DF9C62000F0B6F90F2000F087F9D0205B
:102BE00000F0B0F9A42000F081F9A12000F07EF9F6
:102BF000E02000F0A7F9D02000F078F9012000F0E3
:102C000075F9082000F072F90F2000F06FF911201B
:102C100000F06CF92A2000F069F9362000F066F91E
:102C2000552000F063F9442000F060F93A2000F0EC
:102C30005DF90B2000F05AF9062000F057F9112039
:102C400000F054F9202000F051F9E12000F07AF969
:102C5000D02000F04BF9022000F048F9072000F0E6
:102C600045F90A2000F042F90B2000F03FF9182046
:102C700000F03CF9342000F039F9432000F036F937
:102C80004A2000F033F92B2000F030F91B2000F02F
:102C90002DF91C2000F02AF9222000F027F91F202E
:102CA00000F024F9292000F04DF905B000BD000026
:102CB00000100240000C01400008014030B50446FD
:102CC0000D460A49488900F03DF9201200F00EF93E
:102CD000E0B200F00BF90549888900F033F92812B9
:102CE00000F004F9E8B200F001F930BD4013002013
:102CF0002DE9F04304460D4616461F46A019401E16
:102D00001FFA80F8E819401E1FFA80F91249488915
:102D100000F018F9201200F0E9F8E0B200F0E6F84F
:102D20004FEA282000F0E2F808F0FF0000F0DEF89B
:102D30000949888900F006F9281200F0D7F8E8B2AE
:102D400000F0D4F84FEA292000F0D0F809F0FF0095
:102D500000F0CCF8BDE8F083401300202DE9F84FD7
:102D600080460E4617461C46B3462046E31704EB42
:102D70005373DB1021464FEAE47C04EB5C7C4FEAA2
:102D8000EC0CA4EBCC0CBCF1000F02D04FF0010C0A
:102D900001E04FF0000C6344224604EBD27C4FEA82
:102DA0006C0C03FB0CF3DBB20093A7F12000C7B25D
:102DB000002556E00C2C07D107EB47002B4901EB0F
:102DC000800010F8059013E0102C05D1284800EB86
:102DD000071010F805900BE0182C07D107EBC7007F
:102DE000244901EB800010F8059001E0BDE8F88F60
:102DF0004FF0000A2FE009F0800030B11E48028831
:102E000031464046FFF768FD07E00A9828B91B489D
:102E1000028831464046FFF75FFD4FEA49604FEABE
:102E20001069701C86B216484088B04200DCDDE7AD
:102E3000A6EB0B00A0420AD15E4608F101001FFA82
:102E400080F80F480088404500DCCFE706E00AF133
:102E5000010000F0FF0ABAF1080FCCDB00BF681CCC
:102E6000C5B200988542A5DB00BFBFE7CE4C000885
:102E70004251000832570008BA0F0020BC0F002052
:102E8000401300202DE9F84704460D469046994628
:102E9000DDE9096704F0FF0A08EB04001FFA80F877
:102EA00009EB05001FFA80F916E0444502DB5446A1
:102EB000A81985B24D4500DB14E0002000903A7857
:102EC000334629462046FFF749FF304606EBD071CE
:102ED00004EB61018CB27F1C38787E2802DC3878E4
:102EE0002028E2DA00BFBDE8F88700004FF48052E6
:102EF000124B1A601022124B1A60002116E000F0EB
:102F000080021AB180220E4B1A6003E080220C4B23
:102F10001B1D1A604FF6FF7202EA40002022084B88
:102F20001B1D1A601B1F1A604A1CD1B20829E6DB60
:102F30004FF48052014B1B1F1A607047140C014064
:102F4000100801404FF48052124B1A601022124BAD
:102F50001A60002115E000F0800222B180220E4BA1
:102F60001B1F1A6002E080220B4B1A604FF6FF72A3
:102F700002EA40002022084B1A601B1F1A604A1CFC
:102F8000D1B20829E7DB4FF48052024B1B1F1A60B5
:102F900070470000140C0140140801404FF48052A7
:102FA000124B1A601022124B1A60002116E000F436
:102FB00000421AB180220E4B1A6003E080220C4BB3
:102FC0001B1D1A604FF6FF7202EA40002022084BD8
:102FD0001B1D1A601B1F1A604A1CD1B21029E6DBA8
:102FE0004FF48052014B1B1F1A607047140C0140B4
:102FF0001008014000B502490889FFF7A3FF00BD92
:103000004013002030B505460C462846FFF79AFFCE
:103010002046FFF7C3FF30BD1248007878B9012081
:10302000104908701048007820B14FF480700F49A3
:10303000086015E04FF400700C49086010E00020B3
:10304000084908700848007828B14FF48070074993
:10305000091F086004E04FF400700449091F08606C
:10306000704700001300002012000020140C0140E3
:103070000CB54FF6FF70FFF73BFB1F200B49088094
:103080004FF6FF700A4908800AA01021CDE9001010
:1030900009490988183988B21023C8220021FFF78E
:1030A000F1FE4FF47840014908800CBDBA0F0020B2
:1030B000BC0F0020525354004013002000BFFEE715
:1030C00010B510200C490860012000F0CAFC012056
:1030D0000A49087000200A49088001F01BFD002001
:1030E00008490870084908800021012001F0EAFC25
:1030F000002000F0B6FC10BD14080140E5000020DF
:10310000EE000020E4000020EC0000207047704733
:1031100008B508490968C9084FF47A72B1FBF2F1A1
:103120004143009100BF00BF00994A1E0092002950
:10313000F9D108BD140000202DE9F04F87B080467A
:103140000E46002004900590069001203149087039
:1031500031480390002000900190029000278146A2
:103160004FF6FF7A0024CDF800800120019007205F
:10317000029069460398FDF7EDFF30B10020254924
:103180000870401E07B0BDE8F08F012E01DA01265D
:1031900002E0142E00DD14264FF0000B1CE0039813
:1031A000FEF74CF90A210398FEF788F868B90398EE
:1031B000FEF780F885B22F44601CC4B24D4500DD97
:1031C000A946554500DAAA4600BF0398FEF7CEF996
:1031D0000BF1010000F0FF0BB345E0DB04A90398FD
:1031E000FDF7B8FF24B900200A490870401EC9E75E
:1031F000022C07DDA7EB0900A0EB0A01A01EB1FB22
:10320000F0F701E0B7FBF4F700200249087038B28C
:10321000B8E70000FA02002070110020704700009B
:103220002DE9F84706460F4615461C46DDF8248072
:10323000B1464FF0000A65E0BAF1000F3AD104EB55
:10324000D471334A1288A2EB6101B14204DB3049E8
:103250004988091BB94201DABDE8F8872878802837
:1032600002DD4FF0010A4DE028780D2804D138190D
:1032700087B24E466D1C1BE0182C0BDBCDF800808E
:103280002A78182339463046FFF768FD06F10C000E
:1032900086B20DE0CDF800802A78234639463046C4
:1032A000FFF75CFD204604EBD07106EB61018EB2A6
:1032B0006D1C27E016480088001BB04204DB144850
:1032C0004088001BB84200DAC6E74FF0000A202C05
:1032D00006D143462A4639463046FDF78DFE0EE0BC
:1032E000182C06D143462A4639463046FDF7FEFDE6
:1032F00005E043462A4639463046FDF779FDAD1CC8
:10330000301986B22878002896D100BFA4E70000C3
:103310004013002010B5FEF769FB10BD7047000098
:1033200010B50748006800F0010038B101F072FBE9
:103330000348006820F001000149086010BD00004A
:10334000100800407047000010B5FDF745FC02482A
:1033500002494860002010BD590C0008C00F002031
:1033600070B50646002500244FF4806021490860AE
:103370004000086002200860304600F07BF906201B
:1033800000F0FAFB4FF480601A490860012000F059
:10339000F3FB4FF480601749091F0860012000F01B
:1033A000EBFB4FF480601349086000BF19E04FF653
:1033B000FF7000EA44044FF480600E490860012069
:1033C00000F0DAFB4FF480600A49091F08600948E1
:1033D0000C38006800F4005008B1601C84B2681C0E
:1033E000C5B2102DE3DB241102200249091F086039
:1033F000204670BD140C01402DE9FE438046002795
:10340000002406E04046FFF7ABFF2DF81400601CD7
:1034100084B2052CF6DB002416E0601C85B20FE0B8
:103420003DF814003DF81510884207DD3DF81460A2
:103430003DF815002DF814002DF81560681C85B2B4
:10344000052DEDDB601C84B2042CE6DB0027012493
:1034500005E03DF81400384487B2601C84B2042CA7
:10346000F7DB032097FBF0F086B23046BDE8FE8321
:103470002DE9F04104460D4607480078FFF7BCFFF0
:10348000064606480078FFF7B7FF074626802F80DC
:103490000120BDE8F0810000F40F0020F50F0020AE
:1034A0007FB504460D4602A903A8FFF7E1FF0646D3
:1034B00016B9002004B070BD694601A8FFF7D8FF17
:1034C00006460EB90020F5E7BDF80400BDF80C1063
:1034D000884206DCBDF80C10BDF804003230814291
:1034E0000CDBBDF80C00BDF80410884236DCBDF8DA
:1034F0000410BDF80C00323081422FDABDF8000014
:10350000BDF80810884206DCBDF80810BDF80000C0
:10351000323081420CDBBDF80800BDF80010884253
:103520001CDCBDF80010BDF808003230814215DA0D
:10353000BDF80C10BDF80420881800EBD071C1F361
:103540004F012180BDF80810BDF80020881800EB5D
:10355000D071C1F34F0129800120ABE70020A9E71A
:103560002DE9F04104464148006800F480400028FD
:1035700056D12CB13E49A1F10A00FFF791FF3DE081
:103580003B49A1F10A00FFF78BFFB8B33849163960
:10359000B1F92C00FCF779FE0746354916398889C0
:1035A000FCF77CFE804632481638416A4046FCF7FC
:1035B0003AFE06463946FCF7DEFD0546FCF773FE8B
:1035C0002B4916398881B1F92E00FCF75EFE0746BB
:1035D00027491639C88AFCF761FE80462448163808
:1035E000816A4046FCF71FFE06463946FCF7C3FDDC
:1035F0000546FCF758FE1E491639C8821C48163885
:1036000090F8200000F0800038BBC020184916391F
:1036100081F82000084681898182C18AC1831CE02B
:103620001348163890F8200000F0800050B1104880
:10363000163890F8200020F080000D49163981F8E6
:1036400020000AE000210A4816388182C1834FF623
:10365000FF70074916398881C8820548163890F8E6
:10366000200000F08000BDE8F0810000080C01405F
:10367000D60F002070B50446002500BF1CE004F002
:10368000800020B14FF400600D49086004E04FF461
:1036900000600B49091D08606006040E4FF480604D
:1036A0000749091D0860012000F066FA4FF48060A8
:1036B00003490860681CC5B2082DE0DB70BD00003E
:1036C000100C014070B505466C6A0020E085E0846E
:1036D0002046FEF716FE70BD00BF00BF02680C3228
:1036E00052E8002F22F4907102680C3242E8001375
:1036F000002BF3D100BF00BF00BF0268143252E8B4
:10370000002F22F001010268143242E80013002B5E
:10371000F3D100BF016B01290ED100BF00BF0268C9
:103720000C3252E8002F22F0100102680C3242E8FD
:103730000013002BF3D100BF202180F8421000219C
:103740000163704710B504462068C06820F040004F
:103750002168C860202084F841002046FEF7A3FFBE
:10376000002010BDF8B5044694F84200222875D117
:10377000A068B0F5805F0CD1206950B90025A66A19
:1037800020684068C0F308003080A06A801CA062F6
:1037900015E0A56A0026A068B0F5805F03D0A06898
:1037A00028B9206918B920684068287004E02068AA
:1037B000406800F07F002870A06A401CA062E08D85
:1037C000401E80B2E085002846D12068C06820F005
:1037D00020002168C8602068C06820F480702168DB
:1037E000C8602068406920F00100216848612020FD
:1037F00084F8420000206063206B012826D100205D
:10380000206300BF00BF21680C3151E8001F21F088
:10381000100021680C3141E80002002AF3D100BFFA
:103820002068006800F0100010280AD100BF0020B6
:10383000009020680068009020684068009000BFF9
:1038400000BFA18D2046FEF75BFD02E02046FEF79B
:1038500029FF0020F8BD01E00020FBE70220F9E786
:10386000014691F84100212828D18868B0F5805F91
:103870000BD1086948B90A6A1088C0F308000B68C0
:103880005860086A801C086205E00B6A581C0862D0
:1038900018780B685860C88C401E80B2C88458B92C
:1038A0000868C06820F080000B68D8600868C068AD
:1038B00040F040000B68D860002070470220FCE711
:1038C0002DE9F04104460D4617469846069E34E021
:1038D000701C88B32EB1FEF783F8A0EB0800B0424D
:1038E0002BD900BF00BF21680C3151E8001F21F423
:1038F000D07021680C3141E80002002AF3D100BFEA
:1039000000BF00BF2168143151E8001F21F0010001
:103910002168143141E80002002AF3D100BF2020C1
:1039200084F8410084F8420000BF002084F8400081
:1039300000BF0320BDE8F081FFE720680068284051
:10394000A84201D1012000E00020B842C0D00020F0
:10395000F0E700001CB5002001901A4800680068DC
:10396000C0F34010B8B118480088802802D3002066
:10397000154908804FF47A73012201A91148FEF716
:1039800033FE9DF80410104802880088401C0E4B3E
:1039900018800E4881540B4800680068C0F300107E
:1039A00070B101F081F800BF002000900548006868
:1039B00000680090034800684068009000BF00BFA6
:1039C0001CBD0000F80F002018000020D0100020BF
:1039D00010B50B480068C06800F0200008B101F085
:1039E00021F807480068C06800F0800008B101F0C5
:1039F00021F82620FEF742F80148FEF783FC10BDAF
:103A0000F812002000BFFEE702480068C0F3022061
:103A1000704700000CED00E010B5002804DB0A0739
:103A2000130E054A135406E00A07140E034A00F069
:103A30000F031B1FD45410BD00E400E018ED00E09C
:103A400000BFFEE702E008C8121F08C1002AFAD131
:103A500070477047002001E001C1121F002AFBD10E
:103A6000704780F31088704788B0002471E03948AF
:103A7000416800208847002469E0364890F820001B
:103A80000121A140084000285AD032480C3030F8BB
:103A9000140031490988884257DA2E48163030F828
:103AA00014002D49498888424FDA03A830F82400D1
:103AB0004FF6FF7188420DD126480C3030F81400C3
:103AC00003A921F824002348163030F8140001EB34
:103AD00084014880214830F8140002211D4D16351C
:103AE000CDE9001035F814300A3D35F8142003AD47
:103AF00005EB8405698803AD35F8240000F034FE39
:103B000014480C3030F8140003A921F8240011489F
:103B1000163030F8140001EB840148800D480C3059
:103B200030F814100C480088183881420DDD09481F
:103B3000163030F81400102807DAFFF799FA04E07D
:103B40004FF6FF7003A921F82400601CC4B2052CB5
:103B500093DB8CE7C00F0020401300209064000826
:103B600010B5044603E04FF47A7000F005F8201E0B
:103B7000A4F10104F7D110BD014601EBC102D2004E
:103B80004FF0E0235A6100229A611A46126942F00E
:103B900004021A611A46126942F001021A6100BF5A
:103BA0004FF0E022106900F001021AB100F48032F7
:103BB000002AF5D04FF0E022126922F001024FF006
:103BC000E0231A6170472DE9F05F06460D464FF07D
:103BD000000B2888052848D170784FEA0029B07872
:103BE00040EA090909F101001FFA80F9F07804029E
:103BF00030790443012C35DBB4F5FA6F32DA3746FD
:103C000000202880012007F8010B2888401C28800C
:103C100004F0070040B12046E11704EB5171C910D0
:103C2000491C01F0FF0805E02046E11704EB517143
:103C3000C1F3C70807F8018B2888401C288000239F
:103C400022464946384600F0E9FA8246BAF1000FAA
:103C500004D0504600F0CCFE834608E0288840445B
:103C6000288004E04FF0030B01E04FF0030B5846AF
:103C7000BDE8F09F2DE9F05F06460D464FF0000BC2
:103C80002888052847D170784FEA0029B07840EAA3
:103C9000090909F101001FFA80F9F078040230796E
:103CA0000443012C34DBB4F5FA6F31DA37460020D7
:103CB0002880022007F8010B2888401C288004F087
:103CC000070040B12046E11704EB5171C910491CAF
:103CD00001F0FF0805E02046E11704EB5171C1F344
:103CE000C70807F8018B2888401C288022464946CF
:103CF000384600F02DFB8246BAF1000F04D0504642
:103D000000F076FE834608E028884044288004E0DE
:103D10004FF0030B01E04FF0030B5846BDE8F09F56
:103D20002DE9F04705460C464FF0000A208805288B
:103D300037D168784FEA0028A87840EA080808F1E7
:103D400001001FFA80F8E87806022E79012E25DBA3
:103D50007D2E23DC2F4600202080032007F8010B56
:103D60002088401C20807006000E07F8010B208878
:103D7000401C2080002332464146384600F04CFB70
:103D80008146B9F1000F04D0484600F031FE82466A
:103D900009E0208800EB4600208004E04FF0030A91
:103DA00001E04FF0030A5046BDE8F0872DE9F047E7
:103DB00005460C464FF0000A2088052837D1687860
:103DC0004FEA0028A87840EA080808F101001FFA25
:103DD00080F8E878060228790643012E24DB7D2E40
:103DE00022DA2F4600202080042007F8010B2088CB
:103DF000401C20807006000E07F8010B2088401C34
:103E0000208032464146384600F060FB8146B9F1D9
:103E1000000F04D0484600F0EBFD824609E0208800
:103E200000EB4600208004E04FF0030A01E04FF071
:103E3000030A5046BDE8F0872DE9FC5F04460D46B5
:103E40000020009028880A285DDB60784FEA002A6D
:103E5000A07840EA0A0A0AF101001FFA80FAE07825
:103E600006022079064360794FEA002BA07940EAE8
:103E70000B0B0BF101001FFA80FBE0790702207A9F
:103E80000743607A0190012E3BDB7D2E39DC012F48
:103E900037DB792F35DC79000198814231D101235C
:103EA0003A46594604F10A0000F0B6FA8146B9F1E3
:103EB000000F1ED1A04600202880172008F8010B13
:103EC0002888401C28807006000E08F8010B2888FE
:103ED000401C2880002332465146404600F09CFAA0
:103EE0008146B9F1000F04D12888022101FB0600A8
:103EF0002880B9F1000F06D0484600F079FD009007
:103F000001E0032000900098BDE8FC9F70B50546D5
:103F10000C46064802880649681CFCF701F903486C
:103F20000088401C2080002070BD0000F8020020A6
:103F3000501100202DE9F84304460F464FF00008C9
:103F40003888052829D160780502A0780543681CC7
:103F500085B22079F0B9E078FF2801D0E078C8B9BF
:103F600000208DF80100E078FF2803D101208DF8B2
:103F7000000002E000208DF8000001231A462946C7
:103F8000684600F04BF906464EB1304600F030FD71
:103F9000804604E04FF0030801E04FF0030840467C
:103FA000BDE8F8832DE9F04104460F464FF00008C4
:103FB0003888052812D160780502A0780543681C6E
:103FC00085B201231A462946E01C00F025FA064670
:103FD00036B1304600F00CFD804601E04FF003089A
:103FE0004046BDE8F0812DE9F05F05460E464FF0F2
:103FF000000B3088052839DD68780702A878074368
:10400000781C87B2E87804022879044395F805A063
:1040100004F0070040B12046E11704EB5171C910CC
:10402000491C01F0FF0805E02046E11704EB51713F
:10403000C1F3C708012C16DBB4F5F66F13DCD045CD
:1040400011D1012322463946A81D00F0E7F8814628
:10405000B9F1000F04D0484600F0CAFC834607E0DF
:104060000520308004E04FF0030B01E04FF0030B1C
:104070005846BDE8F09F2DE9F04704460E464FF044
:10408000000A3088062828DB60780702A0780743FA
:10409000781C87B2E07805022079054394F80590F2
:1040A000012D17DB782D15DC6806000E484511D16F
:1040B00001232A463946A01D00F0AEF98046B8F12A
:1040C000000F04D0404600F093FC824607E0052034
:1040D000308004E04FF0030A01E04FF0030A50463D
:1040E000BDE8F08738B500254148007808B10620C2
:1040F00038BD684600F03AFD012877D19DF80000F0
:1041000030B1012805D0022818D003286DD16BE00A
:104110006BE0384A38493948394B1B68984705469F
:104120005DB93648007837490978884202D033486B
:10413000007810B9022000F02BFD56E02E480068F0
:10414000007831490870012030490870002417E0D8
:104150002F4810F8340000B914E02D4810F834004E
:104160002949097888420AD1294800EBC40021492D
:1041700042682148006890472449087002E0641CA6
:10418000102CE5DB00BF1D48007858B31F480078AD
:10419000C8B10020174908801B48007840F0800112
:1041A000144802880088401C124B1880124800688E
:1041B000815416480278184601880088401C1880EF
:1041C0000D480068425413480078012800D100BF10
:1041D00008480288084801680A4800780E4B1B68A6
:1041E0009847054601E001E000BF00BF00207FE7DF
:1041F0002A000020DE000020D8000020DC00002083
:104200003800002028000020DD000020E000002011
:1042100054000020290000202C0000202DE9FF5F21
:1042200005460E4614469A46002003902046E117A4
:1042300004EB5171C910491C1FFA81F8DFF808918D
:104240000020029040200190404800880090701E9D
:1042500086B20298864271DB3219DDE9011008440A
:1042600082426BDC0099711A88B2C11700EB517160
:10427000CF100099711A88B2C11700EB5171C910A3
:10428000A0EBC1011FFA81FBBAF1000F03D0BAF114
:10429000010F51D126E00EE039467A1C97B201EBAE
:1042A00009000822594600F083FC05F8010BA8F12B
:1042B00001001FFA80F8B8F1000FEDDC6D1E2046FA
:1042C000E11704EB5171C910A4EBC1018CB228783D
:1042D000C4F10801884028702878C4F10801084119
:1042E000287029E00EE015F8013B39467A1C97B298
:1042F00001EB09000822594600F070FCA8F101000A
:104300001FFA80F8B8F1010FEDDC2046E11704EB4D
:104310005171C910A4EBC1018CB264B115F8013B15
:10432000E2B2394607F1010C1FFA8CF701EB0900E4
:10433000594600F053FC00BF02E0FFE70120039064
:10434000039804B0BDE8F09FF8000020F6000020BC
:104350002DE9FE4F05460E461446002002902046E9
:10436000E11704EB5171C910491C1FFA81F9284863
:1043700001904FF0000A102000902648B0F800B0DD
:10438000701E86B256453DDB31190098504481427B
:1043900038DCA6EB0B0188B2C11700EB5171CF10CE
:1043A000A6EB0B0188B2C11700EB5171C910A0EB4D
:1043B000C1011FFA81F80EE039467A1C97B2019AC2
:1043C00088180822414600F0F3FB05F8010BA9F11B
:1043D00001001FFA80F9B9F1000FEDDC6D1E2046D7
:1043E000E11704EB5171C910A4EBC1018CB228781C
:1043F000C4F10801884028702878C4F108010841F8
:10440000287001E0012002900298BDE8FE8F0000B4
:10441000F4000020F20000202DE9F04704460D468C
:104420001E460020274B01274FF07D0CDFF89890A7
:10443000B9F80080A5F101091FFA89F5BD423EDBFC
:1044400005EB020907EB0C0AD14538DCA5EB08099E
:104450001FFA89F116B1012E30D115E011E033F8C1
:1044600011904FEA292904F8019B13F8119004F8E0
:10447000019B01F101091FFA89F1A2F101091FFA5B
:1044800089F2002AEBDC19E015E014F801AB4FEAE1
:104490000A2923F8119014F8019B33F811A049EA76
:1044A0000A0923F8119001F101091FFA89F1A2F11B
:1044B00001091FFA89F2002AE7DC00BF00E00120B1
:1044C000BDE8F087FE010020FC0100202DE9F0434B
:1044D00003460020174D00267D27DFF85C80B8F8E2
:1044E00000C0A1F101081FFA88F1B1421FDB01EB06
:1044F000020806EB0709C84519DCA1EB0C081FFAF6
:1045000088F411E035F814804FEA282803F8018B6D
:1045100015F8148003F8018B04F101081FFA88F4E0
:10452000A2F101081FFA88F2002AEBDC00E001206A
:10453000BDE8F083020100200001002010B52048F2
:104540000078C0F3001008B310201E4908601E4810
:104550000068C06820F040001B490968C860FEF789
:10456000AFFD1748007820F008001549087008468C
:10457000007820F01000087014480078FF281EDA38
:1045800012480078401C1149087018E00C48007867
:10459000C0F3401098B110200A490860FEF790FD62
:1045A0000B480078FF2804DA09480078401C0849C5
:1045B00008700348007820F020000149087010BD01
:1045C0000800002014080140F8120020D400002048
:1045D000D5000020F8B505460E4614461F4604B91E
:1045E000F8BD2819401E82B233463146284600974E
:1045F000FEF782F900BFF3E72DE9F04F0746884642
:1046000016469A4640F2C32070434FF47A71B0FBCD
:10461000F1F000F1010906FB06F000EB560B344601
:1046200071040A0CB91B88B253464146FFF7D2FF0A
:10463000012535E005FB05F004FB040058451AD9B7
:104640004C4517D96B1E5B041A0C08EB040399B296
:104650007B1B5B1C98B25346FFF7BCFF6B1E5B04D1
:104660001A0CA8EB040399B27B1B5B1C98B253464F
:10467000FFF7B0FF641E63041A0C08EB050399B240
:104680003B1B98B25346FFF7A5FF63041A0CA8EB37
:10469000050399B23B1B98B25346FFF79BFF6D1C75
:1046A0004D45C7D9BDE8F08F00B5002025490870F9
:1046B0002548006800F00100002833D12348007825
:1046C000A8B901202149087000202149087021491A
:1046D000087021480078401C1F49087000201F49BD
:1046E00008701F4908701E201E49087026E01C48EB
:1046F0000078401C1A490870084600781949097862
:1047000088421BDD174800780A2804DD1548007828
:10471000C01E1449087000201149087001200F497B
:1047200008700BE00948007840B100200749087084
:10473000084908700949087009490870FDF7B6FF73
:1047400000BD0000FC02002008080140FF0200201C
:1047500002030020FE020020FD02002001030020D1
:1047600000030020030300202DE9FF4F85B08046A1
:104770008946129F002003900290B84507DB0798F6
:10478000B84204DBB94502DB0898B84202DA09B046
:10479000BDE8F08F0798A0EB08040898A0EB090586
:1047A000CDF80480CDF80090002C02DD4FF0010A16
:1047B00006E014B94FF0000A02E04FF0FF3A6442FD
:1047C000002D02DD4FF0010B06E015B94FF0000B94
:1047D00002E04FF0FF3B6D42AC4201DD264600E0B7
:1047E0002E460020049023E0009A91B2019A90B2E4
:1047F0003A46139BFFF700FF03982044039002986A
:10480000284402900398B04205DD0398801B039072
:104810000198504401900298B04205DD0298801B37
:1048200002900098584400900498401C80B2049074
:10483000711C04988842D7DD00BFA8E7FDF7E2F8B5
:104840004FF4E01000F0FEF8FBF72CFEFEF7B0F896
:104850002C4890F8300040F080002A4981F8300060
:104860000120FDF75DFF4FF6FF70FDF741FF26A029
:1048700000F058F8FCF7BEF80020FDF751FF214981
:10488000086880474FF4784022490880FFF7ECF829
:104890004FF4C870FCF70EFF32E01F48007800F0BC
:1048A0000100C0B11C48007820F001001A490870CE
:1048B000FFF7FAFE18480078C0F3800038B11648B8
:1048C000007820F0040014490870FEF7A5FBFFF7FC
:1048D00035FEFFF707FC10480078C0F3400078B1C0
:1048E0000D48007820F002000B4908700A210520CD
:1048F000FEF722FC094908800846008808494880DC
:10490000CBE70000C00F002049433A5354373738F3
:1049100039000000BA0F002008000020100000201D
:10492000FE01002038B5044620A0FCF7C3F84FF480
:104930007840224908800120202321A26421009090
:104940000020FCF7D7FB4FF4FC601C4908800120D5
:1049500020231DA2872100900020FCF7CBFB1F2005
:1049600016490880012018232246AA210090002021
:10497000FCF7C0FB0020114908800120182315A274
:10498000C42100900020FCF7B5FB00200B490880F3
:104990000120182312A2EB2100900020FCF7AAFBB3
:1049A0004FF4E160FFF7DCF838BD0000CFD4CABE99
:1049B000C6C1B2E2CAD4B3CCD0F20000BA0F002014
:1049C000CFD4CABEC6C10000B2E2CAD4B3CCD0F2C2
:1049D000000000003234305247422A3332300000A7
:1049E00054454C3A31333532383839363132370064
:1049F000014621B1012904D0072906D103E0002096
:104A000005E0022003E0062001E0042000BF00BF13
:104A10007047000010B502480068804710BD0000D4
:104A20004800002010B502480068804710BD000013
:104A30004000002010B502480068804710BD00000B
:104A40004400002010B590B0044614210BA8FBF7D9
:104A500080FB282101A8FBF77CFB012001900004CA
:104A600002900020039002200890C10309914FF4A6
:104A7000E0110A9101A8FDF7F7F908B100BFFEE7C0
:104A80000F200B9002200C9000200D900F904FF4FF
:104A900080600E9002210BA8FDF7D2F808B100BF8C
:104AA000FEE710B010BD000010B580210348FBF7F1
:104AB00050FB00200249088010BD0000D0100020EB
:104AC0001800002040B1124A1268D26842F0200259
:104AD0000F4B1B68DA6007E00D4A1268D26822F0BB
:104AE00020020B4B1B68DA6041B1094A1268D26898
:104AF00042F08002064B1B68DA6007E0044A126845
:104B0000D26822F08002024B1B68DA607047000016
:104B1000F812002000BF14480068006A41F2111129
:104B2000084068B910480068006A8910084038B920
:104B30000D480068006820F001000B490968086012
:104B400000BF002008490968486207480068C0683B
:104B500020F0010004490968C8606FF001000249B3
:104B600009680861704700002012002001460020FB
:104B7000054A127832B1054A12780A700022024BB7
:104B80001A70012070470000F1000020F0000020A2
:104B900001460120044A107004480170022900D027
:104BA00000BF012070470000F1000020F00000204D
:104BB000F0B503460C461546E208A4EBC20087B2E6
:104BC0000120A840401E86B2995C501C185C41EA46
:104BD000002139413140C8B2F0BD00002DE9FF5F2E
:104BE00005460E469046DDF80CB0B8F1080F00DC23
:104BF00004E0372213A120A0FEF722FFF408A6EB61
:104C0000C4001FFA80FA0BFA0AF01FFA80FB012099
:104C100000FA08F0401E1FFA80F9A6EBC40009FA5A
:104C200000F01FFA80F92F5D601C285C47EA00271E
:104C300027EA090040EA0B072F553912601C295456
:104C4000BDE8FF9F2E2E5C2E2E5C53544D33324D0B
:104C5000425C53544D33324D425C6D6F64627573E8
:104C60005C66756E6374696F6E735C6D6275746992
:104C70006C732E630000000075634E4269747320EC
:104C80003C3D203800000000000000000000000053
:104C900001020304060708090000000001020304E2
:104CA00002030405060708090A0B0C0D0E0F10106D
:104CB000010202030405060708090A0B0C0D0E0F7A
:104CC00010100102030009000F0015001B00000076
:104CD00000000000000000000000000000003F4055
:104CE00000000000000000003000400030004000E4
:104CF000000009000BC03D000BC03D00090018C0BA
:104D000024407FE0224031800000180024C01B00B6
:104D10000D803240018003801C4027401C800740EA
:104D200000401000600000000000000000000000D3
:104D3000000000001F802040402000004020204054
:104D40001F8000000000090006001F800600090007
:104D50000000040004003F80040004000000001074
:104D600000600000000000000000040004000400D7
:104D700004000400000000000040000000000000EB
:104D80000000002001C006003800400000001F8025
:104D90002040204020401F800000000010403FC005
:104DA00000400000000018C021402240244018406C
:104DB000000010802040244024401B80000002009E
:104DC0000D0011003FC0014000003C802440244001
:104DD0002440238000001F8024402440344003806E
:104DE00000003000200027C03800200000001B8099
:104DF0002440244024401B8000001C0022C022408C
:104E000022401F8000000000000008400000000059
:104E1000000000000000046000000000000000002E
:104E200004000A0011002080404009000900090028
:104E300009000900000000004040208011000A0025
:104E400004001800200023402400180000001F80E8
:104E50002040274029401F400000004007C0390083
:104E60000F0001C0004020403FC0244024401B8070
:104E700000001F8020402040204030800000204063
:104E80003FC0204020401F80000020403FC0244001
:104E90002E4030C0000020403FC024402E00300093
:104EA00000000F001080204022403380020020408C
:104EB0003FC0040004003FC02040204020403FC0CD
:104EC0002040204000000060202020203FC0200023
:104ED000200020403FC024400B0030C02040204034
:104EE0003FC020400040004000C03FC03C0003C025
:104EF0003C003FC0000020403FC00C4023003FC0AA
:104F000020001F802040204020401F8000002040C3
:104F10003FC024402400180000001F802140214091
:104F200020E01FA0000020403FC02440260019C000
:104F3000004018C02440244022403180000030004E
:104F400020403FC020403000000020003F80004053
:104F500000403F80200020003E0001C007003800D4
:104F60002000380007C03C0007C038000000204087
:104F700039C0060039C0204000002000384007C07A
:104F8000384020000000304021C02640384020C07A
:104F90000000000000007FE04020402000000000F2
:104FA00070000C0003800040000000004020402002
:104FB0007FE0000000000000200040002000000012
:104FC0000000001000100010001000100010000081
:104FD00000004000000000000000000002800540CA
:104FE000054003C0004020003FC00440044003804F
:104FF0000000000003800440044006400000000060
:105000000380044024403FC000400000038005406E
:10501000054003400000000004401FC0244024401D
:105020002000000002E005500550065004202040FA
:105030003FC00440040003C000400000044027C0FB
:1050400000400000000000100010041027E00000E5
:10505000000020403FC00140070004C00440204041
:1050600020403FC000400040000007C0040007C0CF
:10507000040003C00000044007C00440040003C053
:10508000004000000380044004400380000004103E
:1050900007F0045004400380000000000380044037
:1050A000045007F00010044007C002400400040050
:1050B0000000000006400540054004C0000000005C
:1050C00004001F80044000400000040007800040EE
:1050D000044007C000400400070004C0018006002F
:1050E0000400060001C0070001C0060000000440E3
:1050F00006C0010006C0044000000410071004E0D0
:105100000180060004000000044005C00640044081
:1051100000000000000004007BE0402000000000D0
:1051200000000000FFF000000000000040207BE0D5
:10513000040000000000400080004000200020002B
:10514000400000000000000000000000000000001F
:1051500000000000000000001FCC000C0000000058
:10516000000000000800300060000800300060000F
:105170000000022003FC1E20022003FC1E2002204F
:10518000000000000E1811043FFF10840C7800008E
:1051900000000F0010840F3800C0077818840078D2
:1051A000000000780F8410C411240E9800E40084DD
:1051B0000008080068007000000000000000000007
:1051C000000000000000000007E018182004400262
:1051D0000000000040022004181807E00000000052
:1051E00000000240024001800FF0018002400240B6
:1051F00000000080008000800FF8008000800080A8
:1052000000000001000D000E000000000000000082
:10521000000000000080008000800080008000808E
:1052200000800000000C000C0000000000000000E6
:105230000000000000060018006001800600180051
:105240002000000007F0080810041004080807F008
:1052500000000000080408041FFC00040004000013
:10526000000000000E0C10141024104411840E0CC9
:10527000000000000C1810041104110412880C70B6
:105280000000000000E00320042408241FFC002488
:10529000000000001F981084110411041088107081
:1052A0000000000007F0088811041104188800703D
:1052B000000000001C00100010FC13001C00100077
:1052C000000000000E3811441084108411440E3880
:1052D000000000000700088C10441044088807F004
:1052E0000000000000000000030C030C00000000A0
:1052F00000000000000000010106000000000000A6
:105300000000000000800140022004100808100482
:10531000000002200220022002200220022002209F
:105320000000000010040808041002200140008062
:10533000000000000E001200100C106C10800F0016
:10534000000003E00C1813E4142417C4082807D045
:1053500000000004003C03C41C40074000E4001CA3
:10536000000410041FFC1104110411040E880070C5
:10537000000003E00C1810041004100410081C10A6
:10538000000010041FFC100410041004080807F0AB
:10539000000010041FFC1104110417C410040818A5
:1053A000000010041FFC1104110017C010000800B9
:1053B000000003E00C181004100410441C78004096
:1053C000000010041FFC10840080008010841FFC6B
:1053D00010040000100410041FFC1004100400004E
:1053E000000000030001100110011FFE100010005A
:1053F000000010041FFC110403801464181C100426
:10540000000010041FFC1004000400040004000C41
:10541000000010041FFC1F0000FC1F001FFC1004F4
:10542000000010041FFC0C04030000E010181FFC17
:10543000100007F00808100410041004080807F012
:10544000000010041FFC10841080108010800F00DA
:10545000000007F0081810241024101C080A07F296
:10546000000010041FFC1104110011C011300E0CBB
:10547000000400000E1C11041084108410441C3819
:1054800000001800100010041FFC10041000180089
:10549000000010001FF810040004000410041FF89E
:1054A000100010001E0011E0001C007013801C0092
:1054B00010001FC0103C00E01F0000E0103C1FC0A7
:1054C00000001004180C163401C001C01634180C6A
:1054D000100410001C00130400FC13041C00100036
:1054E00000000804101C1064108413041C0410181D
:1054F00000000000000000007FFE40024002400269
:105500000000000030000C0003800060001C00035D
:10551000000000004002400240027FFE0000000048
:10552000000000000000200040004000400020007B
:105530000000000100010001000100010001000164
:1055400000010000400040002000000000000000BA
:10555000000000000098012401440144014400FCC3
:10556000000410001FFC0088010401040088007082
:10557000000000000070008801040104010400889C
:1055800000000000007000880104010411081FFCE5
:105590000004000000F8014401440144014400C833
:1055A00000000000010401040FFC110411041100AB
:1055B0001800000000D601290129012901C90106AE
:1055C000000010041FFC008401000100010400FC25
:1055D000000400000104190419FC00040004000088
:1055E00000000000000300010101190119FE000084
:1055F000000010041FFC0024004001B4010C010451
:1056000000000000100410041FFC0004000400004F
:105610000000010401FC0104010001FC010401007F
:1056200000FC010401FC008401000100010400FCF5
:105630000004000000F8010401040104010400F862
:105640000000010101FF00850104010400880070D1
:10565000000000000070008801040104010501FF42
:1056600000010104010401FC008401040100018027
:105670000000000000CC0124012401240124019831
:10568000000000000100010007F80104010400000F
:105690000000010001F8000400040004010801FCFE
:1056A0000004010001800170000C00100160018005
:1056B000010001F0010C003001C00030010C01F0CC
:1056C000010000000104018C00740170018C0104D0
:1056D0000000010101810171000E001801600180CC
:1056E000010000000184010C013401440184010C1B
:1056F0000000000000000000000001003EFC40022D
:1057000040020000000000000000FFFF0000000059
:1057100000000000400240023EFC010000000000CA
:105720000000000060008000800040004000200079
:105730002000000000000000000000000000000049
:105740000000000000000000000000000000000059
:105750000000000000000000000000000000000049
:1057600000000000000F80380FFE380F8038000066
:105770000000000000000000000000000000000029
:105780000100000600000C00003800003100000697
:1057900000000C0000380000300000000000000095
:1057A000000061800067F807F98000618000618077
:1057B0000061800061800067F807F9800061800067
:1057C000000000000000000001C0E003E0F006302F
:1057D000080418081FFFFE040E080787F00381E085
:1057E00000000000000001F000060C0004040806A0
:1057F0000C7001F9C0000E00003BE000EC18070837
:1058000008040C180003E00000000001E00007F0AD
:1058100003F818041C0804170807E1D003C0E000CF
:1058200023B0003C08002008000010000000000029
:10583000000100003100003200001C0000000000E8
:105840000000000000000000000000000000000058
:105850000000000000000000000000000000000048
:1058600000007F0001FFC00780F00C00181000044A
:105870002000020000000000002000021000040CC4
:1058800000180780F001FFC0007F0000000000004A
:1058900000000000000000000000000000004200C6
:1058A000006600006600003C0000180003FFC00016
:1058B0001800003C00006600006600004200000086
:1058C00000000800000800000800000800000800B0
:1058D00001FFC000080000080000080000080000E8
:1058E000080000000000000100003100003200004C
:1058F0001C0000000000000000000000000000008C
:105900000000000000000000000008000008000087
:105910000800000800000800000800000800000857
:105920000000080000080000000000000000000067
:1059300000003800003800003800000000000000BF
:105940000000000000000000000000000000000057
:105950000000000600001C000070000180000E0026
:1059600000380000C0000700001C000030000000EC
:105970000000000000007F8001FFE003807006004F
:105980001804000804000806001803807001FFE0F6
:10599000007F8000000000000000000001000801FE
:1059A000000801000803FFF807FFF80000080000E6
:1059B0000800000800000000000000000001C038DE
:1059C00002C05804009804011804021804041806C0
:1059D0001C1803F81801E0F80000000000000000A7
:1059E0000001C0E003C0F00400080408080408082F
:1059F00006180803F41801E7F00001E000000000B9
:105A00000000000000000300000D00001100006114
:105A10000000810803010807FFF80FFFF8000108E4
:105A20000001080000000000000000E007FCD006B4
:105A30000808061008061008061008061838060F91
:105A4000F00607C0000000000000000000003F80DA
:105A500001FFE00384300208180410080410080451
:105A60001008071810030FF00007C0000000000026
:105A70000000000003C0000700000600000600F858
:105A80000607F806180006E0000700000600000000
:105A9000000000000001E1E003F7F00634100418F4
:105AA00008041808040C08040C0806161803F3F080
:105AB00001C1E000000000000000F80003FC30031A
:105AC000063804020804020804020804041003084B
:105AD000F001FFC0007F0000000000000000000097
